{
  "_format": "hh-sol-artifact-1",
  "contractName": "VRFCoordinatorV2",
  "sourceName": "@chainlink/contracts/src/v0.8/vrf/VRFCoordinatorV2.sol",
  "abi": [
    {
      "inputs": [
        {
          "internalType": "address",
          "name": "link",
          "type": "address"
        },
        {
          "internalType": "address",
          "name": "blockhashStore",
          "type": "address"
        },
        {
          "internalType": "address",
          "name": "linkEthFeed",
          "type": "address"
        }
      ],
      "stateMutability": "nonpayable",
      "type": "constructor"
    },
    {
      "inputs": [
        {
          "internalType": "uint256",
          "name": "internalBalance",
          "type": "uint256"
        },
        {
          "internalType": "uint256",
          "name": "externalBalance",
          "type": "uint256"
        }
      ],
      "name": "BalanceInvariantViolated",
      "type": "error"
    },
    {
      "inputs": [
        {
          "internalType": "uint256",
          "name": "blockNum",
          "type": "uint256"
        }
      ],
      "name": "BlockhashNotInStore",
      "type": "error"
    },
    {
      "inputs": [
        {
          "internalType": "uint32",
          "name": "have",
          "type": "uint32"
        },
        {
          "internalType": "uint32",
          "name": "want",
          "type": "uint32"
        }
      ],
      "name": "GasLimitTooBig",
      "type": "error"
    },
    {
      "inputs": [],
      "name": "IncorrectCommitment",
      "type": "error"
    },
    {
      "inputs": [],
      "name": "InsufficientBalance",
      "type": "error"
    },
    {
      "inputs": [
        {
          "internalType": "uint256",
          "name": "have",
          "type": "uint256"
        },
        {
          "internalType": "uint256",
          "name": "want",
          "type": "uint256"
        }
      ],
      "name": "InsufficientGasForConsumer",
      "type": "error"
    },
    {
      "inputs": [],
      "name": "InvalidCalldata",
      "type": "error"
    },
    {
      "inputs": [
        {
          "internalType": "uint64",
          "name": "subId",
          "type": "uint64"
        },
        {
          "internalType": "address",
          "name": "consumer",
          "type": "address"
        }
      ],
      "name": "InvalidConsumer",
      "type": "error"
    },
    {
      "inputs": [
        {
          "internalType": "int256",
          "name": "linkWei",
          "type": "int256"
        }
      ],
      "name": "InvalidLinkWeiPrice",
      "type": "error"
    },
    {
      "inputs": [
        {
          "internalType": "uint16",
          "name": "have",
          "type": "uint16"
        },
        {
          "internalType": "uint16",
          "name": "min",
          "type": "uint16"
        },
        {
          "internalType": "uint16",
          "name": "max",
          "type": "uint16"
        }
      ],
      "name": "InvalidRequestConfirmations",
      "type": "error"
    },
    {
      "inputs": [],
      "name": "InvalidSubscription",
      "type": "error"
    },
    {
      "inputs": [
        {
          "internalType": "address",
          "name": "proposedOwner",
          "type": "address"
        }
      ],
      "name": "MustBeRequestedOwner",
      "type": "error"
    },
    {
      "inputs": [
        {
          "internalType": "address",
          "name": "owner",
          "type": "address"
        }
      ],
      "name": "MustBeSubOwner",
      "type": "error"
    },
    {
      "inputs": [],
      "name": "NoCorrespondingRequest",
      "type": "error"
    },
    {
      "inputs": [
        {
          "internalType": "bytes32",
          "name": "keyHash",
          "type": "bytes32"
        }
      ],
      "name": "NoSuchProvingKey",
      "type": "error"
    },
    {
      "inputs": [
        {
          "internalType": "uint32",
          "name": "have",
          "type": "uint32"
        },
        {
          "internalType": "uint32",
          "name": "want",
          "type": "uint32"
        }
      ],
      "name": "NumWordsTooBig",
      "type": "error"
    },
    {
      "inputs": [],
      "name": "OnlyCallableFromLink",
      "type": "error"
    },
    {
      "inputs": [],
      "name": "PaymentTooLarge",
      "type": "error"
    },
    {
      "inputs": [],
      "name": "PendingRequestExists",
      "type": "error"
    },
    {
      "inputs": [
        {
          "internalType": "bytes32",
          "name": "keyHash",
          "type": "bytes32"
        }
      ],
      "name": "ProvingKeyAlreadyRegistered",
      "type": "error"
    },
    {
      "inputs": [],
      "name": "Reentrant",
      "type": "error"
    },
    {
      "inputs": [],
      "name": "TooManyConsumers",
      "type": "error"
    },
    {
      "anonymous": false,
      "inputs": [
        {
          "indexed": false,
          "internalType": "uint16",
          "name": "minimumRequestConfirmations",
          "type": "uint16"
        },
        {
          "indexed": false,
          "internalType": "uint32",
          "name": "maxGasLimit",
          "type": "uint32"
        },
        {
          "indexed": false,
          "internalType": "uint32",
          "name": "stalenessSeconds",
          "type": "uint32"
        },
        {
          "indexed": false,
          "internalType": "uint32",
          "name": "gasAfterPaymentCalculation",
          "type": "uint32"
        },
        {
          "indexed": false,
          "internalType": "int256",
          "name": "fallbackWeiPerUnitLink",
          "type": "int256"
        },
        {
          "components": [
            {
              "internalType": "uint32",
              "name": "fulfillmentFlatFeeLinkPPMTier1",
              "type": "uint32"
            },
            {
              "internalType": "uint32",
              "name": "fulfillmentFlatFeeLinkPPMTier2",
              "type": "uint32"
            },
            {
              "internalType": "uint32",
              "name": "fulfillmentFlatFeeLinkPPMTier3",
              "type": "uint32"
            },
            {
              "internalType": "uint32",
              "name": "fulfillmentFlatFeeLinkPPMTier4",
              "type": "uint32"
            },
            {
              "internalType": "uint32",
              "name": "fulfillmentFlatFeeLinkPPMTier5",
              "type": "uint32"
            },
            {
              "internalType": "uint24",
              "name": "reqsForTier2",
              "type": "uint24"
            },
            {
              "internalType": "uint24",
              "name": "reqsForTier3",
              "type": "uint24"
            },
            {
              "internalType": "uint24",
              "name": "reqsForTier4",
              "type": "uint24"
            },
            {
              "internalType": "uint24",
              "name": "reqsForTier5",
              "type": "uint24"
            }
          ],
          "indexed": false,
          "internalType": "struct VRFCoordinatorV2.FeeConfig",
          "name": "feeConfig",
          "type": "tuple"
        }
      ],
      "name": "ConfigSet",
      "type": "event"
    },
    {
      "anonymous": false,
      "inputs": [
        {
          "indexed": false,
          "internalType": "address",
          "name": "to",
          "type": "address"
        },
        {
          "indexed": false,
          "internalType": "uint256",
          "name": "amount",
          "type": "uint256"
        }
      ],
      "name": "FundsRecovered",
      "type": "event"
    },
    {
      "anonymous": false,
      "inputs": [
        {
          "indexed": true,
          "internalType": "address",
          "name": "from",
          "type": "address"
        },
        {
          "indexed": true,
          "internalType": "address",
          "name": "to",
          "type": "address"
        }
      ],
      "name": "OwnershipTransferRequested",
      "type": "event"
    },
    {
      "anonymous": false,
      "inputs": [
        {
          "indexed": true,
          "internalType": "address",
          "name": "from",
          "type": "address"
        },
        {
          "indexed": true,
          "internalType": "address",
          "name": "to",
          "type": "address"
        }
      ],
      "name": "OwnershipTransferred",
      "type": "event"
    },
    {
      "anonymous": false,
      "inputs": [
        {
          "indexed": false,
          "internalType": "bytes32",
          "name": "keyHash",
          "type": "bytes32"
        },
        {
          "indexed": true,
          "internalType": "address",
          "name": "oracle",
          "type": "address"
        }
      ],
      "name": "ProvingKeyDeregistered",
      "type": "event"
    },
    {
      "anonymous": false,
      "inputs": [
        {
          "indexed": false,
          "internalType": "bytes32",
          "name": "keyHash",
          "type": "bytes32"
        },
        {
          "indexed": true,
          "internalType": "address",
          "name": "oracle",
          "type": "address"
        }
      ],
      "name": "ProvingKeyRegistered",
      "type": "event"
    },
    {
      "anonymous": false,
      "inputs": [
        {
          "indexed": true,
          "internalType": "uint256",
          "name": "requestId",
          "type": "uint256"
        },
        {
          "indexed": false,
          "internalType": "uint256",
          "name": "outputSeed",
          "type": "uint256"
        },
        {
          "indexed": false,
          "internalType": "uint96",
          "name": "payment",
          "type": "uint96"
        },
        {
          "indexed": false,
          "internalType": "bool",
          "name": "success",
          "type": "bool"
        }
      ],
      "name": "RandomWordsFulfilled",
      "type": "event"
    },
    {
      "anonymous": false,
      "inputs": [
        {
          "indexed": true,
          "internalType": "bytes32",
          "name": "keyHash",
          "type": "bytes32"
        },
        {
          "indexed": false,
          "internalType": "uint256",
          "name": "requestId",
          "type": "uint256"
        },
        {
          "indexed": false,
          "internalType": "uint256",
          "name": "preSeed",
          "type": "uint256"
        },
        {
          "indexed": true,
          "internalType": "uint64",
          "name": "subId",
          "type": "uint64"
        },
        {
          "indexed": false,
          "internalType": "uint16",
          "name": "minimumRequestConfirmations",
          "type": "uint16"
        },
        {
          "indexed": false,
          "internalType": "uint32",
          "name": "callbackGasLimit",
          "type": "uint32"
        },
        {
          "indexed": false,
          "internalType": "uint32",
          "name": "numWords",
          "type": "uint32"
        },
        {
          "indexed": true,
          "internalType": "address",
          "name": "sender",
          "type": "address"
        }
      ],
      "name": "RandomWordsRequested",
      "type": "event"
    },
    {
      "anonymous": false,
      "inputs": [
        {
          "indexed": true,
          "internalType": "uint64",
          "name": "subId",
          "type": "uint64"
        },
        {
          "indexed": false,
          "internalType": "address",
          "name": "to",
          "type": "address"
        },
        {
          "indexed": false,
          "internalType": "uint256",
          "name": "amount",
          "type": "uint256"
        }
      ],
      "name": "SubscriptionCanceled",
      "type": "event"
    },
    {
      "anonymous": false,
      "inputs": [
        {
          "indexed": true,
          "internalType": "uint64",
          "name": "subId",
          "type": "uint64"
        },
        {
          "indexed": false,
          "internalType": "address",
          "name": "consumer",
          "type": "address"
        }
      ],
      "name": "SubscriptionConsumerAdded",
      "type": "event"
    },
    {
      "anonymous": false,
      "inputs": [
        {
          "indexed": true,
          "internalType": "uint64",
          "name": "subId",
          "type": "uint64"
        },
        {
          "indexed": false,
          "internalType": "address",
          "name": "consumer",
          "type": "address"
        }
      ],
      "name": "SubscriptionConsumerRemoved",
      "type": "event"
    },
    {
      "anonymous": false,
      "inputs": [
        {
          "indexed": true,
          "internalType": "uint64",
          "name": "subId",
          "type": "uint64"
        },
        {
          "indexed": false,
          "internalType": "address",
          "name": "owner",
          "type": "address"
        }
      ],
      "name": "SubscriptionCreated",
      "type": "event"
    },
    {
      "anonymous": false,
      "inputs": [
        {
          "indexed": true,
          "internalType": "uint64",
          "name": "subId",
          "type": "uint64"
        },
        {
          "indexed": false,
          "internalType": "uint256",
          "name": "oldBalance",
          "type": "uint256"
        },
        {
          "indexed": false,
          "internalType": "uint256",
          "name": "newBalance",
          "type": "uint256"
        }
      ],
      "name": "SubscriptionFunded",
      "type": "event"
    },
    {
      "anonymous": false,
      "inputs": [
        {
          "indexed": true,
          "internalType": "uint64",
          "name": "subId",
          "type": "uint64"
        },
        {
          "indexed": false,
          "internalType": "address",
          "name": "from",
          "type": "address"
        },
        {
          "indexed": false,
          "internalType": "address",
          "name": "to",
          "type": "address"
        }
      ],
      "name": "SubscriptionOwnerTransferRequested",
      "type": "event"
    },
    {
      "anonymous": false,
      "inputs": [
        {
          "indexed": true,
          "internalType": "uint64",
          "name": "subId",
          "type": "uint64"
        },
        {
          "indexed": false,
          "internalType": "address",
          "name": "from",
          "type": "address"
        },
        {
          "indexed": false,
          "internalType": "address",
          "name": "to",
          "type": "address"
        }
      ],
      "name": "SubscriptionOwnerTransferred",
      "type": "event"
    },
    {
      "inputs": [],
      "name": "BLOCKHASH_STORE",
      "outputs": [
        {
          "internalType": "contract BlockhashStoreInterface",
          "name": "",
          "type": "address"
        }
      ],
      "stateMutability": "view",
      "type": "function"
    },
    {
      "inputs": [],
      "name": "LINK",
      "outputs": [
        {
          "internalType": "contract LinkTokenInterface",
          "name": "",
          "type": "address"
        }
      ],
      "stateMutability": "view",
      "type": "function"
    },
    {
      "inputs": [],
      "name": "LINK_ETH_FEED",
      "outputs": [
        {
          "internalType": "contract AggregatorV3Interface",
          "name": "",
          "type": "address"
        }
      ],
      "stateMutability": "view",
      "type": "function"
    },
    {
      "inputs": [],
      "name": "MAX_CONSUMERS",
      "outputs": [
        {
          "internalType": "uint16",
          "name": "",
          "type": "uint16"
        }
      ],
      "stateMutability": "view",
      "type": "function"
    },
    {
      "inputs": [],
      "name": "MAX_NUM_WORDS",
      "outputs": [
        {
          "internalType": "uint32",
          "name": "",
          "type": "uint32"
        }
      ],
      "stateMutability": "view",
      "type": "function"
    },
    {
      "inputs": [],
      "name": "MAX_REQUEST_CONFIRMATIONS",
      "outputs": [
        {
          "internalType": "uint16",
          "name": "",
          "type": "uint16"
        }
      ],
      "stateMutability": "view",
      "type": "function"
    },
    {
      "inputs": [],
      "name": "acceptOwnership",
      "outputs": [],
      "stateMutability": "nonpayable",
      "type": "function"
    },
    {
      "inputs": [
        {
          "internalType": "uint64",
          "name": "subId",
          "type": "uint64"
        }
      ],
      "name": "acceptSubscriptionOwnerTransfer",
      "outputs": [],
      "stateMutability": "nonpayable",
      "type": "function"
    },
    {
      "inputs": [
        {
          "internalType": "uint64",
          "name": "subId",
          "type": "uint64"
        },
        {
          "internalType": "address",
          "name": "consumer",
          "type": "address"
        }
      ],
      "name": "addConsumer",
      "outputs": [],
      "stateMutability": "nonpayable",
      "type": "function"
    },
    {
      "inputs": [
        {
          "internalType": "uint64",
          "name": "subId",
          "type": "uint64"
        },
        {
          "internalType": "address",
          "name": "to",
          "type": "address"
        }
      ],
      "name": "cancelSubscription",
      "outputs": [],
      "stateMutability": "nonpayable",
      "type": "function"
    },
    {
      "inputs": [],
      "name": "createSubscription",
      "outputs": [
        {
          "internalType": "uint64",
          "name": "",
          "type": "uint64"
        }
      ],
      "stateMutability": "nonpayable",
      "type": "function"
    },
    {
      "inputs": [
        {
          "internalType": "uint256[2]",
          "name": "publicProvingKey",
          "type": "uint256[2]"
        }
      ],
      "name": "deregisterProvingKey",
      "outputs": [],
      "stateMutability": "nonpayable",
      "type": "function"
    },
    {
      "inputs": [
        {
          "components": [
            {
              "internalType": "uint256[2]",
              "name": "pk",
              "type": "uint256[2]"
            },
            {
              "internalType": "uint256[2]",
              "name": "gamma",
              "type": "uint256[2]"
            },
            {
              "internalType": "uint256",
              "name": "c",
              "type": "uint256"
            },
            {
              "internalType": "uint256",
              "name": "s",
              "type": "uint256"
            },
            {
              "internalType": "uint256",
              "name": "seed",
              "type": "uint256"
            },
            {
              "internalType": "address",
              "name": "uWitness",
              "type": "address"
            },
            {
              "internalType": "uint256[2]",
              "name": "cGammaWitness",
              "type": "uint256[2]"
            },
            {
              "internalType": "uint256[2]",
              "name": "sHashWitness",
              "type": "uint256[2]"
            },
            {
              "internalType": "uint256",
              "name": "zInv",
              "type": "uint256"
            }
          ],
          "internalType": "struct VRF.Proof",
          "name": "proof",
          "type": "tuple"
        },
        {
          "components": [
            {
              "internalType": "uint64",
              "name": "blockNum",
              "type": "uint64"
            },
            {
              "internalType": "uint64",
              "name": "subId",
              "type": "uint64"
            },
            {
              "internalType": "uint32",
              "name": "callbackGasLimit",
              "type": "uint32"
            },
            {
              "internalType": "uint32",
              "name": "numWords",
              "type": "uint32"
            },
            {
              "internalType": "address",
              "name": "sender",
              "type": "address"
            }
          ],
          "internalType": "struct VRFCoordinatorV2.RequestCommitment",
          "name": "rc",
          "type": "tuple"
        }
      ],
      "name": "fulfillRandomWords",
      "outputs": [
        {
          "internalType": "uint96",
          "name": "",
          "type": "uint96"
        }
      ],
      "stateMutability": "nonpayable",
      "type": "function"
    },
    {
      "inputs": [
        {
          "internalType": "uint256",
          "name": "requestId",
          "type": "uint256"
        }
      ],
      "name": "getCommitment",
      "outputs": [
        {
          "internalType": "bytes32",
          "name": "",
          "type": "bytes32"
        }
      ],
      "stateMutability": "view",
      "type": "function"
    },
    {
      "inputs": [],
      "name": "getConfig",
      "outputs": [
        {
          "internalType": "uint16",
          "name": "minimumRequestConfirmations",
          "type": "uint16"
        },
        {
          "internalType": "uint32",
          "name": "maxGasLimit",
          "type": "uint32"
        },
        {
          "internalType": "uint32",
          "name": "stalenessSeconds",
          "type": "uint32"
        },
        {
          "internalType": "uint32",
          "name": "gasAfterPaymentCalculation",
          "type": "uint32"
        }
      ],
      "stateMutability": "view",
      "type": "function"
    },
    {
      "inputs": [],
      "name": "getCurrentSubId",
      "outputs": [
        {
          "internalType": "uint64",
          "name": "",
          "type": "uint64"
        }
      ],
      "stateMutability": "view",
      "type": "function"
    },
    {
      "inputs": [],
      "name": "getFallbackWeiPerUnitLink",
      "outputs": [
        {
          "internalType": "int256",
          "name": "",
          "type": "int256"
        }
      ],
      "stateMutability": "view",
      "type": "function"
    },
    {
      "inputs": [],
      "name": "getFeeConfig",
      "outputs": [
        {
          "internalType": "uint32",
          "name": "fulfillmentFlatFeeLinkPPMTier1",
          "type": "uint32"
        },
        {
          "internalType": "uint32",
          "name": "fulfillmentFlatFeeLinkPPMTier2",
          "type": "uint32"
        },
        {
          "internalType": "uint32",
          "name": "fulfillmentFlatFeeLinkPPMTier3",
          "type": "uint32"
        },
        {
          "internalType": "uint32",
          "name": "fulfillmentFlatFeeLinkPPMTier4",
          "type": "uint32"
        },
        {
          "internalType": "uint32",
          "name": "fulfillmentFlatFeeLinkPPMTier5",
          "type": "uint32"
        },
        {
          "internalType": "uint24",
          "name": "reqsForTier2",
          "type": "uint24"
        },
        {
          "internalType": "uint24",
          "name": "reqsForTier3",
          "type": "uint24"
        },
        {
          "internalType": "uint24",
          "name": "reqsForTier4",
          "type": "uint24"
        },
        {
          "internalType": "uint24",
          "name": "reqsForTier5",
          "type": "uint24"
        }
      ],
      "stateMutability": "view",
      "type": "function"
    },
    {
      "inputs": [
        {
          "internalType": "uint64",
          "name": "reqCount",
          "type": "uint64"
        }
      ],
      "name": "getFeeTier",
      "outputs": [
        {
          "internalType": "uint32",
          "name": "",
          "type": "uint32"
        }
      ],
      "stateMutability": "view",
      "type": "function"
    },
    {
      "inputs": [],
      "name": "getRequestConfig",
      "outputs": [
        {
          "internalType": "uint16",
          "name": "",
          "type": "uint16"
        },
        {
          "internalType": "uint32",
          "name": "",
          "type": "uint32"
        },
        {
          "internalType": "bytes32[]",
          "name": "",
          "type": "bytes32[]"
        }
      ],
      "stateMutability": "view",
      "type": "function"
    },
    {
      "inputs": [
        {
          "internalType": "uint64",
          "name": "subId",
          "type": "uint64"
        }
      ],
      "name": "getSubscription",
      "outputs": [
        {
          "internalType": "uint96",
          "name": "balance",
          "type": "uint96"
        },
        {
          "internalType": "uint64",
          "name": "reqCount",
          "type": "uint64"
        },
        {
          "internalType": "address",
          "name": "owner",
          "type": "address"
        },
        {
          "internalType": "address[]",
          "name": "consumers",
          "type": "address[]"
        }
      ],
      "stateMutability": "view",
      "type": "function"
    },
    {
      "inputs": [],
      "name": "getTotalBalance",
      "outputs": [
        {
          "internalType": "uint256",
          "name": "",
          "type": "uint256"
        }
      ],
      "stateMutability": "view",
      "type": "function"
    },
    {
      "inputs": [
        {
          "internalType": "uint256[2]",
          "name": "publicKey",
          "type": "uint256[2]"
        }
      ],
      "name": "hashOfKey",
      "outputs": [
        {
          "internalType": "bytes32",
          "name": "",
          "type": "bytes32"
        }
      ],
      "stateMutability": "pure",
      "type": "function"
    },
    {
      "inputs": [
        {
          "internalType": "address",
          "name": "",
          "type": "address"
        },
        {
          "internalType": "uint256",
          "name": "amount",
          "type": "uint256"
        },
        {
          "internalType": "bytes",
          "name": "data",
          "type": "bytes"
        }
      ],
      "name": "onTokenTransfer",
      "outputs": [],
      "stateMutability": "nonpayable",
      "type": "function"
    },
    {
      "inputs": [
        {
          "internalType": "address",
          "name": "recipient",
          "type": "address"
        },
        {
          "internalType": "uint96",
          "name": "amount",
          "type": "uint96"
        }
      ],
      "name": "oracleWithdraw",
      "outputs": [],
      "stateMutability": "nonpayable",
      "type": "function"
    },
    {
      "inputs": [],
      "name": "owner",
      "outputs": [
        {
          "internalType": "address",
          "name": "",
          "type": "address"
        }
      ],
      "stateMutability": "view",
      "type": "function"
    },
    {
      "inputs": [
        {
          "internalType": "uint64",
          "name": "subId",
          "type": "uint64"
        }
      ],
      "name": "ownerCancelSubscription",
      "outputs": [],
      "stateMutability": "nonpayable",
      "type": "function"
    },
    {
      "inputs": [
        {
          "internalType": "uint64",
          "name": "subId",
          "type": "uint64"
        }
      ],
      "name": "pendingRequestExists",
      "outputs": [
        {
          "internalType": "bool",
          "name": "",
          "type": "bool"
        }
      ],
      "stateMutability": "view",
      "type": "function"
    },
    {
      "inputs": [
        {
          "internalType": "address",
          "name": "to",
          "type": "address"
        }
      ],
      "name": "recoverFunds",
      "outputs": [],
      "stateMutability": "nonpayable",
      "type": "function"
    },
    {
      "inputs": [
        {
          "internalType": "address",
          "name": "oracle",
          "type": "address"
        },
        {
          "internalType": "uint256[2]",
          "name": "publicProvingKey",
          "type": "uint256[2]"
        }
      ],
      "name": "registerProvingKey",
      "outputs": [],
      "stateMutability": "nonpayable",
      "type": "function"
    },
    {
      "inputs": [
        {
          "internalType": "uint64",
          "name": "subId",
          "type": "uint64"
        },
        {
          "internalType": "address",
          "name": "consumer",
          "type": "address"
        }
      ],
      "name": "removeConsumer",
      "outputs": [],
      "stateMutability": "nonpayable",
      "type": "function"
    },
    {
      "inputs": [
        {
          "internalType": "bytes32",
          "name": "keyHash",
          "type": "bytes32"
        },
        {
          "internalType": "uint64",
          "name": "subId",
          "type": "uint64"
        },
        {
          "internalType": "uint16",
          "name": "requestConfirmations",
          "type": "uint16"
        },
        {
          "internalType": "uint32",
          "name": "callbackGasLimit",
          "type": "uint32"
        },
        {
          "internalType": "uint32",
          "name": "numWords",
          "type": "uint32"
        }
      ],
      "name": "requestRandomWords",
      "outputs": [
        {
          "internalType": "uint256",
          "name": "",
          "type": "uint256"
        }
      ],
      "stateMutability": "nonpayable",
      "type": "function"
    },
    {
      "inputs": [
        {
          "internalType": "uint64",
          "name": "subId",
          "type": "uint64"
        },
        {
          "internalType": "address",
          "name": "newOwner",
          "type": "address"
        }
      ],
      "name": "requestSubscriptionOwnerTransfer",
      "outputs": [],
      "stateMutability": "nonpayable",
      "type": "function"
    },
    {
      "inputs": [
        {
          "internalType": "uint16",
          "name": "minimumRequestConfirmations",
          "type": "uint16"
        },
        {
          "internalType": "uint32",
          "name": "maxGasLimit",
          "type": "uint32"
        },
        {
          "internalType": "uint32",
          "name": "stalenessSeconds",
          "type": "uint32"
        },
        {
          "internalType": "uint32",
          "name": "gasAfterPaymentCalculation",
          "type": "uint32"
        },
        {
          "internalType": "int256",
          "name": "fallbackWeiPerUnitLink",
          "type": "int256"
        },
        {
          "components": [
            {
              "internalType": "uint32",
              "name": "fulfillmentFlatFeeLinkPPMTier1",
              "type": "uint32"
            },
            {
              "internalType": "uint32",
              "name": "fulfillmentFlatFeeLinkPPMTier2",
              "type": "uint32"
            },
            {
              "internalType": "uint32",
              "name": "fulfillmentFlatFeeLinkPPMTier3",
              "type": "uint32"
            },
            {
              "internalType": "uint32",
              "name": "fulfillmentFlatFeeLinkPPMTier4",
              "type": "uint32"
            },
            {
              "internalType": "uint32",
              "name": "fulfillmentFlatFeeLinkPPMTier5",
              "type": "uint32"
            },
            {
              "internalType": "uint24",
              "name": "reqsForTier2",
              "type": "uint24"
            },
            {
              "internalType": "uint24",
              "name": "reqsForTier3",
              "type": "uint24"
            },
            {
              "internalType": "uint24",
              "name": "reqsForTier4",
              "type": "uint24"
            },
            {
              "internalType": "uint24",
              "name": "reqsForTier5",
              "type": "uint24"
            }
          ],
          "internalType": "struct VRFCoordinatorV2.FeeConfig",
          "name": "feeConfig",
          "type": "tuple"
        }
      ],
      "name": "setConfig",
      "outputs": [],
      "stateMutability": "nonpayable",
      "type": "function"
    },
    {
      "inputs": [
        {
          "internalType": "address",
          "name": "to",
          "type": "address"
        }
      ],
      "name": "transferOwnership",
      "outputs": [],
      "stateMutability": "nonpayable",
      "type": "function"
    },
    {
      "inputs": [],
      "name": "typeAndVersion",
      "outputs": [
        {
          "internalType": "string",
          "name": "",
          "type": "string"
        }
      ],
      "stateMutability": "pure",
      "type": "function"
    }
  ],
  "bytecode": "0x60e06040523480156200001157600080fd5b506040516200920b3803806200920b83398181016040528101906200003791906200032c565b338060008073ffffffffffffffffffffffffffffffffffffffff168273ffffffffffffffffffffffffffffffffffffffff161415620000ad576040517f08c379a0000000000000000000000000000000000000000000000000000000008152600401620000a490620003d6565b60405180910390fd5b816000806101000a81548173ffffffffffffffffffffffffffffffffffffffff021916908373ffffffffffffffffffffffffffffffffffffffff160217905550600073ffffffffffffffffffffffffffffffffffffffff168173ffffffffffffffffffffffffffffffffffffffff161462000134576200013381620001e560201b60201c565b5b5050508273ffffffffffffffffffffffffffffffffffffffff1660808173ffffffffffffffffffffffffffffffffffffffff1660601b815250508073ffffffffffffffffffffffffffffffffffffffff1660a08173ffffffffffffffffffffffffffffffffffffffff1660601b815250508173ffffffffffffffffffffffffffffffffffffffff1660c08173ffffffffffffffffffffffffffffffffffffffff1660601b81525050505050620004d0565b3373ffffffffffffffffffffffffffffffffffffffff168173ffffffffffffffffffffffffffffffffffffffff16141562000257576040517f08c379a00000000000000000000000000000000000000000000000000000000081526004016200024e90620003f8565b60405180910390fd5b80600160006101000a81548173ffffffffffffffffffffffffffffffffffffffff021916908373ffffffffffffffffffffffffffffffffffffffff1602179055508073ffffffffffffffffffffffffffffffffffffffff1660008054906101000a900473ffffffffffffffffffffffffffffffffffffffff1673ffffffffffffffffffffffffffffffffffffffff167fed8889f560326eb138920d842192f0eb3dd22b4f139c87a2c57538e05bae127860405160405180910390a350565b6000815190506200032681620004b6565b92915050565b6000806000606084860312156200034857620003476200045f565b5b6000620003588682870162000315565b93505060206200036b8682870162000315565b92505060406200037e8682870162000315565b9150509250925092565b6000620003976018836200041a565b9150620003a48262000464565b602082019050919050565b6000620003be6017836200041a565b9150620003cb826200048d565b602082019050919050565b60006020820190508181036000830152620003f18162000388565b9050919050565b600060208201905081810360008301526200041381620003af565b9050919050565b600082825260208201905092915050565b600062000438826200043f565b9050919050565b600073ffffffffffffffffffffffffffffffffffffffff82169050919050565b600080fd5b7f43616e6e6f7420736574206f776e657220746f207a65726f0000000000000000600082015250565b7f43616e6e6f74207472616e7366657220746f2073656c66000000000000000000600082015250565b620004c1816200042b565b8114620004cd57600080fd5b50565b60805160601c60a05160601c60c05160601c618cd16200053a600039600081816119aa0152614b720152600081816132e7015261511b015260008181610dd4015281816118c301528181612fdf01528181613d3601528181613e6d015261473a0152618cd16000f3fe608060405234801561001057600080fd5b506004361061021b5760003560e01c80636f64f03f11610125578063ad178361116100ad578063d2f9f9a71161007c578063d2f9f9a714610604578063d7ae1d3014610634578063e72f6e3014610650578063e82ad7d41461066c578063f2fde38b1461069c5761021b565b8063ad17836114610565578063af198b9714610583578063c3f909d4146105b3578063caf70c4a146105d45761021b565b80638da5cb5b116100f45780638da5cb5b146104be5780639f87fad7146104dc578063a21a23e4146104f8578063a47c769614610516578063a4c0ed36146105495761021b565b80636f64f03f146104605780637341c10c1461047c57806379ba50971461049857806382359740146104a25761021b565b8063356dac71116101a85780635fbbc0d2116101775780635fbbc0d2146103b257806364d51a2a146103d857806366316d8d146103f6578063689c45171461041257806369bcdb7d146104305761021b565b8063356dac711461032a57806340d6bb82146103485780634cb48a54146103665780635d3b1d30146103825761021b565b806308821d58116101ef57806308821d581461029657806312b58349146102b257806315c48b84146102d0578063181f5a77146102ee5780631b6b6d231461030c5761021b565b80620122911461022057806302bcc5b61461024057806304c357cb1461025c57806306bfa63714610278575b600080fd5b6102286106b8565b60405161023793929190617bf0565b60405180910390f35b61025a60048036038101906102559190616df6565b610746565b005b61027660048036038101906102719190616e23565b610856565b005b610280610af8565b60405161028d9190617faa565b60405180910390f35b6102b060048036038101906102ab9190616b9d565b610b16565b005b6102ba610d60565b6040516102c79190617cd5565b60405180910390f35b6102d8610d90565b6040516102e59190617b9e565b60405180910390f35b6102f6610d95565b604051610303919061793c565b60405180910390f35b610314610dd2565b6040516103219190617906565b60405180910390f35b610332610df6565b60405161033f9190617921565b60405180910390f35b610350610e00565b60405161035d9190617ebe565b60405180910390f35b610380600480360381019061037b9190616d0e565b610e06565b005b61039c60048036038101906103979190616c51565b611152565b6040516103a99190617cd5565b60405180910390f35b6103ba6115ed565b6040516103cf99989796959493929190617f02565b60405180910390f35b6103e06116da565b6040516103ed9190617b9e565b60405180910390f35b610410600480360381019061040b9190616b5d565b6116df565b005b61041a6119a8565b60405161042791906178eb565b60405180910390f35b61044a60048036038101906104459190616d9c565b6119cc565b6040516104579190617802565b60405180910390f35b61047a60048036038101906104759190616aa9565b6119e9565b005b61049660048036038101906104919190616e23565b611ba7565b005b6104a0611f73565b005b6104bc60048036038101906104b79190616df6565b612108565b005b6104c6612471565b6040516104d39190617736565b60405180910390f35b6104f660048036038101906104f19190616e23565b61249a565b005b610500612a26565b60405161050d9190617faa565b60405180910390f35b610530600480360381019061052b9190616df6565b612d4d565b6040516105409493929190618009565b60405180910390f35b610563600480360381019061055e9190616ae9565b612f93565b005b61056d6132e5565b60405161057a91906178d0565b60405180910390f35b61059d60048036038101906105989190616ccc565b613309565b6040516105aa9190617fee565b60405180910390f35b6105bb61384e565b6040516105cb9493929190617c2e565b60405180910390f35b6105ee60048036038101906105e99190616bca565b6138b8565b6040516105fb9190617802565b60405180910390f35b61061e60048036038101906106199190616df6565b6138e8565b60405161062b9190617ebe565b60405180910390f35b61064e60048036038101906106499190616e23565b613b69565b005b61066a60048036038101906106659190616a7c565b613d2a565b005b61068660048036038101906106819190616df6565b613f59565b60405161069391906177e7565b60405180910390f35b6106b660048036038101906106b19190616a7c565b61422b565b005b6000806060600b60000160009054906101000a900461ffff16600b60000160029054906101000a900463ffffffff1660078080548060200260200160405190810160405280929190818152602001828054801561073457602002820191906000526020600020905b815481526020019060010190808311610720575b50505050509050925092509250909192565b61074e61423f565b600073ffffffffffffffffffffffffffffffffffffffff16600360008367ffffffffffffffff1667ffffffffffffffff16815260200190815260200160002060000160009054906101000a900473ffffffffffffffffffffffffffffffffffffffff1673ffffffffffffffffffffffffffffffffffffffff1614156107ff576040517f1f6a65b600000000000000000000000000000000000000000000000000000000815260040160405180910390fd5b61085381600360008467ffffffffffffffff1667ffffffffffffffff16815260200190815260200160002060000160009054906101000a900473ffffffffffffffffffffffffffffffffffffffff166142cf565b50565b816000600360008367ffffffffffffffff1667ffffffffffffffff16815260200190815260200160002060000160009054906101000a900473ffffffffffffffffffffffffffffffffffffffff169050600073ffffffffffffffffffffffffffffffffffffffff168173ffffffffffffffffffffffffffffffffffffffff16141561090d576040517f1f6a65b600000000000000000000000000000000000000000000000000000000815260040160405180910390fd5b8073ffffffffffffffffffffffffffffffffffffffff163373ffffffffffffffffffffffffffffffffffffffff161461097d57806040517fd8a3fb520000000000000000000000000000000000000000000000000000000081526004016109749190617736565b60405180910390fd5b600b60000160069054906101000a900460ff16156109c7576040517fed3ba6a600000000000000000000000000000000000000000000000000000000815260040160405180910390fd5b8273ffffffffffffffffffffffffffffffffffffffff16600360008667ffffffffffffffff1667ffffffffffffffff16815260200190815260200160002060010160009054906101000a900473ffffffffffffffffffffffffffffffffffffffff1673ffffffffffffffffffffffffffffffffffffffff1614610af25782600360008667ffffffffffffffff1667ffffffffffffffff16815260200190815260200160002060010160006101000a81548173ffffffffffffffffffffffffffffffffffffffff021916908373ffffffffffffffffffffffffffffffffffffffff1602179055508367ffffffffffffffff167f69436ea6df009049404f564eff6622cd00522b0bd6a89efd9e52a355c4a879be3385604051610ae9929190617751565b60405180910390a25b50505050565b6000600560009054906101000a900467ffffffffffffffff16905090565b610b1e61423f565b6000610b60826002806020026040519081016040528092919082600260200280828437600081840152601f19601f8201169050808301925050505050506138b8565b905060006006600083815260200190815260200160002060009054906101000a900473ffffffffffffffffffffffffffffffffffffffff169050600073ffffffffffffffffffffffffffffffffffffffff168173ffffffffffffffffffffffffffffffffffffffff161415610c0c57816040517f77f5b84c000000000000000000000000000000000000000000000000000000008152600401610c039190617802565b60405180910390fd5b6006600083815260200190815260200160002060006101000a81549073ffffffffffffffffffffffffffffffffffffffff021916905560005b600780549050811015610d0c578260078281548110610c6757610c666187ad565b5b90600052602060002001541415610cf957600060076001600780549050610c8e9190618300565b81548110610c9f57610c9e6187ad565b5b906000526020600020015490508060078381548110610cc157610cc06187ad565b5b90600052602060002001819055506007805480610ce157610ce061877e565b5b60019003818190600052602060002001600090559055505b8080610d049061863d565b915050610c45565b508073ffffffffffffffffffffffffffffffffffffffff167f72be339577868f868798bac2c93e52d6f034fef4689a9848996c14ebb7416c0d83604051610d539190617802565b60405180910390a2505050565b6000600560089054906101000a90046bffffffffffffffffffffffff166bffffffffffffffffffffffff16905090565b60c881565b60606040518060400160405280601681526020017f565246436f6f7264696e61746f72563220312e302e3000000000000000000000815250905090565b7f000000000000000000000000000000000000000000000000000000000000000081565b6000600a54905090565b6101f481565b610e0e61423f565b60c861ffff168661ffff161115610e6157858660c86040517fa7386976000000000000000000000000000000000000000000000000000000008152600401610e5893929190617bb9565b60405180910390fd5b60008213610ea657816040517f43d4cf66000000000000000000000000000000000000000000000000000000008152600401610e9d9190617921565b60405180910390fd5b6040518060a001604052808761ffff1681526020018663ffffffff1681526020016000151581526020018563ffffffff1681526020018463ffffffff16815250600b60008201518160000160006101000a81548161ffff021916908361ffff16021790555060208201518160000160026101000a81548163ffffffff021916908363ffffffff16021790555060408201518160000160066101000a81548160ff02191690831515021790555060608201518160000160076101000a81548163ffffffff021916908363ffffffff160217905550608082015181600001600b6101000a81548163ffffffff021916908363ffffffff16021790555090505080600c60008201518160000160006101000a81548163ffffffff021916908363ffffffff16021790555060208201518160000160046101000a81548163ffffffff021916908363ffffffff16021790555060408201518160000160086101000a81548163ffffffff021916908363ffffffff160217905550606082015181600001600c6101000a81548163ffffffff021916908363ffffffff16021790555060808201518160000160106101000a81548163ffffffff021916908363ffffffff16021790555060a08201518160000160146101000a81548162ffffff021916908362ffffff16021790555060c08201518160000160176101000a81548162ffffff021916908362ffffff16021790555060e082015181600001601a6101000a81548162ffffff021916908362ffffff16021790555061010082015181600001601d6101000a81548162ffffff021916908362ffffff16021790555090505081600a819055507fc21e3bd2e0b339d2848f0dd956947a88966c242c0c0c582a33137a5c1ceb5cb28686868686600c60405161114296959493929190617c73565b60405180910390a1505050505050565b6000600b60000160069054906101000a900460ff161561119e576040517fed3ba6a600000000000000000000000000000000000000000000000000000000815260040160405180910390fd5b600073ffffffffffffffffffffffffffffffffffffffff16600360008767ffffffffffffffff1667ffffffffffffffff16815260200190815260200160002060000160009054906101000a900473ffffffffffffffffffffffffffffffffffffffff1673ffffffffffffffffffffffffffffffffffffffff16141561124f576040517f1f6a65b600000000000000000000000000000000000000000000000000000000815260040160405180910390fd5b6000600260003373ffffffffffffffffffffffffffffffffffffffff1673ffffffffffffffffffffffffffffffffffffffff16815260200190815260200160002060008767ffffffffffffffff1667ffffffffffffffff16815260200190815260200160002060009054906101000a900467ffffffffffffffff16905060008167ffffffffffffffff16141561131e5785336040517ff0019fe6000000000000000000000000000000000000000000000000000000008152600401611315929190617fc5565b60405180910390fd5b600b60000160009054906101000a900461ffff1661ffff168561ffff16108061134f575060c861ffff168561ffff16115b156113a95784600b60000160009054906101000a900461ffff1660c86040517fa73869760000000000000000000000000000000000000000000000000000000081526004016113a093929190617bb9565b60405180910390fd5b600b60000160029054906101000a900463ffffffff1663ffffffff168463ffffffff1611156114265783600b60000160029054906101000a900463ffffffff166040517ff5d7e01e00000000000000000000000000000000000000000000000000000000815260040161141d929190617ed9565b60405180910390fd5b6101f463ffffffff168363ffffffff16111561147d57826101f46040517f47386bec000000000000000000000000000000000000000000000000000000008152600401611474929190617ed9565b60405180910390fd5b600060018261148c91906181f5565b905060008061149d8a338b86614874565b91509150816114aa6148e6565b8a8989336040516020016114c396959493929190617dc5565b6040516020818303038152906040528051906020012060096000848152602001908152602001600020819055503373ffffffffffffffffffffffffffffffffffffffff168967ffffffffffffffff168b7f63373d1c4696214b898952999c9aaec57dac1ee2723cec59bea6888f489a977285858d8d8d60405161154a959493929190617d72565b60405180910390a482600260003373ffffffffffffffffffffffffffffffffffffffff1673ffffffffffffffffffffffffffffffffffffffff16815260200190815260200160002060008b67ffffffffffffffff1667ffffffffffffffff16815260200190815260200160002060006101000a81548167ffffffffffffffff021916908367ffffffffffffffff1602179055508194505050505095945050505050565b6000806000806000806000806000600c60000160009054906101000a900463ffffffff16600c60000160049054906101000a900463ffffffff16600c60000160089054906101000a900463ffffffff16600c600001600c9054906101000a900463ffffffff16600c60000160109054906101000a900463ffffffff16600c60000160149054906101000a900462ffffff16600c60000160179054906101000a900462ffffff16600c600001601a9054906101000a900462ffffff16600c600001601d9054906101000a900462ffffff16985098509850985098509850985098509850909192939495969798565b606481565b600b60000160069054906101000a900460ff1615611729576040517fed3ba6a600000000000000000000000000000000000000000000000000000000815260040160405180910390fd5b806bffffffffffffffffffffffff16600860003373ffffffffffffffffffffffffffffffffffffffff1673ffffffffffffffffffffffffffffffffffffffff16815260200190815260200160002060009054906101000a90046bffffffffffffffffffffffff166bffffffffffffffffffffffff1610156117d6576040517ff4d678b800000000000000000000000000000000000000000000000000000000815260040160405180910390fd5b80600860003373ffffffffffffffffffffffffffffffffffffffff1673ffffffffffffffffffffffffffffffffffffffff16815260200190815260200160002060008282829054906101000a90046bffffffffffffffffffffffff1661183c9190618334565b92506101000a8154816bffffffffffffffffffffffff02191690836bffffffffffffffffffffffff16021790555080600560088282829054906101000a90046bffffffffffffffffffffffff166118939190618334565b92506101000a8154816bffffffffffffffffffffffff02191690836bffffffffffffffffffffffff1602179055507f000000000000000000000000000000000000000000000000000000000000000073ffffffffffffffffffffffffffffffffffffffff1663a9059cbb83836040518363ffffffff1660e01b815260040161191c9291906177a3565b602060405180830381600087803b15801561193657600080fd5b505af115801561194a573d6000803e3d6000fd5b505050506040513d601f19601f8201168201806040525081019061196e9190616bf7565b6119a4576040517ff4d678b800000000000000000000000000000000000000000000000000000000815260040160405180910390fd5b5050565b7f000000000000000000000000000000000000000000000000000000000000000081565b600060096000838152602001908152602001600020549050919050565b6119f161423f565b6000611a33826002806020026040519081016040528092919082600260200280828437600081840152601f19601f8201169050808301925050505050506138b8565b9050600073ffffffffffffffffffffffffffffffffffffffff166006600083815260200190815260200160002060009054906101000a900473ffffffffffffffffffffffffffffffffffffffff1673ffffffffffffffffffffffffffffffffffffffff1614611ad957806040517f4a0b8fa7000000000000000000000000000000000000000000000000000000008152600401611ad09190617802565b60405180910390fd5b826006600083815260200190815260200160002060006101000a81548173ffffffffffffffffffffffffffffffffffffffff021916908373ffffffffffffffffffffffffffffffffffffffff16021790555060078190806001815401808255809150506001900390600052602060002001600090919091909150558273ffffffffffffffffffffffffffffffffffffffff167fe729ae16526293f74ade739043022254f1489f616295a25bf72dfb4511ed73b882604051611b9a9190617802565b60405180910390a2505050565b816000600360008367ffffffffffffffff1667ffffffffffffffff16815260200190815260200160002060000160009054906101000a900473ffffffffffffffffffffffffffffffffffffffff169050600073ffffffffffffffffffffffffffffffffffffffff168173ffffffffffffffffffffffffffffffffffffffff161415611c5e576040517f1f6a65b600000000000000000000000000000000000000000000000000000000815260040160405180910390fd5b8073ffffffffffffffffffffffffffffffffffffffff163373ffffffffffffffffffffffffffffffffffffffff1614611cce57806040517fd8a3fb52000000000000000000000000000000000000000000000000000000008152600401611cc59190617736565b60405180910390fd5b600b60000160069054906101000a900460ff1615611d18576040517fed3ba6a600000000000000000000000000000000000000000000000000000000815260040160405180910390fd5b606461ffff16600360008667ffffffffffffffff1667ffffffffffffffff168152602001908152602001600020600201805490501415611d84576040517f05a48e0f00000000000000000000000000000000000000000000000000000000815260040160405180910390fd5b6000600260008573ffffffffffffffffffffffffffffffffffffffff1673ffffffffffffffffffffffffffffffffffffffff16815260200190815260200160002060008667ffffffffffffffff1667ffffffffffffffff16815260200190815260200160002060009054906101000a900467ffffffffffffffff1667ffffffffffffffff1614611e1357611f6d565b6001600260008573ffffffffffffffffffffffffffffffffffffffff1673ffffffffffffffffffffffffffffffffffffffff16815260200190815260200160002060008667ffffffffffffffff1667ffffffffffffffff16815260200190815260200160002060006101000a81548167ffffffffffffffff021916908367ffffffffffffffff160217905550600360008567ffffffffffffffff1667ffffffffffffffff168152602001908152602001600020600201839080600181540180825580915050600190039060005260206000200160009091909190916101000a81548173ffffffffffffffffffffffffffffffffffffffff021916908373ffffffffffffffffffffffffffffffffffffffff1602179055508367ffffffffffffffff167f43dc749a04ac8fb825cbd514f7c0e13f13bc6f2ee66043b76629d51776cff8e084604051611f649190617736565b60405180910390a25b50505050565b600160009054906101000a900473ffffffffffffffffffffffffffffffffffffffff1673ffffffffffffffffffffffffffffffffffffffff163373ffffffffffffffffffffffffffffffffffffffff1614612003576040517f08c379a0000000000000000000000000000000000000000000000000000000008152600401611ffa9061795e565b60405180910390fd5b60008060009054906101000a900473ffffffffffffffffffffffffffffffffffffffff169050336000806101000a81548173ffffffffffffffffffffffffffffffffffffffff021916908373ffffffffffffffffffffffffffffffffffffffff1602179055506000600160006101000a81548173ffffffffffffffffffffffffffffffffffffffff021916908373ffffffffffffffffffffffffffffffffffffffff1602179055503373ffffffffffffffffffffffffffffffffffffffff168173ffffffffffffffffffffffffffffffffffffffff167f8be0079c531659141344cd1fd0a4f28419497f9722a3daafe3b4186f6b6457e060405160405180910390a350565b600b60000160069054906101000a900460ff1615612152576040517fed3ba6a600000000000000000000000000000000000000000000000000000000815260040160405180910390fd5b600073ffffffffffffffffffffffffffffffffffffffff16600360008367ffffffffffffffff1667ffffffffffffffff16815260200190815260200160002060000160009054906101000a900473ffffffffffffffffffffffffffffffffffffffff1673ffffffffffffffffffffffffffffffffffffffff161415612203576040517f1f6a65b600000000000000000000000000000000000000000000000000000000815260040160405180910390fd5b3373ffffffffffffffffffffffffffffffffffffffff16600360008367ffffffffffffffff1667ffffffffffffffff16815260200190815260200160002060010160009054906101000a900473ffffffffffffffffffffffffffffffffffffffff1673ffffffffffffffffffffffffffffffffffffffff161461230757600360008267ffffffffffffffff1667ffffffffffffffff16815260200190815260200160002060010160009054906101000a900473ffffffffffffffffffffffffffffffffffffffff166040517fd084e9750000000000000000000000000000000000000000000000000000000081526004016122fe9190617736565b60405180910390fd5b6000600360008367ffffffffffffffff1667ffffffffffffffff16815260200190815260200160002060000160009054906101000a900473ffffffffffffffffffffffffffffffffffffffff16905033600360008467ffffffffffffffff1667ffffffffffffffff16815260200190815260200160002060000160006101000a81548173ffffffffffffffffffffffffffffffffffffffff021916908373ffffffffffffffffffffffffffffffffffffffff1602179055506000600360008467ffffffffffffffff1667ffffffffffffffff16815260200190815260200160002060010160006101000a81548173ffffffffffffffffffffffffffffffffffffffff021916908373ffffffffffffffffffffffffffffffffffffffff1602179055508167ffffffffffffffff167f6f1dc65165ffffedfd8e507b4a0f1fcfdada045ed11f6c26ba27cedfe87802f08233604051612465929190617751565b60405180910390a25050565b60008060009054906101000a900473ffffffffffffffffffffffffffffffffffffffff16905090565b816000600360008367ffffffffffffffff1667ffffffffffffffff16815260200190815260200160002060000160009054906101000a900473ffffffffffffffffffffffffffffffffffffffff169050600073ffffffffffffffffffffffffffffffffffffffff168173ffffffffffffffffffffffffffffffffffffffff161415612551576040517f1f6a65b600000000000000000000000000000000000000000000000000000000815260040160405180910390fd5b8073ffffffffffffffffffffffffffffffffffffffff163373ffffffffffffffffffffffffffffffffffffffff16146125c157806040517fd8a3fb520000000000000000000000000000000000000000000000000000000081526004016125b89190617736565b60405180910390fd5b600b60000160069054906101000a900460ff161561260b576040517fed3ba6a600000000000000000000000000000000000000000000000000000000815260040160405180910390fd5b61261484613f59565b1561264b576040517fb42f66e800000000000000000000000000000000000000000000000000000000815260040160405180910390fd5b6000600260008573ffffffffffffffffffffffffffffffffffffffff1673ffffffffffffffffffffffffffffffffffffffff16815260200190815260200160002060008667ffffffffffffffff1667ffffffffffffffff16815260200190815260200160002060009054906101000a900467ffffffffffffffff1667ffffffffffffffff1614156127155783836040517ff0019fe600000000000000000000000000000000000000000000000000000000815260040161270c929190617fc5565b60405180910390fd5b6000600360008667ffffffffffffffff1667ffffffffffffffff1681526020019081526020016000206002018054806020026020016040519081016040528092919081815260200182805480156127c157602002820191906000526020600020905b8160009054906101000a900473ffffffffffffffffffffffffffffffffffffffff1673ffffffffffffffffffffffffffffffffffffffff1681526020019060010190808311612777575b505050505090506000600182516127d89190618300565b905060005b8251811015612960578573ffffffffffffffffffffffffffffffffffffffff168382815181106128105761280f6187ad565b5b602002602001015173ffffffffffffffffffffffffffffffffffffffff16141561294d576000838381518110612849576128486187ad565b5b6020026020010151905080600360008a67ffffffffffffffff1667ffffffffffffffff16815260200190815260200160002060020183815481106128905761288f6187ad565b5b9060005260206000200160006101000a81548173ffffffffffffffffffffffffffffffffffffffff021916908373ffffffffffffffffffffffffffffffffffffffff160217905550600360008967ffffffffffffffff1667ffffffffffffffff1681526020019081526020016000206002018054806129125761291161877e565b5b6001900381819060005260206000200160006101000a81549073ffffffffffffffffffffffffffffffffffffffff0219169055905550612960565b80806129589061863d565b9150506127dd565b50600260008673ffffffffffffffffffffffffffffffffffffffff1673ffffffffffffffffffffffffffffffffffffffff16815260200190815260200160002060008767ffffffffffffffff1667ffffffffffffffff16815260200190815260200160002060006101000a81549067ffffffffffffffff02191690558567ffffffffffffffff167f182bff9831466789164ca77075fffd84916d35a8180ba73c27e45634549b445b86604051612a169190617736565b60405180910390a2505050505050565b6000600b60000160069054906101000a900460ff1615612a72576040517fed3ba6a600000000000000000000000000000000000000000000000000000000815260040160405180910390fd5b6005600081819054906101000a900467ffffffffffffffff1680929190612a9890618686565b91906101000a81548167ffffffffffffffff021916908367ffffffffffffffff160217905550506000600560009054906101000a900467ffffffffffffffff16905060008067ffffffffffffffff811115612af657612af56187dc565b5b604051908082528060200260200182016040528015612b245781602001602082028036833780820191505090505b509050604051806040016040528060006bffffffffffffffffffffffff168152602001600067ffffffffffffffff16815250600460008467ffffffffffffffff1667ffffffffffffffff16815260200190815260200160002060008201518160000160006101000a8154816bffffffffffffffffffffffff02191690836bffffffffffffffffffffffff160217905550602082015181600001600c6101000a81548167ffffffffffffffff021916908367ffffffffffffffff16021790555090505060405180606001604052803373ffffffffffffffffffffffffffffffffffffffff168152602001600073ffffffffffffffffffffffffffffffffffffffff16815260200182815250600360008467ffffffffffffffff1667ffffffffffffffff16815260200190815260200160002060008201518160000160006101000a81548173ffffffffffffffffffffffffffffffffffffffff021916908373ffffffffffffffffffffffffffffffffffffffff16021790555060208201518160010160006101000a81548173ffffffffffffffffffffffffffffffffffffffff021916908373ffffffffffffffffffffffffffffffffffffffff1602179055506040820151816002019080519060200190612cff9291906164d0565b509050508167ffffffffffffffff167f464722b4166576d3dcbba877b999bc35cf911f4eaf434b7eba68fa113951d0bf33604051612d3d9190617736565b60405180910390a2819250505090565b60008060006060600073ffffffffffffffffffffffffffffffffffffffff16600360008767ffffffffffffffff1667ffffffffffffffff16815260200190815260200160002060000160009054906101000a900473ffffffffffffffffffffffffffffffffffffffff1673ffffffffffffffffffffffffffffffffffffffff161415612e05576040517f1f6a65b600000000000000000000000000000000000000000000000000000000815260040160405180910390fd5b600460008667ffffffffffffffff1667ffffffffffffffff16815260200190815260200160002060000160009054906101000a90046bffffffffffffffffffffffff16600460008767ffffffffffffffff1667ffffffffffffffff168152602001908152602001600020600001600c9054906101000a900467ffffffffffffffff16600360008867ffffffffffffffff1667ffffffffffffffff16815260200190815260200160002060000160009054906101000a900473ffffffffffffffffffffffffffffffffffffffff16600360008967ffffffffffffffff1667ffffffffffffffff16815260200190815260200160002060020180805480602002602001604051908101604052809291908181526020018280548015612f7d57602002820191906000526020600020905b8160009054906101000a900473ffffffffffffffffffffffffffffffffffffffff1673ffffffffffffffffffffffffffffffffffffffff1681526020019060010190808311612f33575b5050505050905093509350935093509193509193565b600b60000160069054906101000a900460ff1615612fdd576040517fed3ba6a600000000000000000000000000000000000000000000000000000000815260040160405180910390fd5b7f000000000000000000000000000000000000000000000000000000000000000073ffffffffffffffffffffffffffffffffffffffff163373ffffffffffffffffffffffffffffffffffffffff1614613062576040517f44b0e3c300000000000000000000000000000000000000000000000000000000815260040160405180910390fd5b6020828290501461309f576040517f8129bbcd00000000000000000000000000000000000000000000000000000000815260040160405180910390fd5b600082828101906130b09190616df6565b9050600073ffffffffffffffffffffffffffffffffffffffff16600360008367ffffffffffffffff1667ffffffffffffffff16815260200190815260200160002060000160009054906101000a900473ffffffffffffffffffffffffffffffffffffffff1673ffffffffffffffffffffffffffffffffffffffff161415613163576040517f1f6a65b600000000000000000000000000000000000000000000000000000000815260040160405180910390fd5b6000600460008367ffffffffffffffff1667ffffffffffffffff16815260200190815260200160002060000160009054906101000a90046bffffffffffffffffffffffff166bffffffffffffffffffffffff16905084600460008467ffffffffffffffff1667ffffffffffffffff16815260200190815260200160002060000160008282829054906101000a90046bffffffffffffffffffffffff166132099190618233565b92506101000a8154816bffffffffffffffffffffffff02191690836bffffffffffffffffffffffff16021790555084600560088282829054906101000a90046bffffffffffffffffffffffff166132609190618233565b92506101000a8154816bffffffffffffffffffffffff02191690836bffffffffffffffffffffffff1602179055508167ffffffffffffffff167fd39ec07f4e209f627a4c427971473820dc129761ba28de8906bd56f57101d4f88287846132c7919061819f565b6040516132d5929190617d49565b60405180910390a2505050505050565b7f000000000000000000000000000000000000000000000000000000000000000081565b6000600b60000160069054906101000a900460ff1615613355576040517fed3ba6a600000000000000000000000000000000000000000000000000000000815260040160405180910390fd5b60005a905060008060006133698787614992565b9250925092506000866060015163ffffffff1667ffffffffffffffff811115613395576133946187dc565b5b6040519080825280602002602001820160405280156133c35781602001602082028036833780820191505090505b50905060005b876060015163ffffffff168110156134395782816040516020016133ee929190617d49565b6040516020818303038152906040528051906020012060001c82828151811061341a576134196187ad565b5b60200260200101818152505080806134319061863d565b9150506133c9565b506009600084815260200190815260200160002060009055600080631fe543e360e01b858460405160240161346f929190617d19565b604051602081830303815290604052907bffffffffffffffffffffffffffffffffffffffffffffffffffffffff19166020820180517bffffffffffffffffffffffffffffffffffffffffffffffffffffffff838183161783525050505090506001600b60000160066101000a81548160ff02191690831515021790555060006135078a6040015163ffffffff168b6080015184614cb7565b90506000600b60000160066101000a81548160ff0219169083151502179055506000600460008c6020015167ffffffffffffffff1667ffffffffffffffff168152602001908152602001600020600001600c9054906101000a900467ffffffffffffffff1690506001600460008d6020015167ffffffffffffffff1667ffffffffffffffff168152602001908152602001600020600001600c8282829054906101000a900467ffffffffffffffff166135c091906181f5565b92506101000a81548167ffffffffffffffff021916908367ffffffffffffffff16021790555060006136178a600b600001600b9054906101000a900463ffffffff1663ffffffff16613611856138e8565b3a614d04565b9050806bffffffffffffffffffffffff16600460008e6020015167ffffffffffffffff1667ffffffffffffffff16815260200190815260200160002060000160009054906101000a90046bffffffffffffffffffffffff166bffffffffffffffffffffffff1610156136b5576040517ff4d678b800000000000000000000000000000000000000000000000000000000815260040160405180910390fd5b80600460008e6020015167ffffffffffffffff1667ffffffffffffffff16815260200190815260200160002060000160008282829054906101000a90046bffffffffffffffffffffffff1661370a9190618334565b92506101000a8154816bffffffffffffffffffffffff02191690836bffffffffffffffffffffffff1602179055508060086000600660008d815260200190815260200160002060009054906101000a900473ffffffffffffffffffffffffffffffffffffffff1673ffffffffffffffffffffffffffffffffffffffff1673ffffffffffffffffffffffffffffffffffffffff16815260200190815260200160002060008282829054906101000a90046bffffffffffffffffffffffff166137d19190618233565b92506101000a8154816bffffffffffffffffffffffff02191690836bffffffffffffffffffffffff160217905550877f7dffc5ae5ee4e2e4df1651cf6ad329a73cebdb728f37ea0187b9b17e036756e488838660405161383393929190617e87565b60405180910390a2809a505050505050505050505092915050565b600080600080600b60000160009054906101000a900461ffff16600b60000160029054906101000a900463ffffffff16600b60000160079054906101000a900463ffffffff16600b600001600b9054906101000a900463ffffffff16935093509350935090919293565b6000816040516020016138cb91906177cc565b604051602081830303815290604052805190602001209050919050565b600080600c604051806101200160405290816000820160009054906101000a900463ffffffff1663ffffffff1663ffffffff1681526020016000820160049054906101000a900463ffffffff1663ffffffff1663ffffffff1681526020016000820160089054906101000a900463ffffffff1663ffffffff1663ffffffff16815260200160008201600c9054906101000a900463ffffffff1663ffffffff1663ffffffff1681526020016000820160109054906101000a900463ffffffff1663ffffffff1663ffffffff1681526020016000820160149054906101000a900462ffffff1662ffffff1662ffffff1681526020016000820160179054906101000a900462ffffff1662ffffff1662ffffff16815260200160008201601a9054906101000a900462ffffff1662ffffff1662ffffff16815260200160008201601d9054906101000a900462ffffff1662ffffff1662ffffff168152505090508267ffffffffffffffff16600011158015613a7357508060a0015162ffffff168367ffffffffffffffff1611155b15613a85578060000151915050613b64565b8267ffffffffffffffff168160a0015162ffffff16108015613aba57508060c0015162ffffff168367ffffffffffffffff1611155b15613acc578060200151915050613b64565b8267ffffffffffffffff168160c0015162ffffff16108015613b0157508060e0015162ffffff168367ffffffffffffffff1611155b15613b13578060400151915050613b64565b8267ffffffffffffffff168160e0015162ffffff16108015613b49575080610100015162ffffff168367ffffffffffffffff1611155b15613b5b578060600151915050613b64565b80608001519150505b919050565b816000600360008367ffffffffffffffff1667ffffffffffffffff16815260200190815260200160002060000160009054906101000a900473ffffffffffffffffffffffffffffffffffffffff169050600073ffffffffffffffffffffffffffffffffffffffff168173ffffffffffffffffffffffffffffffffffffffff161415613c20576040517f1f6a65b600000000000000000000000000000000000000000000000000000000815260040160405180910390fd5b8073ffffffffffffffffffffffffffffffffffffffff163373ffffffffffffffffffffffffffffffffffffffff1614613c9057806040517fd8a3fb52000000000000000000000000000000000000000000000000000000008152600401613c879190617736565b60405180910390fd5b600b60000160069054906101000a900460ff1615613cda576040517fed3ba6a600000000000000000000000000000000000000000000000000000000815260040160405180910390fd5b613ce384613f59565b15613d1a576040517fb42f66e800000000000000000000000000000000000000000000000000000000815260040160405180910390fd5b613d2484846142cf565b50505050565b613d3261423f565b60007f000000000000000000000000000000000000000000000000000000000000000073ffffffffffffffffffffffffffffffffffffffff166370a08231306040518263ffffffff1660e01b8152600401613d8d9190617736565b60206040518083038186803b158015613da557600080fd5b505afa158015613db9573d6000803e3d6000fd5b505050506040513d601f19601f82011682018060405250810190613ddd9190616dc9565b90506000600560089054906101000a90046bffffffffffffffffffffffff166bffffffffffffffffffffffff16905081811115613e535780826040517fa99da302000000000000000000000000000000000000000000000000000000008152600401613e4a929190617d49565b60405180910390fd5b81811015613f545760008183613e699190618300565b90507f000000000000000000000000000000000000000000000000000000000000000073ffffffffffffffffffffffffffffffffffffffff1663a9059cbb85836040518363ffffffff1660e01b8152600401613ec692919061777a565b602060405180830381600087803b158015613ee057600080fd5b505af1158015613ef4573d6000803e3d6000fd5b505050506040513d601f19601f82011682018060405250810190613f189190616bf7565b507f59bfc682b673f8cbf945f1e454df9334834abf7dfe7f92237ca29ecb9b4366008482604051613f4a92919061777a565b60405180910390a1505b505050565b600080600360008467ffffffffffffffff1667ffffffffffffffff1681526020019081526020016000206040518060600160405290816000820160009054906101000a900473ffffffffffffffffffffffffffffffffffffffff1673ffffffffffffffffffffffffffffffffffffffff1673ffffffffffffffffffffffffffffffffffffffff1681526020016001820160009054906101000a900473ffffffffffffffffffffffffffffffffffffffff1673ffffffffffffffffffffffffffffffffffffffff1673ffffffffffffffffffffffffffffffffffffffff168152602001600282018054806020026020016040519081016040528092919081815260200182805480156140bf57602002820191906000526020600020905b8160009054906101000a900473ffffffffffffffffffffffffffffffffffffffff1673ffffffffffffffffffffffffffffffffffffffff1681526020019060010190808311614075575b505050505081525050905060005b81604001515181101561421f5760005b60078054905081101561420b5760006141ca60078381548110614103576141026187ad565b5b906000526020600020015485604001518581518110614125576141246187ad565b5b6020026020010151886002600089604001518981518110614149576141486187ad565b5b602002602001015173ffffffffffffffffffffffffffffffffffffffff1673ffffffffffffffffffffffffffffffffffffffff16815260200190815260200160002060008b67ffffffffffffffff1667ffffffffffffffff16815260200190815260200160002060009054906101000a900467ffffffffffffffff16614874565b5090506000801b6009600083815260200190815260200160002054146141f7576001945050505050614226565b5080806142039061863d565b9150506140dd565b5080806142179061863d565b9150506140cd565b5060009150505b919050565b61423361423f565b61423c81614e37565b50565b60008054906101000a900473ffffffffffffffffffffffffffffffffffffffff1673ffffffffffffffffffffffffffffffffffffffff163373ffffffffffffffffffffffffffffffffffffffff16146142cd576040517f08c379a00000000000000000000000000000000000000000000000000000000081526004016142c4906179be565b60405180910390fd5b565b600b60000160069054906101000a900460ff1615614319576040517fed3ba6a600000000000000000000000000000000000000000000000000000000815260040160405180910390fd5b6000600360008467ffffffffffffffff1667ffffffffffffffff1681526020019081526020016000206040518060600160405290816000820160009054906101000a900473ffffffffffffffffffffffffffffffffffffffff1673ffffffffffffffffffffffffffffffffffffffff1673ffffffffffffffffffffffffffffffffffffffff1681526020016001820160009054906101000a900473ffffffffffffffffffffffffffffffffffffffff1673ffffffffffffffffffffffffffffffffffffffff1673ffffffffffffffffffffffffffffffffffffffff1681526020016002820180548060200260200160405190810160405280929190818152602001828054801561447e57602002820191906000526020600020905b8160009054906101000a900473ffffffffffffffffffffffffffffffffffffffff1673ffffffffffffffffffffffffffffffffffffffff1681526020019060010190808311614434575b50505050508152505090506000600460008567ffffffffffffffff1667ffffffffffffffff1681526020019081526020016000206040518060400160405290816000820160009054906101000a90046bffffffffffffffffffffffff166bffffffffffffffffffffffff166bffffffffffffffffffffffff16815260200160008201600c9054906101000a900467ffffffffffffffff1667ffffffffffffffff1667ffffffffffffffff1681525050905060008160000151905060005b8360400151518110156145f4576002600085604001518381518110614563576145626187ad565b5b602002602001015173ffffffffffffffffffffffffffffffffffffffff1673ffffffffffffffffffffffffffffffffffffffff16815260200190815260200160002060008767ffffffffffffffff1667ffffffffffffffff16815260200190815260200160002060006101000a81549067ffffffffffffffff021916905580806145ec9061863d565b91505061453b565b50600360008667ffffffffffffffff1667ffffffffffffffff168152602001908152602001600020600080820160006101000a81549073ffffffffffffffffffffffffffffffffffffffff02191690556001820160006101000a81549073ffffffffffffffffffffffffffffffffffffffff021916905560028201600061467b919061655a565b5050600460008667ffffffffffffffff1667ffffffffffffffff168152602001908152602001600020600080820160006101000a8154906bffffffffffffffffffffffff021916905560008201600c6101000a81549067ffffffffffffffff0219169055505080600560088282829054906101000a90046bffffffffffffffffffffffff1661470a9190618334565b92506101000a8154816bffffffffffffffffffffffff02191690836bffffffffffffffffffffffff1602179055507f000000000000000000000000000000000000000000000000000000000000000073ffffffffffffffffffffffffffffffffffffffff1663a9059cbb85836bffffffffffffffffffffffff166040518363ffffffff1660e01b81526004016147a192919061777a565b602060405180830381600087803b1580156147bb57600080fd5b505af11580156147cf573d6000803e3d6000fd5b505050506040513d601f19601f820116820180604052508101906147f39190616bf7565b614829576040517ff4d678b800000000000000000000000000000000000000000000000000000000815260040160405180910390fd5b8467ffffffffffffffff167fe8ed5b475a5b5987aa9165e8731bb78043f39eee32ec5a1169a89e27fcd4981585836040516148659291906177a3565b60405180910390a25050505050565b600080600086868686604051602001614890949392919061781d565b6040516020818303038152906040528051906020012060001c905086816040516020016148be929190617862565b6040516020818303038152906040528051906020012060001c81925092505094509492505050565b60008046905061a4b18114806148fe575062066eed81145b1561498a57606473ffffffffffffffffffffffffffffffffffffffff1663a3b1b31d6040518163ffffffff1660e01b815260040160206040518083038186803b15801561494a57600080fd5b505afa15801561495e573d6000803e3d6000fd5b505050506040513d601f19601f820116820180604052508101906149829190616dc9565b91505061498f565b439150505b90565b60008060006149a485600001516138b8565b925060006006600085815260200190815260200160002060009054906101000a900473ffffffffffffffffffffffffffffffffffffffff169050600073ffffffffffffffffffffffffffffffffffffffff168173ffffffffffffffffffffffffffffffffffffffff161415614a5057836040517f77f5b84c000000000000000000000000000000000000000000000000000000008152600401614a479190617802565b60405180910390fd5b838660800151604051602001614a67929190617862565b6040516020818303038152906040528051906020012060001c92506000600960008581526020019081526020016000205490506000801b811415614ad7576040517f3688124a00000000000000000000000000000000000000000000000000000000815260040160405180910390fd5b8386600001518760200151886040015189606001518a60800151604051602001614b0696959493929190617e26565b604051602081830303815290604052805190602001208114614b54576040517fd529142c00000000000000000000000000000000000000000000000000000000815260040160405180910390fd5b6000614b638760000151614f64565b90506000801b811415614c6c577f000000000000000000000000000000000000000000000000000000000000000073ffffffffffffffffffffffffffffffffffffffff1663e9413d3888600001516040518263ffffffff1660e01b8152600401614bcd9190617f8f565b60206040518083038186803b158015614be557600080fd5b505afa158015614bf9573d6000803e3d6000fd5b505050506040513d601f19601f82011682018060405250810190614c1d9190616c24565b90506000801b811415614c6b5786600001516040517f175dadad000000000000000000000000000000000000000000000000000000008152600401614c629190617f8f565b60405180910390fd5b5b6000886080015182604051602001614c8592919061770a565b6040516020818303038152906040528051906020012060001c9050614caa8982615081565b9450505050509250925092565b60005a611388811015614cc957600080fd5b611388810390508460408204820311614ce157600080fd5b833b614cec57600080fd5b6000808451602086016000888af19150509392505050565b600080614d0f6150ee565b905060008113614d5657806040517f43d4cf66000000000000000000000000000000000000000000000000000000008152600401614d4d9190617921565b60405180910390fd5b6000614d606151fa565b9050600082825a8a8a614d73919061819f565b614d7d9190618300565b87614d8891906182a6565b614d92919061819f565b670de0b6b3a7640000614da591906182a6565b614daf9190618275565b905060008663ffffffff1664e8d4a51000614dca91906182a6565b9050806b033b2e3c9fd0803ce8000000614de49190618300565b821115614e1d576040517fe80fa38100000000000000000000000000000000000000000000000000000000815260040160405180910390fd5b8082614e29919061819f565b945050505050949350505050565b3373ffffffffffffffffffffffffffffffffffffffff168173ffffffffffffffffffffffffffffffffffffffff161415614ea6576040517f08c379a0000000000000000000000000000000000000000000000000000000008152600401614e9d90617afe565b60405180910390fd5b80600160006101000a81548173ffffffffffffffffffffffffffffffffffffffff021916908373ffffffffffffffffffffffffffffffffffffffff1602179055508073ffffffffffffffffffffffffffffffffffffffff1660008054906101000a900473ffffffffffffffffffffffffffffffffffffffff1673ffffffffffffffffffffffffffffffffffffffff167fed8889f560326eb138920d842192f0eb3dd22b4f139c87a2c57538e05bae127860405160405180910390a350565b60008046905061a4b1811480614f7c575062066eed81145b80614f89575062066eee81145b1561506c576101008367ffffffffffffffff16614fa46148e6565b614fae9190618300565b1180614fcb5750614fbd6148e6565b8367ffffffffffffffff1610155b15614fda57600091505061507c565b606473ffffffffffffffffffffffffffffffffffffffff16632b407a82846040518263ffffffff1660e01b81526004016150149190617f8f565b60206040518083038186803b15801561502c57600080fd5b505afa158015615040573d6000803e3d6000fd5b505050506040513d601f19601f820116820180604052508101906150649190616c24565b91505061507c565b8267ffffffffffffffff16409150505b919050565b60006150b58360000151846020015185604001518660600151868860a001518960c001518a60e001518b61010001516152a7565b600383602001516040516020016150cd929190617cf0565b6040516020818303038152906040528051906020012060001c905092915050565b600080600b60000160079054906101000a900463ffffffff1690506000808263ffffffff161190506000807f000000000000000000000000000000000000000000000000000000000000000073ffffffffffffffffffffffffffffffffffffffff1663feaf968c6040518163ffffffff1660e01b815260040160a06040518083038186803b15801561517f57600080fd5b505afa158015615193573d6000803e3d6000fd5b505050506040513d601f19601f820116820180604052508101906151b79190616e63565b90919293509091505080935081925050508280156151e5575081426151dc9190618300565b8463ffffffff16105b156151f057600a5490505b8094505050505090565b60008046905061a4b1811480615212575062066eed81145b1561529e57606c73ffffffffffffffffffffffffffffffffffffffff1663c6f7de0e6040518163ffffffff1660e01b815260040160206040518083038186803b15801561525e57600080fd5b505afa158015615272573d6000803e3d6000fd5b505050506040513d601f19601f820116820180604052508101906152969190616dc9565b9150506152a4565b60009150505b90565b6152b089615494565b6152ef576040517f08c379a00000000000000000000000000000000000000000000000000000000081526004016152e690617a9e565b60405180910390fd5b6152f888615494565b615337576040517f08c379a000000000000000000000000000000000000000000000000000000000815260040161532e90617abe565b60405180910390fd5b61534083615494565b61537f576040517f08c379a000000000000000000000000000000000000000000000000000000000815260040161537690617a7e565b60405180910390fd5b61538882615494565b6153c7576040517f08c379a00000000000000000000000000000000000000000000000000000000081526004016153be90617b7e565b60405180910390fd5b6153d3878a8887615615565b615412576040517f08c379a000000000000000000000000000000000000000000000000000000000815260040161540990617a3e565b60405180910390fd5b600061541e8a87615833565b90506000615431898b878b8689896158c5565b90506000615442838d8d8a86615a4c565b9050808a14615486576040517f08c379a000000000000000000000000000000000000000000000000000000000815260040161547d90617ade565b60405180910390fd5b505050505050505050505050565b60007ffffffffffffffffffffffffffffffffffffffffffffffffffffffffefffffc2f826000600281106154cb576154ca6187ad565b5b602002015110615510576040517f08c379a0000000000000000000000000000000000000000000000000000000008152600401615507906179fe565b60405180910390fd5b7ffffffffffffffffffffffffffffffffffffffffffffffffffffffffefffffc2f82600160028110615545576155446187ad565b5b60200201511061558a576040517f08c379a000000000000000000000000000000000000000000000000000000000815260040161558190617b5e565b60405180910390fd5b7ffffffffffffffffffffffffffffffffffffffffffffffffffffffffefffffc2f806155b9576155b861874f565b5b826001600281106155cd576155cc6187ad565b5b6020020151836001600281106155e6576155e56187ad565b5b60200201510961560d83600060028110615603576156026187ad565b5b6020020151615a8e565b149050919050565b60008073ffffffffffffffffffffffffffffffffffffffff168273ffffffffffffffffffffffffffffffffffffffff161415615686576040517f08c379a000000000000000000000000000000000000000000000000000000000815260040161567d90617a1e565b60405180910390fd5b60008060028660016002811061569f5761569e6187ad565b5b6020020151816156b2576156b161874f565b5b06146156bf57601c6156c2565b601b5b905060007ffffffffffffffffffffffffffffffffebaaedce6af48a03bbfd25e8cd0364141806156f5576156f461874f565b5b858760006002811061570a576157096187ad565b5b6020020151097ffffffffffffffffffffffffffffffffebaaedce6af48a03bbfd25e8cd03641410360001b905060007ffffffffffffffffffffffffffffffffebaaedce6af48a03bbfd25e8cd0364141806157685761576761874f565b5b8760006002811061577c5761577b6187ad565b5b6020020151890960001b90506000600183858a6000600281106157a2576157a16187ad565b5b602002015160001b85604051600081526020016040526040516157c8949392919061788b565b6020604051602081039080840390855afa1580156157ea573d6000803e3d6000fd5b5050506020604051035190508573ffffffffffffffffffffffffffffffffffffffff168173ffffffffffffffffffffffffffffffffffffffff1614945050505050949350505050565b61583b61657b565b61586860018484604051602001615854939291906176cd565b604051602081830303815290604052615b31565b90505b61587481615494565b6158bf576158b88160006002811061588f5761588e6187ad565b5b60200201516040516020016158a49190617642565b604051602081830303815290604052615b31565b905061586b565b92915050565b6158cd61657b565b7ffffffffffffffffffffffffffffffffffffffffffffffffffffffffefffffc2f83600060028110615902576159016187ad565b5b6020020151816159155761591461874f565b5b067ffffffffffffffffffffffffffffffffffffffffffffffffffffffffefffffc2f8760006002811061594b5761594a6187ad565b5b60200201518161595e5761595d61874f565b5b0614156159a0576040517f08c379a00000000000000000000000000000000000000000000000000000000081526004016159979061799e565b60405180910390fd5b6159ab878988615c35565b6159ea576040517f08c379a00000000000000000000000000000000000000000000000000000000081526004016159e190617b1e565b60405180910390fd5b6159f5848685615c35565b615a34576040517f08c379a0000000000000000000000000000000000000000000000000000000008152600401615a2b9061797e565b60405180910390fd5b615a3f868484615dcd565b9050979650505050505050565b600060028686868587604051602001615a6a9695949392919061765d565b6040516020818303038152906040528051906020012060001c905095945050505050565b6000807ffffffffffffffffffffffffffffffffffffffffffffffffffffffffefffffc2f80615ac057615abf61874f565b5b7ffffffffffffffffffffffffffffffffffffffffffffffffffffffffefffffc2f80615aef57615aee61874f565b5b848509840990507ffffffffffffffffffffffffffffffffffffffffffffffffffffffffefffffc2f80615b2557615b2461874f565b5b60078208915050919050565b615b3961657b565b615b4282615f49565b81600060028110615b5657615b556187ad565b5b602002018181525050615b88615b8382600060028110615b7957615b786187ad565b5b6020020151615a8e565b615fb6565b81600160028110615b9c57615b9b6187ad565b5b6020020181815250506001600282600160028110615bbd57615bbc6187ad565b5b602002015181615bd057615bcf61874f565b5b061415615c305780600160028110615beb57615bea6187ad565b5b60200201517ffffffffffffffffffffffffffffffffffffffffffffffffffffffffefffffc2f0381600160028110615c2657615c256187ad565b5b6020020181815250505b919050565b600080831415615c7a576040517f08c379a0000000000000000000000000000000000000000000000000000000008152600401615c7190617b3e565b60405180910390fd5b600084600060028110615c9057615c8f6187ad565b5b60200201519050600080600287600160028110615cb057615caf6187ad565b5b6020020151615cbf91906186ef565b14615ccb57601c615cce565b601b5b905060007ffffffffffffffffffffffffffffffffebaaedce6af48a03bbfd25e8cd036414180615d0157615d0061874f565b5b83870960001b9050600060016000801b848660001b8560405160008152602001604052604051615d34949392919061788b565b6020604051602081039080840390855afa158015615d56573d6000803e3d6000fd5b505050602060405103519050600086604051602001615d759190617627565b6040516020818303038152906040528051906020012060001c90508073ffffffffffffffffffffffffffffffffffffffff168273ffffffffffffffffffffffffffffffffffffffff1614955050505050509392505050565b615dd561657b565b6000806000615e4687600060028110615df157615df06187ad565b5b602002015188600160028110615e0a57615e096187ad565b5b602002015188600060028110615e2357615e226187ad565b5b602002015189600160028110615e3c57615e3b6187ad565b5b6020020151615ff9565b80935081945082955050505060017ffffffffffffffffffffffffffffffffffffffffffffffffffffffffefffffc2f80615e8357615e8261874f565b5b86830914615ec6576040517f08c379a0000000000000000000000000000000000000000000000000000000008152600401615ebd90617a5e565b60405180910390fd5b60405180604001604052807ffffffffffffffffffffffffffffffffffffffffffffffffffffffffefffffc2f80615f0057615eff61874f565b5b87860981526020017ffffffffffffffffffffffffffffffffffffffffffffffffffffffffefffffc2f80615f3757615f3661874f565b5b87850981525093505050509392505050565b6000818051906020012060001c90505b7ffffffffffffffffffffffffffffffffffffffffffffffffffffffffefffffc2f8110615fb15780604051602001615f919190617642565b6040516020818303038152906040528051906020012060001c9050615f59565b919050565b6000615ff282600260017ffffffffffffffffffffffffffffffffffffffffffffffffffffffffefffffc2f615feb919061819f565b901c6161f0565b9050919050565b60008060008060006001809150915060007ffffffffffffffffffffffffffffffffffffffffffffffffffffffffefffffc2f806160395761603861874f565b5b897ffffffffffffffffffffffffffffffffffffffffffffffffffffffffefffffc2f038808905060007ffffffffffffffffffffffffffffffffffffffffffffffffffffffffefffffc2f806160915761609061874f565b5b8b7ffffffffffffffffffffffffffffffffffffffffffffffffffffffffefffffc2f038a08905060006160c683838585616350565b80925081995050506160da88828e886163c8565b80925081995050506160ee88828c876163c8565b809250819950505060006161048d878b856163c8565b809250819950505061611888828686616350565b809250819950505061612c88828e896163c8565b80925081995050508082146161dc577ffffffffffffffffffffffffffffffffffffffffffffffffffffffffefffffc2f8061616a5761616961874f565b5b818a0998507ffffffffffffffffffffffffffffffffffffffffffffffffffffffffefffffc2f8061619e5761619d61874f565b5b82890997507ffffffffffffffffffffffffffffffffffffffffffffffffffffffffefffffc2f806161d2576161d161874f565b5b81830996506161e0565b8196505b5050505050509450945094915050565b6000806161fb61659d565b602081600060068110616211576162106187ad565b5b6020020181815250506020816001600681106162305761622f6187ad565b5b60200201818152505060208160026006811061624f5761624e6187ad565b5b602002018181525050848160036006811061626d5761626c6187ad565b5b602002018181525050838160046006811061628b5761628a6187ad565b5b6020020181815250507ffffffffffffffffffffffffffffffffffffffffffffffffffffffffefffffc2f816005600681106162c9576162c86187ad565b5b6020020181815250506162da6165bf565b60208160c0846005600019fa9250600083141561632c576040517f08c379a0000000000000000000000000000000000000000000000000000000008152600401616323906179de565b60405180910390fd5b806000600181106163405761633f6187ad565b5b6020020151935050505092915050565b6000807ffffffffffffffffffffffffffffffffffffffffffffffffffffffffefffffc2f806163825761638161874f565b5b8487097ffffffffffffffffffffffffffffffffffffffffffffffffffffffffefffffc2f806163b4576163b361874f565b5b848709809250819350505094509492505050565b60008060007ffffffffffffffffffffffffffffffffffffffffffffffffffffffffefffffc2f806163fc576163fb61874f565b5b878509905060007ffffffffffffffffffffffffffffffffffffffffffffffffffffffffefffffc2f806164325761643161874f565b5b87877ffffffffffffffffffffffffffffffffffffffffffffffffffffffffefffffc2f030990507ffffffffffffffffffffffffffffffffffffffffffffffffffffffffefffffc2f806164885761648761874f565b5b8183087ffffffffffffffffffffffffffffffffffffffffffffffffffffffffefffffc2f806164ba576164b961874f565b5b8689098094508195505050505094509492505050565b828054828255906000526020600020908101928215616549579160200282015b828111156165485782518260006101000a81548173ffffffffffffffffffffffffffffffffffffffff021916908373ffffffffffffffffffffffffffffffffffffffff160217905550916020019190600101906164f0565b5b50905061655691906165e1565b5090565b508054600082559060005260206000209081019061657891906165e1565b50565b6040518060400160405280600290602082028036833780820191505090505090565b6040518060c00160405280600690602082028036833780820191505090505090565b6040518060200160405280600190602082028036833780820191505090505090565b5b808211156165fa5760008160009055506001016165e2565b5090565b600061661161660c8461807a565b618055565b9050808285602086028201111561662b5761662a61881a565b5b60005b8581101561665b578161664188826169fe565b84526020840193506020830192505060018101905061662e565b5050509392505050565b60008135905061667481618b9e565b92915050565b6000819050826020600202820111156166965761669561881a565b5b92915050565b600082601f8301126166b1576166b0618810565b5b60026166be8482856165fe565b91505092915050565b6000815190506166d681618bb5565b92915050565b6000813590506166eb81618bcc565b92915050565b60008151905061670081618bcc565b92915050565b60008083601f84011261671c5761671b618810565b5b8235905067ffffffffffffffff8111156167395761673861880b565b5b6020830191508360018202830111156167555761675461881a565b5b9250929050565b60008135905061676b81618be3565b92915050565b60008151905061678081618be3565b92915050565b6000610120828403121561679d5761679c618815565b5b6167a8610120618055565b905060006167b884828501616a28565b60008301525060206167cc84828501616a28565b60208301525060406167e084828501616a28565b60408301525060606167f484828501616a28565b606083015250608061680884828501616a28565b60808301525060a061681c848285016169e9565b60a08301525060c0616830848285016169e9565b60c08301525060e0616844848285016169e9565b60e083015250610100616859848285016169e9565b6101008301525092915050565b60006101a0828403121561687d5761687c618815565b5b616888610120618055565b905060006168988482850161669c565b60008301525060406168ac8482850161669c565b60208301525060806168c0848285016169fe565b60408301525060a06168d4848285016169fe565b60608301525060c06168e8848285016169fe565b60808301525060e06168fc84828501616665565b60a0830152506101006169118482850161669c565b60c0830152506101406169268482850161669c565b60e08301525061018061693b848285016169fe565b6101008301525092915050565b600060a0828403121561695e5761695d618815565b5b61696860a0618055565b9050600061697884828501616a3d565b600083015250602061698c84828501616a3d565b60208301525060406169a084828501616a28565b60408301525060606169b484828501616a28565b60608301525060806169c884828501616665565b60808301525092915050565b6000813590506169e381618bfa565b92915050565b6000813590506169f881618c11565b92915050565b600081359050616a0d81618c28565b92915050565b600081519050616a2281618c28565b92915050565b600081359050616a3781618c3f565b92915050565b600081359050616a4c81618c56565b92915050565b600081519050616a6181618c6d565b92915050565b600081359050616a7681618c84565b92915050565b600060208284031215616a9257616a91618824565b5b6000616aa084828501616665565b91505092915050565b60008060608385031215616ac057616abf618824565b5b6000616ace85828601616665565b9250506020616adf8582860161667a565b9150509250929050565b60008060008060608587031215616b0357616b02618824565b5b6000616b1187828801616665565b9450506020616b22878288016169fe565b935050604085013567ffffffffffffffff811115616b4357616b4261881f565b5b616b4f87828801616706565b925092505092959194509250565b60008060408385031215616b7457616b73618824565b5b6000616b8285828601616665565b9250506020616b9385828601616a67565b9150509250929050565b600060408284031215616bb357616bb2618824565b5b6000616bc18482850161667a565b91505092915050565b600060408284031215616be057616bdf618824565b5b6000616bee8482850161669c565b91505092915050565b600060208284031215616c0d57616c0c618824565b5b6000616c1b848285016166c7565b91505092915050565b600060208284031215616c3a57616c39618824565b5b6000616c48848285016166f1565b91505092915050565b600080600080600060a08688031215616c6d57616c6c618824565b5b6000616c7b888289016166dc565b9550506020616c8c88828901616a3d565b9450506040616c9d888289016169d4565b9350506060616cae88828901616a28565b9250506080616cbf88828901616a28565b9150509295509295909350565b6000806102408385031215616ce457616ce3618824565b5b6000616cf285828601616866565b9250506101a0616d0485828601616948565b9150509250929050565b6000806000806000806101c08789031215616d2c57616d2b618824565b5b6000616d3a89828a016169d4565b9650506020616d4b89828a01616a28565b9550506040616d5c89828a01616a28565b9450506060616d6d89828a01616a28565b9350506080616d7e89828a0161675c565b92505060a0616d8f89828a01616786565b9150509295509295509295565b600060208284031215616db257616db1618824565b5b6000616dc0848285016169fe565b91505092915050565b600060208284031215616ddf57616dde618824565b5b6000616ded84828501616a13565b91505092915050565b600060208284031215616e0c57616e0b618824565b5b6000616e1a84828501616a3d565b91505092915050565b60008060408385031215616e3a57616e39618824565b5b6000616e4885828601616a3d565b9250506020616e5985828601616665565b9150509250929050565b600080600080600060a08688031215616e7f57616e7e618824565b5b6000616e8d88828901616a52565b9550506020616e9e88828901616771565b9450506040616eaf88828901616a13565b9350506060616ec088828901616a13565b9250506080616ed188828901616a52565b9150509295509295909350565b6000616eea8383616f3e565b60208301905092915050565b6000616f02838361714a565b60208301905092915050565b6000616f1a838361757a565b60208301905092915050565b6000616f328383617598565b60208301905092915050565b616f4781618387565b82525050565b616f5681618387565b82525050565b616f6d616f6882618387565b6186b7565b82525050565b6000616f7e826180da565b616f888185618145565b9350616f93836180a0565b8060005b83811015616fc4578151616fab8882616ede565b9750616fb683618111565b925050600181019050616f97565b5085935050505092915050565b6000616fdc826180e5565b616fe68185618156565b9350616ff1836180b0565b8060005b838110156170225781516170098882616ef6565b97506170148361811e565b925050600181019050616ff5565b5085935050505092915050565b617038816180f0565b6170428184618167565b925061704d826180c0565b8060005b8381101561707e5781516170658782616f0e565b96506170708361812b565b925050600181019050617051565b505050505050565b61708f816180f0565b6170998184618172565b92506170a4826180c0565b8060005b838110156170d55781516170bc8782616f26565b96506170c78361812b565b9250506001810190506170a8565b505050505050565b60006170e8826180fb565b6170f2818561817d565b93506170fd836180ca565b8060005b8381101561712e5781516171158882616f0e565b975061712083618138565b925050600181019050617101565b5085935050505092915050565b61714481618399565b82525050565b617153816183a5565b82525050565b617162816183a5565b82525050565b617179617174826183a5565b6186c9565b82525050565b6171888161845f565b82525050565b61719781618483565b82525050565b6171a6816184a7565b82525050565b6171b5816183af565b82525050565b60006171c682618106565b6171d0818561818e565b93506171e08185602086016184ef565b6171e981618829565b840191505092915050565b600061720160168361818e565b915061720c826188bc565b602082019050919050565b600061722460178361818e565b915061722f826188e5565b602082019050919050565b6000617247601e8361818e565b91506172528261890e565b602082019050919050565b600061726a60168361818e565b915061727582618937565b602082019050919050565b600061728d60128361818e565b915061729882618960565b602082019050919050565b60006172b060128361818e565b91506172bb82618989565b602082019050919050565b60006172d3600b8361818e565b91506172de826189b2565b602082019050919050565b60006172f660198361818e565b9150617301826189db565b602082019050919050565b600061731960198361818e565b915061732482618a04565b602082019050919050565b600061733c601d8361818e565b915061734782618a2d565b602082019050919050565b600061735f601a8361818e565b915061736a82618a56565b602082019050919050565b600061738260158361818e565b915061738d82618a7f565b602082019050919050565b60006173a5600d8361818e565b91506173b082618aa8565b602082019050919050565b60006173c860178361818e565b91506173d382618ad1565b602082019050919050565b60006173eb60168361818e565b91506173f682618afa565b602082019050919050565b600061740e600b8361818e565b915061741982618b23565b602082019050919050565b600061743160128361818e565b915061743c82618b4c565b602082019050919050565b6000617454601c8361818e565b915061745f82618b75565b602082019050919050565b6101208201600080830154905061748081618522565b61748d60008601826175be565b50617497816185d8565b6174a460208601826175be565b506174ae816185f2565b6174bb60408601826175be565b506174c58161853c565b6174d260608601826175be565b506174dc81618556565b6174e960808601826175be565b506174f381618570565b61750060a086018261755c565b5061750a8161858a565b61751760c086018261755c565b50617521816185a4565b61752e60e086018261755c565b50617538816185be565b61754661010086018261755c565b5050505050565b617556816183b9565b82525050565b617565816183e7565b82525050565b617574816183e7565b82525050565b617583816183f6565b82525050565b617592816183f6565b82525050565b6175a1816183f6565b82525050565b6175b86175b3826183f6565b6186e5565b82525050565b6175c781618400565b82525050565b6175d681618400565b82525050565b6175e5816184cb565b82525050565b6175f481618410565b82525050565b61760381618424565b82525050565b617612816184dd565b82525050565b61762181618447565b82525050565b60006176338284617086565b60408201915081905092915050565b600061764e82846175a7565b60208201915081905092915050565b600061766982896175a7565b6020820191506176798288617086565b6040820191506176898287617086565b6040820191506176998286617086565b6040820191506176a98285617086565b6040820191506176b98284616f5c565b601482019150819050979650505050505050565b60006176d982866175a7565b6020820191506176e98285617086565b6040820191506176f982846175a7565b602082019150819050949350505050565b600061771682856175a7565b6020820191506177268284617168565b6020820191508190509392505050565b600060208201905061774b6000830184616f4d565b92915050565b60006040820190506177666000830185616f4d565b6177736020830184616f4d565b9392505050565b600060408201905061778f6000830185616f4d565b61779c6020830184617589565b9392505050565b60006040820190506177b86000830185616f4d565b6177c56020830184617609565b9392505050565b60006040820190506177e1600083018461702f565b92915050565b60006020820190506177fc600083018461713b565b92915050565b60006020820190506178176000830184617159565b92915050565b60006080820190506178326000830187617159565b61783f6020830186616f4d565b61784c60408301856175eb565b61785960608301846175eb565b95945050505050565b60006040820190506178776000830185617159565b6178846020830184617589565b9392505050565b60006080820190506178a06000830187617159565b6178ad60208301866175fa565b6178ba6040830185617159565b6178c76060830184617159565b95945050505050565b60006020820190506178e5600083018461717f565b92915050565b6000602082019050617900600083018461718e565b92915050565b600060208201905061791b600083018461719d565b92915050565b600060208201905061793660008301846171ac565b92915050565b6000602082019050818103600083015261795681846171bb565b905092915050565b60006020820190508181036000830152617977816171f4565b9050919050565b6000602082019050818103600083015261799781617217565b9050919050565b600060208201905081810360008301526179b78161723a565b9050919050565b600060208201905081810360008301526179d78161725d565b9050919050565b600060208201905081810360008301526179f781617280565b9050919050565b60006020820190508181036000830152617a17816172a3565b9050919050565b60006020820190508181036000830152617a37816172c6565b9050919050565b60006020820190508181036000830152617a57816172e9565b9050919050565b60006020820190508181036000830152617a778161730c565b9050919050565b60006020820190508181036000830152617a978161732f565b9050919050565b60006020820190508181036000830152617ab781617352565b9050919050565b60006020820190508181036000830152617ad781617375565b9050919050565b60006020820190508181036000830152617af781617398565b9050919050565b60006020820190508181036000830152617b17816173bb565b9050919050565b60006020820190508181036000830152617b37816173de565b9050919050565b60006020820190508181036000830152617b5781617401565b9050919050565b60006020820190508181036000830152617b7781617424565b9050919050565b60006020820190508181036000830152617b9781617447565b9050919050565b6000602082019050617bb3600083018461754d565b92915050565b6000606082019050617bce600083018661754d565b617bdb602083018561754d565b617be8604083018461754d565b949350505050565b6000606082019050617c05600083018661754d565b617c1260208301856175cd565b8181036040830152617c248184616fd1565b9050949350505050565b6000608082019050617c43600083018761754d565b617c5060208301866175cd565b617c5d60408301856175cd565b617c6a60608301846175cd565b95945050505050565b60006101c082019050617c89600083018961754d565b617c9660208301886175cd565b617ca360408301876175cd565b617cb060608301866175cd565b617cbd60808301856171ac565b617cca60a083018461746a565b979650505050505050565b6000602082019050617cea6000830184617589565b92915050565b6000606082019050617d056000830185617589565b617d12602083018461702f565b9392505050565b6000604082019050617d2e6000830185617589565b8181036020830152617d4081846170dd565b90509392505050565b6000604082019050617d5e6000830185617589565b617d6b6020830184617589565b9392505050565b600060a082019050617d876000830188617589565b617d946020830187617589565b617da1604083018661754d565b617dae60608301856175cd565b617dbb60808301846175cd565b9695505050505050565b600060c082019050617dda6000830189617589565b617de76020830188617589565b617df460408301876175eb565b617e0160608301866175cd565b617e0e60808301856175cd565b617e1b60a0830184616f4d565b979650505050505050565b600060c082019050617e3b6000830189617589565b617e4860208301886175eb565b617e5560408301876175eb565b617e6260608301866175cd565b617e6f60808301856175cd565b617e7c60a0830184616f4d565b979650505050505050565b6000606082019050617e9c6000830186617589565b617ea96020830185617618565b617eb6604083018461713b565b949350505050565b6000602082019050617ed360008301846175cd565b92915050565b6000604082019050617eee60008301856175cd565b617efb60208301846175cd565b9392505050565b600061012082019050617f18600083018c6175cd565b617f25602083018b6175cd565b617f32604083018a6175cd565b617f3f60608301896175cd565b617f4c60808301886175cd565b617f5960a083018761756b565b617f6660c083018661756b565b617f7360e083018561756b565b617f8161010083018461756b565b9a9950505050505050505050565b6000602082019050617fa460008301846175dc565b92915050565b6000602082019050617fbf60008301846175eb565b92915050565b6000604082019050617fda60008301856175eb565b617fe76020830184616f4d565b9392505050565b60006020820190506180036000830184617618565b92915050565b600060808201905061801e6000830187617618565b61802b60208301866175eb565b6180386040830185616f4d565b818103606083015261804a8184616f73565b905095945050505050565b600061805f618070565b905061806b828261860c565b919050565b6000604051905090565b600067ffffffffffffffff821115618095576180946187dc565b5b602082029050919050565b6000819050602082019050919050565b6000819050602082019050919050565b6000819050919050565b6000819050602082019050919050565b600081519050919050565b600081519050919050565b600060029050919050565b600081519050919050565b600081519050919050565b6000602082019050919050565b6000602082019050919050565b6000602082019050919050565b6000602082019050919050565b600082825260208201905092915050565b600082825260208201905092915050565b600081905092915050565b600081905092915050565b600082825260208201905092915050565b600082825260208201905092915050565b60006181aa826183f6565b91506181b5836183f6565b9250827fffffffffffffffffffffffffffffffffffffffffffffffffffffffffffffffff038211156181ea576181e9618720565b5b828201905092915050565b600061820082618410565b915061820b83618410565b92508267ffffffffffffffff0382111561822857618227618720565b5b828201905092915050565b600061823e82618447565b915061824983618447565b9250826bffffffffffffffffffffffff0382111561826a57618269618720565b5b828201905092915050565b6000618280826183f6565b915061828b836183f6565b92508261829b5761829a61874f565b5b828204905092915050565b60006182b1826183f6565b91506182bc836183f6565b9250817fffffffffffffffffffffffffffffffffffffffffffffffffffffffffffffffff04831182151516156182f5576182f4618720565b5b828202905092915050565b600061830b826183f6565b9150618316836183f6565b92508282101561832957618328618720565b5b828203905092915050565b600061833f82618447565b915061834a83618447565b92508282101561835d5761835c618720565b5b828203905092915050565b600062ffffff82169050919050565b600063ffffffff82169050919050565b6000618392826183c7565b9050919050565b60008115159050919050565b6000819050919050565b6000819050919050565b600061ffff82169050919050565b600073ffffffffffffffffffffffffffffffffffffffff82169050919050565b600062ffffff82169050919050565b6000819050919050565b600063ffffffff82169050919050565b600067ffffffffffffffff82169050919050565b600060ff82169050919050565b600069ffffffffffffffffffff82169050919050565b60006bffffffffffffffffffffffff82169050919050565b600061846a82618471565b9050919050565b600061847c826183c7565b9050919050565b600061848e82618495565b9050919050565b60006184a0826183c7565b9050919050565b60006184b2826184b9565b9050919050565b60006184c4826183c7565b9050919050565b60006184d682618410565b9050919050565b60006184e882618447565b9050919050565b60005b8381101561850d5780820151818401526020810190506184f2565b8381111561851c576000848401525b50505050565b600061853561853083618847565b618377565b9050919050565b600061854f61854a836188af565b618377565b9050919050565b600061856961856483618854565b618377565b9050919050565b600061858361857e83618861565b618368565b9050919050565b600061859d6185988361886e565b618368565b9050919050565b60006185b76185b28361887b565b618368565b9050919050565b60006185d16185cc83618888565b618368565b9050919050565b60006185eb6185e683618895565b618377565b9050919050565b6000618605618600836188a2565b618377565b9050919050565b61861582618829565b810181811067ffffffffffffffff82111715618634576186336187dc565b5b80604052505050565b6000618648826183f6565b91507fffffffffffffffffffffffffffffffffffffffffffffffffffffffffffffffff82141561867b5761867a618720565b5b600182019050919050565b600061869182618410565b915067ffffffffffffffff8214156186ac576186ab618720565b5b600182019050919050565b60006186c2826186d3565b9050919050565b6000819050919050565b60006186de8261883a565b9050919050565b6000819050919050565b60006186fa826183f6565b9150618705836183f6565b9250826187155761871461874f565b5b828206905092915050565b7f4e487b7100000000000000000000000000000000000000000000000000000000600052601160045260246000fd5b7f4e487b7100000000000000000000000000000000000000000000000000000000600052601260045260246000fd5b7f4e487b7100000000000000000000000000000000000000000000000000000000600052603160045260246000fd5b7f4e487b7100000000000000000000000000000000000000000000000000000000600052603260045260246000fd5b7f4e487b7100000000000000000000000000000000000000000000000000000000600052604160045260246000fd5b600080fd5b600080fd5b600080fd5b600080fd5b600080fd5b600080fd5b6000601f19601f8301169050919050565b60008160601b9050919050565b60008160001c9050919050565b60008160801c9050919050565b60008160a01c9050919050565b60008160b81c9050919050565b60008160d01c9050919050565b60008160e81c9050919050565b60008160201c9050919050565b60008160401c9050919050565b60008160601c9050919050565b7f4d7573742062652070726f706f736564206f776e657200000000000000000000600082015250565b7f5365636f6e64206d756c20636865636b206661696c6564000000000000000000600082015250565b7f706f696e747320696e2073756d206d7573742062652064697374696e63740000600082015250565b7f4f6e6c792063616c6c61626c65206279206f776e657200000000000000000000600082015250565b7f6269674d6f64457870206661696c757265210000000000000000000000000000600082015250565b7f696e76616c696420782d6f7264696e6174650000000000000000000000000000600082015250565b7f626164207769746e657373000000000000000000000000000000000000000000600082015250565b7f6164647228632a706b2b732a6729213d5f755769746e65737300000000000000600082015250565b7f696e765a206d75737420626520696e7665727365206f66207a00000000000000600082015250565b7f6347616d6d615769746e657373206973206e6f74206f6e206375727665000000600082015250565b7f7075626c6963206b6579206973206e6f74206f6e206375727665000000000000600082015250565b7f67616d6d61206973206e6f74206f6e2063757276650000000000000000000000600082015250565b7f696e76616c69642070726f6f6600000000000000000000000000000000000000600082015250565b7f43616e6e6f74207472616e7366657220746f2073656c66000000000000000000600082015250565b7f4669727374206d756c20636865636b206661696c656400000000000000000000600082015250565b7f7a65726f207363616c6172000000000000000000000000000000000000000000600082015250565b7f696e76616c696420792d6f7264696e6174650000000000000000000000000000600082015250565b7f73486173685769746e657373206973206e6f74206f6e20637572766500000000600082015250565b618ba781618387565b8114618bb257600080fd5b50565b618bbe81618399565b8114618bc957600080fd5b50565b618bd5816183a5565b8114618be057600080fd5b50565b618bec816183af565b8114618bf757600080fd5b50565b618c03816183b9565b8114618c0e57600080fd5b50565b618c1a816183e7565b8114618c2557600080fd5b50565b618c31816183f6565b8114618c3c57600080fd5b50565b618c4881618400565b8114618c5357600080fd5b50565b618c5f81618410565b8114618c6a57600080fd5b50565b618c7681618431565b8114618c8157600080fd5b50565b618c8d81618447565b8114618c9857600080fd5b5056fea26469706673582212202b2ce513e0b8b129d8139e860bad1581f2bae94b353fe7c2374edca9a286ae3664736f6c63430008060033",
  "linkReferences": {},
  "deployedLinkReferences": {}
}