{"@chainlink/contracts/src/v0.8/vendor/@eth-optimism/contracts/v0.8.6/contracts/L2/predeploys/OVM_GasPriceOracle.sol":{"OVM_GasPriceOracle":{"abi":[{"inputs":[{"internalType":"address","name":"_owner","type":"address"}],"stateMutability":"nonpayable","type":"constructor"},{"anonymous":false,"inputs":[{"indexed":false,"internalType":"uint256","name":"","type":"uint256"}],"name":"DecimalsUpdated","type":"event"},{"anonymous":false,"inputs":[{"indexed":false,"internalType":"uint256","name":"","type":"uint256"}],"name":"GasPriceUpdated","type":"event"},{"anonymous":false,"inputs":[{"indexed":false,"internalType":"uint256","name":"","type":"uint256"}],"name":"L1BaseFeeUpdated","type":"event"},{"anonymous":false,"inputs":[{"indexed":false,"internalType":"uint256","name":"","type":"uint256"}],"name":"OverheadUpdated","type":"event"},{"anonymous":false,"inputs":[{"indexed":true,"internalType":"address","name":"previousOwner","type":"address"},{"indexed":true,"internalType":"address","name":"newOwner","type":"address"}],"name":"OwnershipTransferred","type":"event"},{"anonymous":false,"inputs":[{"indexed":false,"internalType":"uint256","name":"","type":"uint256"}],"name":"ScalarUpdated","type":"event"},{"inputs":[],"name":"decimals","outputs":[{"internalType":"uint256","name":"","type":"uint256"}],"stateMutability":"view","type":"function"},{"inputs":[],"name":"gasPrice","outputs":[{"internalType":"uint256","name":"","type":"uint256"}],"stateMutability":"view","type":"function"},{"inputs":[{"internalType":"bytes","name":"_data","type":"bytes"}],"name":"getL1Fee","outputs":[{"internalType":"uint256","name":"","type":"uint256"}],"stateMutability":"view","type":"function"},{"inputs":[{"internalType":"bytes","name":"_data","type":"bytes"}],"name":"getL1GasUsed","outputs":[{"internalType":"uint256","name":"","type":"uint256"}],"stateMutability":"view","type":"function"},{"inputs":[],"name":"l1BaseFee","outputs":[{"internalType":"uint256","name":"","type":"uint256"}],"stateMutability":"view","type":"function"},{"inputs":[],"name":"overhead","outputs":[{"internalType":"uint256","name":"","type":"uint256"}],"stateMutability":"view","type":"function"},{"inputs":[],"name":"owner","outputs":[{"internalType":"address","name":"","type":"address"}],"stateMutability":"view","type":"function"},{"inputs":[],"name":"renounceOwnership","outputs":[],"stateMutability":"nonpayable","type":"function"},{"inputs":[],"name":"scalar","outputs":[{"internalType":"uint256","name":"","type":"uint256"}],"stateMutability":"view","type":"function"},{"inputs":[{"internalType":"uint256","name":"_decimals","type":"uint256"}],"name":"setDecimals","outputs":[],"stateMutability":"nonpayable","type":"function"},{"inputs":[{"internalType":"uint256","name":"_gasPrice","type":"uint256"}],"name":"setGasPrice","outputs":[],"stateMutability":"nonpayable","type":"function"},{"inputs":[{"internalType":"uint256","name":"_baseFee","type":"uint256"}],"name":"setL1BaseFee","outputs":[],"stateMutability":"nonpayable","type":"function"},{"inputs":[{"internalType":"uint256","name":"_overhead","type":"uint256"}],"name":"setOverhead","outputs":[],"stateMutability":"nonpayable","type":"function"},{"inputs":[{"internalType":"uint256","name":"_scalar","type":"uint256"}],"name":"setScalar","outputs":[],"stateMutability":"nonpayable","type":"function"},{"inputs":[{"internalType":"address","name":"newOwner","type":"address"}],"name":"transferOwnership","outputs":[],"stateMutability":"nonpayable","type":"function"}],"devdoc":{"details":"This contract exposes the current l2 gas price, a measure of how congested the network currently is. This measure is used by the Sequencer to determine what fee to charge for transactions. When the system is more congested, the l2 gas price will increase and fees will also increase as a result. All public variables are set while generating the initial L2 state. The constructor doesn't run in practice as the L2 state generation script uses the deployed bytecode instead of running the initcode.","kind":"dev","methods":{"constructor":{"params":{"_owner":"Address that will initially own this contract."}},"getL1Fee(bytes)":{"params":{"_data":"Unsigned RLP encoded tx, 6 elements"},"returns":{"_0":"L1 fee that should be paid for the tx"}},"getL1GasUsed(bytes)":{"params":{"_data":"Unsigned RLP encoded tx, 6 elements"},"returns":{"_0":"Amount of L1 gas used for a transaction"}},"owner()":{"details":"Returns the address of the current owner."},"renounceOwnership()":{"details":"Leaves the contract without owner. It will not be possible to call `onlyOwner` functions. Can only be called by the current owner. NOTE: Renouncing ownership will leave the contract without an owner, thereby disabling any functionality that is only available to the owner."},"setDecimals(uint256)":{"params":{"_decimals":"New decimals"}},"setGasPrice(uint256)":{"params":{"_gasPrice":"New l2 gas price."}},"setL1BaseFee(uint256)":{"params":{"_baseFee":"New l1 base fee"}},"setOverhead(uint256)":{"params":{"_overhead":"New overhead"}},"setScalar(uint256)":{"params":{"_scalar":"New scalar"}},"transferOwnership(address)":{"details":"Transfers ownership of the contract to a new account (`newOwner`). Can only be called by the current owner."}},"title":"OVM_GasPriceOracle","version":1},"evm":{"bytecode":{"linkReferences":{},"object":"60806040523480156200001157600080fd5b5060405162001329380380620013298339818101604052810190620000379190620002a3565b620000576200004b6200006f60201b60201c565b6200007760201b60201c565b62000068816200013b60201b60201c565b5062000443565b600033905090565b60008060009054906101000a900473ffffffffffffffffffffffffffffffffffffffff169050816000806101000a81548173ffffffffffffffffffffffffffffffffffffffff021916908373ffffffffffffffffffffffffffffffffffffffff1602179055508173ffffffffffffffffffffffffffffffffffffffff168173ffffffffffffffffffffffffffffffffffffffff167f8be0079c531659141344cd1fd0a4f28419497f9722a3daafe3b4186f6b6457e060405160405180910390a35050565b6200014b620001d260201b60201c565b600073ffffffffffffffffffffffffffffffffffffffff168173ffffffffffffffffffffffffffffffffffffffff161415620001be576040517f08c379a0000000000000000000000000000000000000000000000000000000008152600401620001b59062000323565b60405180910390fd5b620001cf816200007760201b60201c565b50565b620001e26200006f60201b60201c565b73ffffffffffffffffffffffffffffffffffffffff16620002086200026360201b60201c565b73ffffffffffffffffffffffffffffffffffffffff161462000261576040517f08c379a0000000000000000000000000000000000000000000000000000000008152600401620002589062000345565b60405180910390fd5b565b60008060009054906101000a900473ffffffffffffffffffffffffffffffffffffffff16905090565b6000815190506200029d8162000429565b92915050565b600060208284031215620002bc57620002bb620003ac565b5b6000620002cc848285016200028c565b91505092915050565b6000620002e460268362000367565b9150620002f182620003b1565b604082019050919050565b60006200030b60208362000367565b9150620003188262000400565b602082019050919050565b600060208201905081810360008301526200033e81620002d5565b9050919050565b600060208201905081810360008301526200036081620002fc565b9050919050565b600082825260208201905092915050565b600062000385826200038c565b9050919050565b600073ffffffffffffffffffffffffffffffffffffffff82169050919050565b600080fd5b7f4f776e61626c653a206e6577206f776e657220697320746865207a65726f206160008201527f6464726573730000000000000000000000000000000000000000000000000000602082015250565b7f4f776e61626c653a2063616c6c6572206973206e6f7420746865206f776e6572600082015250565b620004348162000378565b81146200044057600080fd5b50565b610ed680620004536000396000f3fe608060405234801561001057600080fd5b50600436106100f55760003560e01c80638c8885c811610097578063de26c4a111610066578063de26c4a114610238578063f2fde38b14610268578063f45e65d814610284578063fe173b97146102a2576100f5565b80638c8885c8146101c65780638da5cb5b146101e2578063bede39b514610200578063bf1fe4201461021c576100f5565b806349948e0e116100d357806349948e0e14610152578063519b4bd31461018257806370465597146101a0578063715018a6146101bc576100f5565b80630c18c162146100fa578063313ce567146101185780633577afc514610136575b600080fd5b6101026102c0565b60405161010f9190610973565b60405180910390f35b6101206102c6565b60405161012d9190610973565b60405180910390f35b610150600480360381019061014b9190610887565b6102cc565b005b61016c6004803603810190610167919061083e565b610315565b6040516101799190610973565b60405180910390f35b61018a610377565b6040516101979190610973565b60405180910390f35b6101ba60048036038101906101b59190610887565b61037d565b005b6101c46103c6565b005b6101e060048036038101906101db9190610887565b6103da565b005b6101ea610423565b6040516101f79190610918565b60405180910390f35b61021a60048036038101906102159190610887565b61044c565b005b61023660048036038101906102319190610887565b610495565b005b610252600480360381019061024d919061083e565b6104de565b60405161025f9190610973565b60405180910390f35b610282600480360381019061027d9190610811565b61059d565b005b61028c610621565b6040516102999190610973565b60405180910390f35b6102aa610627565b6040516102b79190610973565b60405180910390f35b60035481565b60055481565b6102d461062d565b806003819055507f32740b35c0ea213650f60d44366b4fb211c9033b50714e4a1d34e65d5beb9bb48160405161030a9190610973565b60405180910390a150565b600080610321836104de565b90506000600254826103339190610bed565b90506000600554600a6103469190610acf565b90506000600454836103589190610bed565b9050600082826103689190610a4b565b90508095505050505050919050565b60025481565b61038561062d565b806004819055507f3336cd9708eaf2769a0f0dc0679f30e80f15dcd88d1921b5a16858e8b85c591a816040516103bb9190610973565b60405180910390a150565b6103ce61062d565b6103d860006106ab565b565b6103e261062d565b806005819055507fd68112a8707e326d08be3656b528c1bcc5bbbfc47f4177e2179b14d8640838c1816040516104189190610973565b60405180910390a150565b60008060009054906101000a900473ffffffffffffffffffffffffffffffffffffffff16905090565b61045461062d565b806002819055507f351fb23757bb5ea0546c85b7996ddd7155f96b939ebaa5ff7bc49c75f27f2c448160405161048a9190610973565b60405180910390a150565b61049d61062d565b806001819055507ffcdccc6074c6c42e4bd578aa9870c697dc976a270968452d2b8c8dc369fae396816040516104d39190610973565b60405180910390a150565b6000806000905060005b835181101561057357600060f81b84828151811061050957610508610d6a565b5b602001015160f81c60f81b7effffffffffffffffffffffffffffffffffffffffffffffffffffffffffffff191614156105505760048261054991906109f5565b9150610560565b60108261055d91906109f5565b91505b808061056b90610cc3565b9150506104e8565b5060006003548261058491906109f5565b90506104408161059491906109f5565b92505050919050565b6105a561062d565b600073ffffffffffffffffffffffffffffffffffffffff168173ffffffffffffffffffffffffffffffffffffffff161415610615576040517f08c379a000000000000000000000000000000000000000000000000000000000815260040161060c90610933565b60405180910390fd5b61061e816106ab565b50565b60045481565b60015481565b61063561076f565b73ffffffffffffffffffffffffffffffffffffffff16610653610423565b73ffffffffffffffffffffffffffffffffffffffff16146106a9576040517f08c379a00000000000000000000000000000000000000000000000000000000081526004016106a090610953565b60405180910390fd5b565b60008060009054906101000a900473ffffffffffffffffffffffffffffffffffffffff169050816000806101000a81548173ffffffffffffffffffffffffffffffffffffffff021916908373ffffffffffffffffffffffffffffffffffffffff1602179055508173ffffffffffffffffffffffffffffffffffffffff168173ffffffffffffffffffffffffffffffffffffffff167f8be0079c531659141344cd1fd0a4f28419497f9722a3daafe3b4186f6b6457e060405160405180910390a35050565b600033905090565b600061078a610785846109b3565b61098e565b9050828152602081018484840111156107a6576107a5610dcd565b5b6107b1848285610c83565b509392505050565b6000813590506107c881610e72565b92915050565b600082601f8301126107e3576107e2610dc8565b5b81356107f3848260208601610777565b91505092915050565b60008135905061080b81610e89565b92915050565b60006020828403121561082757610826610dd7565b5b6000610835848285016107b9565b91505092915050565b60006020828403121561085457610853610dd7565b5b600082013567ffffffffffffffff81111561087257610871610dd2565b5b61087e848285016107ce565b91505092915050565b60006020828403121561089d5761089c610dd7565b5b60006108ab848285016107fc565b91505092915050565b6108bd81610c47565b82525050565b60006108d06026836109e4565b91506108db82610dfa565b604082019050919050565b60006108f36020836109e4565b91506108fe82610e49565b602082019050919050565b61091281610c79565b82525050565b600060208201905061092d60008301846108b4565b92915050565b6000602082019050818103600083015261094c816108c3565b9050919050565b6000602082019050818103600083015261096c816108e6565b9050919050565b60006020820190506109886000830184610909565b92915050565b60006109986109a9565b90506109a48282610c92565b919050565b6000604051905090565b600067ffffffffffffffff8211156109ce576109cd610d99565b5b6109d782610ddc565b9050602081019050919050565b600082825260208201905092915050565b6000610a0082610c79565b9150610a0b83610c79565b9250827fffffffffffffffffffffffffffffffffffffffffffffffffffffffffffffffff03821115610a4057610a3f610d0c565b5b828201905092915050565b6000610a5682610c79565b9150610a6183610c79565b925082610a7157610a70610d3b565b5b828204905092915050565b6000808291508390505b6001851115610ac657808604811115610aa257610aa1610d0c565b5b6001851615610ab15780820291505b8081029050610abf85610ded565b9450610a86565b94509492505050565b6000610ada82610c79565b9150610ae583610c79565b9250610b127fffffffffffffffffffffffffffffffffffffffffffffffffffffffffffffffff8484610b1a565b905092915050565b600082610b2a5760019050610be6565b81610b385760009050610be6565b8160018114610b4e5760028114610b5857610b87565b6001915050610be6565b60ff841115610b6a57610b69610d0c565b5b8360020a915084821115610b8157610b80610d0c565b5b50610be6565b5060208310610133831016604e8410600b8410161715610bbc5782820a905083811115610bb757610bb6610d0c565b5b610be6565b610bc98484846001610a7c565b92509050818404811115610be057610bdf610d0c565b5b81810290505b9392505050565b6000610bf882610c79565b9150610c0383610c79565b9250817fffffffffffffffffffffffffffffffffffffffffffffffffffffffffffffffff0483118215151615610c3c57610c3b610d0c565b5b828202905092915050565b6000610c5282610c59565b9050919050565b600073ffffffffffffffffffffffffffffffffffffffff82169050919050565b6000819050919050565b82818337600083830152505050565b610c9b82610ddc565b810181811067ffffffffffffffff82111715610cba57610cb9610d99565b5b80604052505050565b6000610cce82610c79565b91507fffffffffffffffffffffffffffffffffffffffffffffffffffffffffffffffff821415610d0157610d00610d0c565b5b600182019050919050565b7f4e487b7100000000000000000000000000000000000000000000000000000000600052601160045260246000fd5b7f4e487b7100000000000000000000000000000000000000000000000000000000600052601260045260246000fd5b7f4e487b7100000000000000000000000000000000000000000000000000000000600052603260045260246000fd5b7f4e487b7100000000000000000000000000000000000000000000000000000000600052604160045260246000fd5b600080fd5b600080fd5b600080fd5b600080fd5b6000601f19601f8301169050919050565b60008160011c9050919050565b7f4f776e61626c653a206e6577206f776e657220697320746865207a65726f206160008201527f6464726573730000000000000000000000000000000000000000000000000000602082015250565b7f4f776e61626c653a2063616c6c6572206973206e6f7420746865206f776e6572600082015250565b610e7b81610c47565b8114610e8657600080fd5b50565b610e9281610c79565b8114610e9d57600080fd5b5056fea264697066735822122059b815e688e059bd10532178f265e9993e6731be76ea0985f75668cb163ff99364736f6c63430008060033","opcodes":"PUSH1 0x80 PUSH1 0x40 MSTORE CALLVALUE DUP1 ISZERO PUSH3 0x11 JUMPI PUSH1 0x0 DUP1 REVERT JUMPDEST POP PUSH1 0x40 MLOAD PUSH3 0x1329 CODESIZE SUB DUP1 PUSH3 0x1329 DUP4 CODECOPY DUP2 DUP2 ADD PUSH1 0x40 MSTORE DUP2 ADD SWAP1 PUSH3 0x37 SWAP2 SWAP1 PUSH3 0x2A3 JUMP JUMPDEST PUSH3 0x57 PUSH3 0x4B PUSH3 0x6F PUSH1 0x20 SHL PUSH1 0x20 SHR JUMP JUMPDEST PUSH3 0x77 PUSH1 0x20 SHL PUSH1 0x20 SHR JUMP JUMPDEST PUSH3 0x68 DUP2 PUSH3 0x13B PUSH1 0x20 SHL PUSH1 0x20 SHR JUMP JUMPDEST POP PUSH3 0x443 JUMP JUMPDEST PUSH1 0x0 CALLER SWAP1 POP SWAP1 JUMP JUMPDEST PUSH1 0x0 DUP1 PUSH1 0x0 SWAP1 SLOAD SWAP1 PUSH2 0x100 EXP SWAP1 DIV PUSH20 0xFFFFFFFFFFFFFFFFFFFFFFFFFFFFFFFFFFFFFFFF AND SWAP1 POP DUP2 PUSH1 0x0 DUP1 PUSH2 0x100 EXP DUP2 SLOAD DUP2 PUSH20 0xFFFFFFFFFFFFFFFFFFFFFFFFFFFFFFFFFFFFFFFF MUL NOT AND SWAP1 DUP4 PUSH20 0xFFFFFFFFFFFFFFFFFFFFFFFFFFFFFFFFFFFFFFFF AND MUL OR SWAP1 SSTORE POP DUP2 PUSH20 0xFFFFFFFFFFFFFFFFFFFFFFFFFFFFFFFFFFFFFFFF AND DUP2 PUSH20 0xFFFFFFFFFFFFFFFFFFFFFFFFFFFFFFFFFFFFFFFF AND PUSH32 0x8BE0079C531659141344CD1FD0A4F28419497F9722A3DAAFE3B4186F6B6457E0 PUSH1 0x40 MLOAD PUSH1 0x40 MLOAD DUP1 SWAP2 SUB SWAP1 LOG3 POP POP JUMP JUMPDEST PUSH3 0x14B PUSH3 0x1D2 PUSH1 0x20 SHL PUSH1 0x20 SHR JUMP JUMPDEST PUSH1 0x0 PUSH20 0xFFFFFFFFFFFFFFFFFFFFFFFFFFFFFFFFFFFFFFFF AND DUP2 PUSH20 0xFFFFFFFFFFFFFFFFFFFFFFFFFFFFFFFFFFFFFFFF AND EQ ISZERO PUSH3 0x1BE JUMPI PUSH1 0x40 MLOAD PUSH32 0x8C379A000000000000000000000000000000000000000000000000000000000 DUP2 MSTORE PUSH1 0x4 ADD PUSH3 0x1B5 SWAP1 PUSH3 0x323 JUMP JUMPDEST PUSH1 0x40 MLOAD DUP1 SWAP2 SUB SWAP1 REVERT JUMPDEST PUSH3 0x1CF DUP2 PUSH3 0x77 PUSH1 0x20 SHL PUSH1 0x20 SHR JUMP JUMPDEST POP JUMP JUMPDEST PUSH3 0x1E2 PUSH3 0x6F PUSH1 0x20 SHL PUSH1 0x20 SHR JUMP JUMPDEST PUSH20 0xFFFFFFFFFFFFFFFFFFFFFFFFFFFFFFFFFFFFFFFF AND PUSH3 0x208 PUSH3 0x263 PUSH1 0x20 SHL PUSH1 0x20 SHR JUMP JUMPDEST PUSH20 0xFFFFFFFFFFFFFFFFFFFFFFFFFFFFFFFFFFFFFFFF AND EQ PUSH3 0x261 JUMPI PUSH1 0x40 MLOAD PUSH32 0x8C379A000000000000000000000000000000000000000000000000000000000 DUP2 MSTORE PUSH1 0x4 ADD PUSH3 0x258 SWAP1 PUSH3 0x345 JUMP JUMPDEST PUSH1 0x40 MLOAD DUP1 SWAP2 SUB SWAP1 REVERT JUMPDEST JUMP JUMPDEST PUSH1 0x0 DUP1 PUSH1 0x0 SWAP1 SLOAD SWAP1 PUSH2 0x100 EXP SWAP1 DIV PUSH20 0xFFFFFFFFFFFFFFFFFFFFFFFFFFFFFFFFFFFFFFFF AND SWAP1 POP SWAP1 JUMP JUMPDEST PUSH1 0x0 DUP2 MLOAD SWAP1 POP PUSH3 0x29D DUP2 PUSH3 0x429 JUMP JUMPDEST SWAP3 SWAP2 POP POP JUMP JUMPDEST PUSH1 0x0 PUSH1 0x20 DUP3 DUP5 SUB SLT ISZERO PUSH3 0x2BC JUMPI PUSH3 0x2BB PUSH3 0x3AC JUMP JUMPDEST JUMPDEST PUSH1 0x0 PUSH3 0x2CC DUP5 DUP3 DUP6 ADD PUSH3 0x28C JUMP JUMPDEST SWAP2 POP POP SWAP3 SWAP2 POP POP JUMP JUMPDEST PUSH1 0x0 PUSH3 0x2E4 PUSH1 0x26 DUP4 PUSH3 0x367 JUMP JUMPDEST SWAP2 POP PUSH3 0x2F1 DUP3 PUSH3 0x3B1 JUMP JUMPDEST PUSH1 0x40 DUP3 ADD SWAP1 POP SWAP2 SWAP1 POP JUMP JUMPDEST PUSH1 0x0 PUSH3 0x30B PUSH1 0x20 DUP4 PUSH3 0x367 JUMP JUMPDEST SWAP2 POP PUSH3 0x318 DUP3 PUSH3 0x400 JUMP JUMPDEST PUSH1 0x20 DUP3 ADD SWAP1 POP SWAP2 SWAP1 POP JUMP JUMPDEST PUSH1 0x0 PUSH1 0x20 DUP3 ADD SWAP1 POP DUP2 DUP2 SUB PUSH1 0x0 DUP4 ADD MSTORE PUSH3 0x33E DUP2 PUSH3 0x2D5 JUMP JUMPDEST SWAP1 POP SWAP2 SWAP1 POP JUMP JUMPDEST PUSH1 0x0 PUSH1 0x20 DUP3 ADD SWAP1 POP DUP2 DUP2 SUB PUSH1 0x0 DUP4 ADD MSTORE PUSH3 0x360 DUP2 PUSH3 0x2FC JUMP JUMPDEST SWAP1 POP SWAP2 SWAP1 POP JUMP JUMPDEST PUSH1 0x0 DUP3 DUP3 MSTORE PUSH1 0x20 DUP3 ADD SWAP1 POP SWAP3 SWAP2 POP POP JUMP JUMPDEST PUSH1 0x0 PUSH3 0x385 DUP3 PUSH3 0x38C JUMP JUMPDEST SWAP1 POP SWAP2 SWAP1 POP JUMP JUMPDEST PUSH1 0x0 PUSH20 0xFFFFFFFFFFFFFFFFFFFFFFFFFFFFFFFFFFFFFFFF DUP3 AND SWAP1 POP SWAP2 SWAP1 POP JUMP JUMPDEST PUSH1 0x0 DUP1 REVERT JUMPDEST PUSH32 0x4F776E61626C653A206E6577206F776E657220697320746865207A65726F2061 PUSH1 0x0 DUP3 ADD MSTORE PUSH32 0x6464726573730000000000000000000000000000000000000000000000000000 PUSH1 0x20 DUP3 ADD MSTORE POP JUMP JUMPDEST PUSH32 0x4F776E61626C653A2063616C6C6572206973206E6F7420746865206F776E6572 PUSH1 0x0 DUP3 ADD MSTORE POP JUMP JUMPDEST PUSH3 0x434 DUP2 PUSH3 0x378 JUMP JUMPDEST DUP2 EQ PUSH3 0x440 JUMPI PUSH1 0x0 DUP1 REVERT JUMPDEST POP JUMP JUMPDEST PUSH2 0xED6 DUP1 PUSH3 0x453 PUSH1 0x0 CODECOPY PUSH1 0x0 RETURN INVALID PUSH1 0x80 PUSH1 0x40 MSTORE CALLVALUE DUP1 ISZERO PUSH2 0x10 JUMPI PUSH1 0x0 DUP1 REVERT JUMPDEST POP PUSH1 0x4 CALLDATASIZE LT PUSH2 0xF5 JUMPI PUSH1 0x0 CALLDATALOAD PUSH1 0xE0 SHR DUP1 PUSH4 0x8C8885C8 GT PUSH2 0x97 JUMPI DUP1 PUSH4 0xDE26C4A1 GT PUSH2 0x66 JUMPI DUP1 PUSH4 0xDE26C4A1 EQ PUSH2 0x238 JUMPI DUP1 PUSH4 0xF2FDE38B EQ PUSH2 0x268 JUMPI DUP1 PUSH4 0xF45E65D8 EQ PUSH2 0x284 JUMPI DUP1 PUSH4 0xFE173B97 EQ PUSH2 0x2A2 JUMPI PUSH2 0xF5 JUMP JUMPDEST DUP1 PUSH4 0x8C8885C8 EQ PUSH2 0x1C6 JUMPI DUP1 PUSH4 0x8DA5CB5B EQ PUSH2 0x1E2 JUMPI DUP1 PUSH4 0xBEDE39B5 EQ PUSH2 0x200 JUMPI DUP1 PUSH4 0xBF1FE420 EQ PUSH2 0x21C JUMPI PUSH2 0xF5 JUMP JUMPDEST DUP1 PUSH4 0x49948E0E GT PUSH2 0xD3 JUMPI DUP1 PUSH4 0x49948E0E EQ PUSH2 0x152 JUMPI DUP1 PUSH4 0x519B4BD3 EQ PUSH2 0x182 JUMPI DUP1 PUSH4 0x70465597 EQ PUSH2 0x1A0 JUMPI DUP1 PUSH4 0x715018A6 EQ PUSH2 0x1BC JUMPI PUSH2 0xF5 JUMP JUMPDEST DUP1 PUSH4 0xC18C162 EQ PUSH2 0xFA JUMPI DUP1 PUSH4 0x313CE567 EQ PUSH2 0x118 JUMPI DUP1 PUSH4 0x3577AFC5 EQ PUSH2 0x136 JUMPI JUMPDEST PUSH1 0x0 DUP1 REVERT JUMPDEST PUSH2 0x102 PUSH2 0x2C0 JUMP JUMPDEST PUSH1 0x40 MLOAD PUSH2 0x10F SWAP2 SWAP1 PUSH2 0x973 JUMP JUMPDEST PUSH1 0x40 MLOAD DUP1 SWAP2 SUB SWAP1 RETURN JUMPDEST PUSH2 0x120 PUSH2 0x2C6 JUMP JUMPDEST PUSH1 0x40 MLOAD PUSH2 0x12D SWAP2 SWAP1 PUSH2 0x973 JUMP JUMPDEST PUSH1 0x40 MLOAD DUP1 SWAP2 SUB SWAP1 RETURN JUMPDEST PUSH2 0x150 PUSH1 0x4 DUP1 CALLDATASIZE SUB DUP2 ADD SWAP1 PUSH2 0x14B SWAP2 SWAP1 PUSH2 0x887 JUMP JUMPDEST PUSH2 0x2CC JUMP JUMPDEST STOP JUMPDEST PUSH2 0x16C PUSH1 0x4 DUP1 CALLDATASIZE SUB DUP2 ADD SWAP1 PUSH2 0x167 SWAP2 SWAP1 PUSH2 0x83E JUMP JUMPDEST PUSH2 0x315 JUMP JUMPDEST PUSH1 0x40 MLOAD PUSH2 0x179 SWAP2 SWAP1 PUSH2 0x973 JUMP JUMPDEST PUSH1 0x40 MLOAD DUP1 SWAP2 SUB SWAP1 RETURN JUMPDEST PUSH2 0x18A PUSH2 0x377 JUMP JUMPDEST PUSH1 0x40 MLOAD PUSH2 0x197 SWAP2 SWAP1 PUSH2 0x973 JUMP JUMPDEST PUSH1 0x40 MLOAD DUP1 SWAP2 SUB SWAP1 RETURN JUMPDEST PUSH2 0x1BA PUSH1 0x4 DUP1 CALLDATASIZE SUB DUP2 ADD SWAP1 PUSH2 0x1B5 SWAP2 SWAP1 PUSH2 0x887 JUMP JUMPDEST PUSH2 0x37D JUMP JUMPDEST STOP JUMPDEST PUSH2 0x1C4 PUSH2 0x3C6 JUMP JUMPDEST STOP JUMPDEST PUSH2 0x1E0 PUSH1 0x4 DUP1 CALLDATASIZE SUB DUP2 ADD SWAP1 PUSH2 0x1DB SWAP2 SWAP1 PUSH2 0x887 JUMP JUMPDEST PUSH2 0x3DA JUMP JUMPDEST STOP JUMPDEST PUSH2 0x1EA PUSH2 0x423 JUMP JUMPDEST PUSH1 0x40 MLOAD PUSH2 0x1F7 SWAP2 SWAP1 PUSH2 0x918 JUMP JUMPDEST PUSH1 0x40 MLOAD DUP1 SWAP2 SUB SWAP1 RETURN JUMPDEST PUSH2 0x21A PUSH1 0x4 DUP1 CALLDATASIZE SUB DUP2 ADD SWAP1 PUSH2 0x215 SWAP2 SWAP1 PUSH2 0x887 JUMP JUMPDEST PUSH2 0x44C JUMP JUMPDEST STOP JUMPDEST PUSH2 0x236 PUSH1 0x4 DUP1 CALLDATASIZE SUB DUP2 ADD SWAP1 PUSH2 0x231 SWAP2 SWAP1 PUSH2 0x887 JUMP JUMPDEST PUSH2 0x495 JUMP JUMPDEST STOP JUMPDEST PUSH2 0x252 PUSH1 0x4 DUP1 CALLDATASIZE SUB DUP2 ADD SWAP1 PUSH2 0x24D SWAP2 SWAP1 PUSH2 0x83E JUMP JUMPDEST PUSH2 0x4DE JUMP JUMPDEST PUSH1 0x40 MLOAD PUSH2 0x25F SWAP2 SWAP1 PUSH2 0x973 JUMP JUMPDEST PUSH1 0x40 MLOAD DUP1 SWAP2 SUB SWAP1 RETURN JUMPDEST PUSH2 0x282 PUSH1 0x4 DUP1 CALLDATASIZE SUB DUP2 ADD SWAP1 PUSH2 0x27D SWAP2 SWAP1 PUSH2 0x811 JUMP JUMPDEST PUSH2 0x59D JUMP JUMPDEST STOP JUMPDEST PUSH2 0x28C PUSH2 0x621 JUMP JUMPDEST PUSH1 0x40 MLOAD PUSH2 0x299 SWAP2 SWAP1 PUSH2 0x973 JUMP JUMPDEST PUSH1 0x40 MLOAD DUP1 SWAP2 SUB SWAP1 RETURN JUMPDEST PUSH2 0x2AA PUSH2 0x627 JUMP JUMPDEST PUSH1 0x40 MLOAD PUSH2 0x2B7 SWAP2 SWAP1 PUSH2 0x973 JUMP JUMPDEST PUSH1 0x40 MLOAD DUP1 SWAP2 SUB SWAP1 RETURN JUMPDEST PUSH1 0x3 SLOAD DUP2 JUMP JUMPDEST PUSH1 0x5 SLOAD DUP2 JUMP JUMPDEST PUSH2 0x2D4 PUSH2 0x62D JUMP JUMPDEST DUP1 PUSH1 0x3 DUP2 SWAP1 SSTORE POP PUSH32 0x32740B35C0EA213650F60D44366B4FB211C9033B50714E4A1D34E65D5BEB9BB4 DUP2 PUSH1 0x40 MLOAD PUSH2 0x30A SWAP2 SWAP1 PUSH2 0x973 JUMP JUMPDEST PUSH1 0x40 MLOAD DUP1 SWAP2 SUB SWAP1 LOG1 POP JUMP JUMPDEST PUSH1 0x0 DUP1 PUSH2 0x321 DUP4 PUSH2 0x4DE JUMP JUMPDEST SWAP1 POP PUSH1 0x0 PUSH1 0x2 SLOAD DUP3 PUSH2 0x333 SWAP2 SWAP1 PUSH2 0xBED JUMP JUMPDEST SWAP1 POP PUSH1 0x0 PUSH1 0x5 SLOAD PUSH1 0xA PUSH2 0x346 SWAP2 SWAP1 PUSH2 0xACF JUMP JUMPDEST SWAP1 POP PUSH1 0x0 PUSH1 0x4 SLOAD DUP4 PUSH2 0x358 SWAP2 SWAP1 PUSH2 0xBED JUMP JUMPDEST SWAP1 POP PUSH1 0x0 DUP3 DUP3 PUSH2 0x368 SWAP2 SWAP1 PUSH2 0xA4B JUMP JUMPDEST SWAP1 POP DUP1 SWAP6 POP POP POP POP POP POP SWAP2 SWAP1 POP JUMP JUMPDEST PUSH1 0x2 SLOAD DUP2 JUMP JUMPDEST PUSH2 0x385 PUSH2 0x62D JUMP JUMPDEST DUP1 PUSH1 0x4 DUP2 SWAP1 SSTORE POP PUSH32 0x3336CD9708EAF2769A0F0DC0679F30E80F15DCD88D1921B5A16858E8B85C591A DUP2 PUSH1 0x40 MLOAD PUSH2 0x3BB SWAP2 SWAP1 PUSH2 0x973 JUMP JUMPDEST PUSH1 0x40 MLOAD DUP1 SWAP2 SUB SWAP1 LOG1 POP JUMP JUMPDEST PUSH2 0x3CE PUSH2 0x62D JUMP JUMPDEST PUSH2 0x3D8 PUSH1 0x0 PUSH2 0x6AB JUMP JUMPDEST JUMP JUMPDEST PUSH2 0x3E2 PUSH2 0x62D JUMP JUMPDEST DUP1 PUSH1 0x5 DUP2 SWAP1 SSTORE POP PUSH32 0xD68112A8707E326D08BE3656B528C1BCC5BBBFC47F4177E2179B14D8640838C1 DUP2 PUSH1 0x40 MLOAD PUSH2 0x418 SWAP2 SWAP1 PUSH2 0x973 JUMP JUMPDEST PUSH1 0x40 MLOAD DUP1 SWAP2 SUB SWAP1 LOG1 POP JUMP JUMPDEST PUSH1 0x0 DUP1 PUSH1 0x0 SWAP1 SLOAD SWAP1 PUSH2 0x100 EXP SWAP1 DIV PUSH20 0xFFFFFFFFFFFFFFFFFFFFFFFFFFFFFFFFFFFFFFFF AND SWAP1 POP SWAP1 JUMP JUMPDEST PUSH2 0x454 PUSH2 0x62D JUMP JUMPDEST DUP1 PUSH1 0x2 DUP2 SWAP1 SSTORE POP PUSH32 0x351FB23757BB5EA0546C85B7996DDD7155F96B939EBAA5FF7BC49C75F27F2C44 DUP2 PUSH1 0x40 MLOAD PUSH2 0x48A SWAP2 SWAP1 PUSH2 0x973 JUMP JUMPDEST PUSH1 0x40 MLOAD DUP1 SWAP2 SUB SWAP1 LOG1 POP JUMP JUMPDEST PUSH2 0x49D PUSH2 0x62D JUMP JUMPDEST DUP1 PUSH1 0x1 DUP2 SWAP1 SSTORE POP PUSH32 0xFCDCCC6074C6C42E4BD578AA9870C697DC976A270968452D2B8C8DC369FAE396 DUP2 PUSH1 0x40 MLOAD PUSH2 0x4D3 SWAP2 SWAP1 PUSH2 0x973 JUMP JUMPDEST PUSH1 0x40 MLOAD DUP1 SWAP2 SUB SWAP1 LOG1 POP JUMP JUMPDEST PUSH1 0x0 DUP1 PUSH1 0x0 SWAP1 POP PUSH1 0x0 JUMPDEST DUP4 MLOAD DUP2 LT ISZERO PUSH2 0x573 JUMPI PUSH1 0x0 PUSH1 0xF8 SHL DUP5 DUP3 DUP2 MLOAD DUP2 LT PUSH2 0x509 JUMPI PUSH2 0x508 PUSH2 0xD6A JUMP JUMPDEST JUMPDEST PUSH1 0x20 ADD ADD MLOAD PUSH1 0xF8 SHR PUSH1 0xF8 SHL PUSH31 0xFFFFFFFFFFFFFFFFFFFFFFFFFFFFFFFFFFFFFFFFFFFFFFFFFFFFFFFFFFFFFF NOT AND EQ ISZERO PUSH2 0x550 JUMPI PUSH1 0x4 DUP3 PUSH2 0x549 SWAP2 SWAP1 PUSH2 0x9F5 JUMP JUMPDEST SWAP2 POP PUSH2 0x560 JUMP JUMPDEST PUSH1 0x10 DUP3 PUSH2 0x55D SWAP2 SWAP1 PUSH2 0x9F5 JUMP JUMPDEST SWAP2 POP JUMPDEST DUP1 DUP1 PUSH2 0x56B SWAP1 PUSH2 0xCC3 JUMP JUMPDEST SWAP2 POP POP PUSH2 0x4E8 JUMP JUMPDEST POP PUSH1 0x0 PUSH1 0x3 SLOAD DUP3 PUSH2 0x584 SWAP2 SWAP1 PUSH2 0x9F5 JUMP JUMPDEST SWAP1 POP PUSH2 0x440 DUP2 PUSH2 0x594 SWAP2 SWAP1 PUSH2 0x9F5 JUMP JUMPDEST SWAP3 POP POP POP SWAP2 SWAP1 POP JUMP JUMPDEST PUSH2 0x5A5 PUSH2 0x62D JUMP JUMPDEST PUSH1 0x0 PUSH20 0xFFFFFFFFFFFFFFFFFFFFFFFFFFFFFFFFFFFFFFFF AND DUP2 PUSH20 0xFFFFFFFFFFFFFFFFFFFFFFFFFFFFFFFFFFFFFFFF AND EQ ISZERO PUSH2 0x615 JUMPI PUSH1 0x40 MLOAD PUSH32 0x8C379A000000000000000000000000000000000000000000000000000000000 DUP2 MSTORE PUSH1 0x4 ADD PUSH2 0x60C SWAP1 PUSH2 0x933 JUMP JUMPDEST PUSH1 0x40 MLOAD DUP1 SWAP2 SUB SWAP1 REVERT JUMPDEST PUSH2 0x61E DUP2 PUSH2 0x6AB JUMP JUMPDEST POP JUMP JUMPDEST PUSH1 0x4 SLOAD DUP2 JUMP JUMPDEST PUSH1 0x1 SLOAD DUP2 JUMP JUMPDEST PUSH2 0x635 PUSH2 0x76F JUMP JUMPDEST PUSH20 0xFFFFFFFFFFFFFFFFFFFFFFFFFFFFFFFFFFFFFFFF AND PUSH2 0x653 PUSH2 0x423 JUMP JUMPDEST PUSH20 0xFFFFFFFFFFFFFFFFFFFFFFFFFFFFFFFFFFFFFFFF AND EQ PUSH2 0x6A9 JUMPI PUSH1 0x40 MLOAD PUSH32 0x8C379A000000000000000000000000000000000000000000000000000000000 DUP2 MSTORE PUSH1 0x4 ADD PUSH2 0x6A0 SWAP1 PUSH2 0x953 JUMP JUMPDEST PUSH1 0x40 MLOAD DUP1 SWAP2 SUB SWAP1 REVERT JUMPDEST JUMP JUMPDEST PUSH1 0x0 DUP1 PUSH1 0x0 SWAP1 SLOAD SWAP1 PUSH2 0x100 EXP SWAP1 DIV PUSH20 0xFFFFFFFFFFFFFFFFFFFFFFFFFFFFFFFFFFFFFFFF AND SWAP1 POP DUP2 PUSH1 0x0 DUP1 PUSH2 0x100 EXP DUP2 SLOAD DUP2 PUSH20 0xFFFFFFFFFFFFFFFFFFFFFFFFFFFFFFFFFFFFFFFF MUL NOT AND SWAP1 DUP4 PUSH20 0xFFFFFFFFFFFFFFFFFFFFFFFFFFFFFFFFFFFFFFFF AND MUL OR SWAP1 SSTORE POP DUP2 PUSH20 0xFFFFFFFFFFFFFFFFFFFFFFFFFFFFFFFFFFFFFFFF AND DUP2 PUSH20 0xFFFFFFFFFFFFFFFFFFFFFFFFFFFFFFFFFFFFFFFF AND PUSH32 0x8BE0079C531659141344CD1FD0A4F28419497F9722A3DAAFE3B4186F6B6457E0 PUSH1 0x40 MLOAD PUSH1 0x40 MLOAD DUP1 SWAP2 SUB SWAP1 LOG3 POP POP JUMP JUMPDEST PUSH1 0x0 CALLER SWAP1 POP SWAP1 JUMP JUMPDEST PUSH1 0x0 PUSH2 0x78A PUSH2 0x785 DUP5 PUSH2 0x9B3 JUMP JUMPDEST PUSH2 0x98E JUMP JUMPDEST SWAP1 POP DUP3 DUP2 MSTORE PUSH1 0x20 DUP2 ADD DUP5 DUP5 DUP5 ADD GT ISZERO PUSH2 0x7A6 JUMPI PUSH2 0x7A5 PUSH2 0xDCD JUMP JUMPDEST JUMPDEST PUSH2 0x7B1 DUP5 DUP3 DUP6 PUSH2 0xC83 JUMP JUMPDEST POP SWAP4 SWAP3 POP POP POP JUMP JUMPDEST PUSH1 0x0 DUP2 CALLDATALOAD SWAP1 POP PUSH2 0x7C8 DUP2 PUSH2 0xE72 JUMP JUMPDEST SWAP3 SWAP2 POP POP JUMP JUMPDEST PUSH1 0x0 DUP3 PUSH1 0x1F DUP4 ADD SLT PUSH2 0x7E3 JUMPI PUSH2 0x7E2 PUSH2 0xDC8 JUMP JUMPDEST JUMPDEST DUP2 CALLDATALOAD PUSH2 0x7F3 DUP5 DUP3 PUSH1 0x20 DUP7 ADD PUSH2 0x777 JUMP JUMPDEST SWAP2 POP POP SWAP3 SWAP2 POP POP JUMP JUMPDEST PUSH1 0x0 DUP2 CALLDATALOAD SWAP1 POP PUSH2 0x80B DUP2 PUSH2 0xE89 JUMP JUMPDEST SWAP3 SWAP2 POP POP JUMP JUMPDEST PUSH1 0x0 PUSH1 0x20 DUP3 DUP5 SUB SLT ISZERO PUSH2 0x827 JUMPI PUSH2 0x826 PUSH2 0xDD7 JUMP JUMPDEST JUMPDEST PUSH1 0x0 PUSH2 0x835 DUP5 DUP3 DUP6 ADD PUSH2 0x7B9 JUMP JUMPDEST SWAP2 POP POP SWAP3 SWAP2 POP POP JUMP JUMPDEST PUSH1 0x0 PUSH1 0x20 DUP3 DUP5 SUB SLT ISZERO PUSH2 0x854 JUMPI PUSH2 0x853 PUSH2 0xDD7 JUMP JUMPDEST JUMPDEST PUSH1 0x0 DUP3 ADD CALLDATALOAD PUSH8 0xFFFFFFFFFFFFFFFF DUP2 GT ISZERO PUSH2 0x872 JUMPI PUSH2 0x871 PUSH2 0xDD2 JUMP JUMPDEST JUMPDEST PUSH2 0x87E DUP5 DUP3 DUP6 ADD PUSH2 0x7CE JUMP JUMPDEST SWAP2 POP POP SWAP3 SWAP2 POP POP JUMP JUMPDEST PUSH1 0x0 PUSH1 0x20 DUP3 DUP5 SUB SLT ISZERO PUSH2 0x89D JUMPI PUSH2 0x89C PUSH2 0xDD7 JUMP JUMPDEST JUMPDEST PUSH1 0x0 PUSH2 0x8AB DUP5 DUP3 DUP6 ADD PUSH2 0x7FC JUMP JUMPDEST SWAP2 POP POP SWAP3 SWAP2 POP POP JUMP JUMPDEST PUSH2 0x8BD DUP2 PUSH2 0xC47 JUMP JUMPDEST DUP3 MSTORE POP POP JUMP JUMPDEST PUSH1 0x0 PUSH2 0x8D0 PUSH1 0x26 DUP4 PUSH2 0x9E4 JUMP JUMPDEST SWAP2 POP PUSH2 0x8DB DUP3 PUSH2 0xDFA JUMP JUMPDEST PUSH1 0x40 DUP3 ADD SWAP1 POP SWAP2 SWAP1 POP JUMP JUMPDEST PUSH1 0x0 PUSH2 0x8F3 PUSH1 0x20 DUP4 PUSH2 0x9E4 JUMP JUMPDEST SWAP2 POP PUSH2 0x8FE DUP3 PUSH2 0xE49 JUMP JUMPDEST PUSH1 0x20 DUP3 ADD SWAP1 POP SWAP2 SWAP1 POP JUMP JUMPDEST PUSH2 0x912 DUP2 PUSH2 0xC79 JUMP JUMPDEST DUP3 MSTORE POP POP JUMP JUMPDEST PUSH1 0x0 PUSH1 0x20 DUP3 ADD SWAP1 POP PUSH2 0x92D PUSH1 0x0 DUP4 ADD DUP5 PUSH2 0x8B4 JUMP JUMPDEST SWAP3 SWAP2 POP POP JUMP JUMPDEST PUSH1 0x0 PUSH1 0x20 DUP3 ADD SWAP1 POP DUP2 DUP2 SUB PUSH1 0x0 DUP4 ADD MSTORE PUSH2 0x94C DUP2 PUSH2 0x8C3 JUMP JUMPDEST SWAP1 POP SWAP2 SWAP1 POP JUMP JUMPDEST PUSH1 0x0 PUSH1 0x20 DUP3 ADD SWAP1 POP DUP2 DUP2 SUB PUSH1 0x0 DUP4 ADD MSTORE PUSH2 0x96C DUP2 PUSH2 0x8E6 JUMP JUMPDEST SWAP1 POP SWAP2 SWAP1 POP JUMP JUMPDEST PUSH1 0x0 PUSH1 0x20 DUP3 ADD SWAP1 POP PUSH2 0x988 PUSH1 0x0 DUP4 ADD DUP5 PUSH2 0x909 JUMP JUMPDEST SWAP3 SWAP2 POP POP JUMP JUMPDEST PUSH1 0x0 PUSH2 0x998 PUSH2 0x9A9 JUMP JUMPDEST SWAP1 POP PUSH2 0x9A4 DUP3 DUP3 PUSH2 0xC92 JUMP JUMPDEST SWAP2 SWAP1 POP JUMP JUMPDEST PUSH1 0x0 PUSH1 0x40 MLOAD SWAP1 POP SWAP1 JUMP JUMPDEST PUSH1 0x0 PUSH8 0xFFFFFFFFFFFFFFFF DUP3 GT ISZERO PUSH2 0x9CE JUMPI PUSH2 0x9CD PUSH2 0xD99 JUMP JUMPDEST JUMPDEST PUSH2 0x9D7 DUP3 PUSH2 0xDDC JUMP JUMPDEST SWAP1 POP PUSH1 0x20 DUP2 ADD SWAP1 POP SWAP2 SWAP1 POP JUMP JUMPDEST PUSH1 0x0 DUP3 DUP3 MSTORE PUSH1 0x20 DUP3 ADD SWAP1 POP SWAP3 SWAP2 POP POP JUMP JUMPDEST PUSH1 0x0 PUSH2 0xA00 DUP3 PUSH2 0xC79 JUMP JUMPDEST SWAP2 POP PUSH2 0xA0B DUP4 PUSH2 0xC79 JUMP JUMPDEST SWAP3 POP DUP3 PUSH32 0xFFFFFFFFFFFFFFFFFFFFFFFFFFFFFFFFFFFFFFFFFFFFFFFFFFFFFFFFFFFFFFFF SUB DUP3 GT ISZERO PUSH2 0xA40 JUMPI PUSH2 0xA3F PUSH2 0xD0C JUMP JUMPDEST JUMPDEST DUP3 DUP3 ADD SWAP1 POP SWAP3 SWAP2 POP POP JUMP JUMPDEST PUSH1 0x0 PUSH2 0xA56 DUP3 PUSH2 0xC79 JUMP JUMPDEST SWAP2 POP PUSH2 0xA61 DUP4 PUSH2 0xC79 JUMP JUMPDEST SWAP3 POP DUP3 PUSH2 0xA71 JUMPI PUSH2 0xA70 PUSH2 0xD3B JUMP JUMPDEST JUMPDEST DUP3 DUP3 DIV SWAP1 POP SWAP3 SWAP2 POP POP JUMP JUMPDEST PUSH1 0x0 DUP1 DUP3 SWAP2 POP DUP4 SWAP1 POP JUMPDEST PUSH1 0x1 DUP6 GT ISZERO PUSH2 0xAC6 JUMPI DUP1 DUP7 DIV DUP2 GT ISZERO PUSH2 0xAA2 JUMPI PUSH2 0xAA1 PUSH2 0xD0C JUMP JUMPDEST JUMPDEST PUSH1 0x1 DUP6 AND ISZERO PUSH2 0xAB1 JUMPI DUP1 DUP3 MUL SWAP2 POP JUMPDEST DUP1 DUP2 MUL SWAP1 POP PUSH2 0xABF DUP6 PUSH2 0xDED JUMP JUMPDEST SWAP5 POP PUSH2 0xA86 JUMP JUMPDEST SWAP5 POP SWAP5 SWAP3 POP POP POP JUMP JUMPDEST PUSH1 0x0 PUSH2 0xADA DUP3 PUSH2 0xC79 JUMP JUMPDEST SWAP2 POP PUSH2 0xAE5 DUP4 PUSH2 0xC79 JUMP JUMPDEST SWAP3 POP PUSH2 0xB12 PUSH32 0xFFFFFFFFFFFFFFFFFFFFFFFFFFFFFFFFFFFFFFFFFFFFFFFFFFFFFFFFFFFFFFFF DUP5 DUP5 PUSH2 0xB1A JUMP JUMPDEST SWAP1 POP SWAP3 SWAP2 POP POP JUMP JUMPDEST PUSH1 0x0 DUP3 PUSH2 0xB2A JUMPI PUSH1 0x1 SWAP1 POP PUSH2 0xBE6 JUMP JUMPDEST DUP2 PUSH2 0xB38 JUMPI PUSH1 0x0 SWAP1 POP PUSH2 0xBE6 JUMP JUMPDEST DUP2 PUSH1 0x1 DUP2 EQ PUSH2 0xB4E JUMPI PUSH1 0x2 DUP2 EQ PUSH2 0xB58 JUMPI PUSH2 0xB87 JUMP JUMPDEST PUSH1 0x1 SWAP2 POP POP PUSH2 0xBE6 JUMP JUMPDEST PUSH1 0xFF DUP5 GT ISZERO PUSH2 0xB6A JUMPI PUSH2 0xB69 PUSH2 0xD0C JUMP JUMPDEST JUMPDEST DUP4 PUSH1 0x2 EXP SWAP2 POP DUP5 DUP3 GT ISZERO PUSH2 0xB81 JUMPI PUSH2 0xB80 PUSH2 0xD0C JUMP JUMPDEST JUMPDEST POP PUSH2 0xBE6 JUMP JUMPDEST POP PUSH1 0x20 DUP4 LT PUSH2 0x133 DUP4 LT AND PUSH1 0x4E DUP5 LT PUSH1 0xB DUP5 LT AND OR ISZERO PUSH2 0xBBC JUMPI DUP3 DUP3 EXP SWAP1 POP DUP4 DUP2 GT ISZERO PUSH2 0xBB7 JUMPI PUSH2 0xBB6 PUSH2 0xD0C JUMP JUMPDEST JUMPDEST PUSH2 0xBE6 JUMP JUMPDEST PUSH2 0xBC9 DUP5 DUP5 DUP5 PUSH1 0x1 PUSH2 0xA7C JUMP JUMPDEST SWAP3 POP SWAP1 POP DUP2 DUP5 DIV DUP2 GT ISZERO PUSH2 0xBE0 JUMPI PUSH2 0xBDF PUSH2 0xD0C JUMP JUMPDEST JUMPDEST DUP2 DUP2 MUL SWAP1 POP JUMPDEST SWAP4 SWAP3 POP POP POP JUMP JUMPDEST PUSH1 0x0 PUSH2 0xBF8 DUP3 PUSH2 0xC79 JUMP JUMPDEST SWAP2 POP PUSH2 0xC03 DUP4 PUSH2 0xC79 JUMP JUMPDEST SWAP3 POP DUP2 PUSH32 0xFFFFFFFFFFFFFFFFFFFFFFFFFFFFFFFFFFFFFFFFFFFFFFFFFFFFFFFFFFFFFFFF DIV DUP4 GT DUP3 ISZERO ISZERO AND ISZERO PUSH2 0xC3C JUMPI PUSH2 0xC3B PUSH2 0xD0C JUMP JUMPDEST JUMPDEST DUP3 DUP3 MUL SWAP1 POP SWAP3 SWAP2 POP POP JUMP JUMPDEST PUSH1 0x0 PUSH2 0xC52 DUP3 PUSH2 0xC59 JUMP JUMPDEST SWAP1 POP SWAP2 SWAP1 POP JUMP JUMPDEST PUSH1 0x0 PUSH20 0xFFFFFFFFFFFFFFFFFFFFFFFFFFFFFFFFFFFFFFFF DUP3 AND SWAP1 POP SWAP2 SWAP1 POP JUMP JUMPDEST PUSH1 0x0 DUP2 SWAP1 POP SWAP2 SWAP1 POP JUMP JUMPDEST DUP3 DUP2 DUP4 CALLDATACOPY PUSH1 0x0 DUP4 DUP4 ADD MSTORE POP POP POP JUMP JUMPDEST PUSH2 0xC9B DUP3 PUSH2 0xDDC JUMP JUMPDEST DUP2 ADD DUP2 DUP2 LT PUSH8 0xFFFFFFFFFFFFFFFF DUP3 GT OR ISZERO PUSH2 0xCBA JUMPI PUSH2 0xCB9 PUSH2 0xD99 JUMP JUMPDEST JUMPDEST DUP1 PUSH1 0x40 MSTORE POP POP POP JUMP JUMPDEST PUSH1 0x0 PUSH2 0xCCE DUP3 PUSH2 0xC79 JUMP JUMPDEST SWAP2 POP PUSH32 0xFFFFFFFFFFFFFFFFFFFFFFFFFFFFFFFFFFFFFFFFFFFFFFFFFFFFFFFFFFFFFFFF DUP3 EQ ISZERO PUSH2 0xD01 JUMPI PUSH2 0xD00 PUSH2 0xD0C JUMP JUMPDEST JUMPDEST PUSH1 0x1 DUP3 ADD SWAP1 POP SWAP2 SWAP1 POP JUMP JUMPDEST PUSH32 0x4E487B7100000000000000000000000000000000000000000000000000000000 PUSH1 0x0 MSTORE PUSH1 0x11 PUSH1 0x4 MSTORE PUSH1 0x24 PUSH1 0x0 REVERT JUMPDEST PUSH32 0x4E487B7100000000000000000000000000000000000000000000000000000000 PUSH1 0x0 MSTORE PUSH1 0x12 PUSH1 0x4 MSTORE PUSH1 0x24 PUSH1 0x0 REVERT JUMPDEST PUSH32 0x4E487B7100000000000000000000000000000000000000000000000000000000 PUSH1 0x0 MSTORE PUSH1 0x32 PUSH1 0x4 MSTORE PUSH1 0x24 PUSH1 0x0 REVERT JUMPDEST PUSH32 0x4E487B7100000000000000000000000000000000000000000000000000000000 PUSH1 0x0 MSTORE PUSH1 0x41 PUSH1 0x4 MSTORE PUSH1 0x24 PUSH1 0x0 REVERT JUMPDEST PUSH1 0x0 DUP1 REVERT JUMPDEST PUSH1 0x0 DUP1 REVERT JUMPDEST PUSH1 0x0 DUP1 REVERT JUMPDEST PUSH1 0x0 DUP1 REVERT JUMPDEST PUSH1 0x0 PUSH1 0x1F NOT PUSH1 0x1F DUP4 ADD AND SWAP1 POP SWAP2 SWAP1 POP JUMP JUMPDEST PUSH1 0x0 DUP2 PUSH1 0x1 SHR SWAP1 POP SWAP2 SWAP1 POP JUMP JUMPDEST PUSH32 0x4F776E61626C653A206E6577206F776E657220697320746865207A65726F2061 PUSH1 0x0 DUP3 ADD MSTORE PUSH32 0x6464726573730000000000000000000000000000000000000000000000000000 PUSH1 0x20 DUP3 ADD MSTORE POP JUMP JUMPDEST PUSH32 0x4F776E61626C653A2063616C6C6572206973206E6F7420746865206F776E6572 PUSH1 0x0 DUP3 ADD MSTORE POP JUMP JUMPDEST PUSH2 0xE7B DUP2 PUSH2 0xC47 JUMP JUMPDEST DUP2 EQ PUSH2 0xE86 JUMPI PUSH1 0x0 DUP1 REVERT JUMPDEST POP JUMP JUMPDEST PUSH2 0xE92 DUP2 PUSH2 0xC79 JUMP JUMPDEST DUP2 EQ PUSH2 0xE9D JUMPI PUSH1 0x0 DUP1 REVERT JUMPDEST POP JUMP INVALID LOG2 PUSH5 0x6970667358 0x22 SLT KECCAK256 MSIZE 0xB8 ISZERO 0xE6 DUP9 0xE0 MSIZE 0xBD LT MSTORE8 0x21 PUSH25 0xF265E9993E6731BE76EA0985F75668CB163FF99364736F6C63 NUMBER STOP ADDMOD MOD STOP CALLER "},"gasEstimates":{"creation":{"codeDepositCost":"759600","executionCost":"infinite","totalCost":"infinite"},"external":{"decimals()":"2475","gasPrice()":"2517","getL1Fee(bytes)":"infinite","getL1GasUsed(bytes)":"infinite","l1BaseFee()":"2474","overhead()":"2453","owner()":"2567","renounceOwnership()":"30487","scalar()":"2495","setDecimals(uint256)":"infinite","setGasPrice(uint256)":"infinite","setL1BaseFee(uint256)":"infinite","setOverhead(uint256)":"infinite","setScalar(uint256)":"infinite","transferOwnership(address)":"30791"}},"methodIdentifiers":{"decimals()":"313ce567","gasPrice()":"fe173b97","getL1Fee(bytes)":"49948e0e","getL1GasUsed(bytes)":"de26c4a1","l1BaseFee()":"519b4bd3","overhead()":"0c18c162","owner()":"8da5cb5b","renounceOwnership()":"715018a6","scalar()":"f45e65d8","setDecimals(uint256)":"8c8885c8","setGasPrice(uint256)":"bf1fe420","setL1BaseFee(uint256)":"bede39b5","setOverhead(uint256)":"3577afc5","setScalar(uint256)":"70465597","transferOwnership(address)":"f2fde38b"}},"storageLayout":{"storage":[{"astId":4890,"contract":"@chainlink/contracts/src/v0.8/vendor/@eth-optimism/contracts/v0.8.6/contracts/L2/predeploys/OVM_GasPriceOracle.sol:OVM_GasPriceOracle","label":"_owner","offset":0,"slot":"0","type":"t_address"},{"astId":1052,"contract":"@chainlink/contracts/src/v0.8/vendor/@eth-optimism/contracts/v0.8.6/contracts/L2/predeploys/OVM_GasPriceOracle.sol:OVM_GasPriceOracle","label":"gasPrice","offset":0,"slot":"1","type":"t_uint256"},{"astId":1054,"contract":"@chainlink/contracts/src/v0.8/vendor/@eth-optimism/contracts/v0.8.6/contracts/L2/predeploys/OVM_GasPriceOracle.sol:OVM_GasPriceOracle","label":"l1BaseFee","offset":0,"slot":"2","type":"t_uint256"},{"astId":1056,"contract":"@chainlink/contracts/src/v0.8/vendor/@eth-optimism/contracts/v0.8.6/contracts/L2/predeploys/OVM_GasPriceOracle.sol:OVM_GasPriceOracle","label":"overhead","offset":0,"slot":"3","type":"t_uint256"},{"astId":1058,"contract":"@chainlink/contracts/src/v0.8/vendor/@eth-optimism/contracts/v0.8.6/contracts/L2/predeploys/OVM_GasPriceOracle.sol:OVM_GasPriceOracle","label":"scalar","offset":0,"slot":"4","type":"t_uint256"},{"astId":1060,"contract":"@chainlink/contracts/src/v0.8/vendor/@eth-optimism/contracts/v0.8.6/contracts/L2/predeploys/OVM_GasPriceOracle.sol:OVM_GasPriceOracle","label":"decimals","offset":0,"slot":"5","type":"t_uint256"}],"types":{"t_address":{"encoding":"inplace","label":"address","numberOfBytes":"20"},"t_uint256":{"encoding":"inplace","label":"uint256","numberOfBytes":"32"}}},"userdoc":{"kind":"user","methods":{"getL1Fee(bytes)":{"notice":"Computes the L1 portion of the fee based on the size of the RLP encoded tx and the current l1BaseFee"},"getL1GasUsed(bytes)":{"notice":"Computes the amount of L1 gas used for a transaction The overhead represents the per batch gas overhead of posting both transaction and state roots to L1 given larger batch sizes. 4 gas for 0 byte https://github.com/ethereum/go-ethereum/blob/9ada4a2e2c415e6b0b51c50e901336872e028872/params/protocol_params.go#L33 16 gas for non zero byte https://github.com/ethereum/go-ethereum/blob/9ada4a2e2c415e6b0b51c50e901336872e028872/params/protocol_params.go#L87 This will need to be updated if calldata gas prices change Account for the transaction being unsigned Padding is added to account for lack of signature on transaction 1 byte for RLP V prefix 1 byte for V 1 byte for RLP R prefix 32 bytes for R 1 byte for RLP S prefix 32 bytes for S Total: 68 bytes of padding"},"setDecimals(uint256)":{"notice":"Allows the owner to modify the decimals."},"setGasPrice(uint256)":{"notice":"Allows the owner to modify the l2 gas price."},"setL1BaseFee(uint256)":{"notice":"Allows the owner to modify the l1 base fee."},"setOverhead(uint256)":{"notice":"Allows the owner to modify the overhead."},"setScalar(uint256)":{"notice":"Allows the owner to modify the scalar."}},"version":1}}}}