{
  "_format": "hh-sol-artifact-1",
  "contractName": "Raffle",
  "sourceName": "contracts/Raffle.sol",
  "abi": [
    {
      "inputs": [
        {
          "internalType": "address",
          "name": "VRFCoordinatorV2",
          "type": "address"
        },
        {
          "internalType": "uint256",
          "name": "entranceFee",
          "type": "uint256"
        },
        {
          "internalType": "bytes32",
          "name": "gasLane",
          "type": "bytes32"
        },
        {
          "internalType": "uint64",
          "name": "subscriptionId",
          "type": "uint64"
        },
        {
          "internalType": "uint32",
          "name": "callbackGasLimit",
          "type": "uint32"
        },
        {
          "internalType": "uint256",
          "name": "interval",
          "type": "uint256"
        }
      ],
      "stateMutability": "nonpayable",
      "type": "constructor"
    },
    {
      "inputs": [
        {
          "internalType": "address",
          "name": "have",
          "type": "address"
        },
        {
          "internalType": "address",
          "name": "want",
          "type": "address"
        }
      ],
      "name": "OnlyCoordinatorCanFulfill",
      "type": "error"
    },
    {
      "inputs": [],
      "name": "Raffle__NotEnoughETHEntered",
      "type": "error"
    },
    {
      "inputs": [],
      "name": "Raffle__NotOpen",
      "type": "error"
    },
    {
      "inputs": [],
      "name": "Raffle__TransferFailed",
      "type": "error"
    },
    {
      "inputs": [
        {
          "internalType": "uint256",
          "name": "currentBalance",
          "type": "uint256"
        },
        {
          "internalType": "uint256",
          "name": "numPlayers",
          "type": "uint256"
        },
        {
          "internalType": "uint256",
          "name": "raffleState",
          "type": "uint256"
        }
      ],
      "name": "Raffle__UpkeepNotNeeded",
      "type": "error"
    },
    {
      "anonymous": false,
      "inputs": [
        {
          "indexed": true,
          "internalType": "address",
          "name": "player",
          "type": "address"
        }
      ],
      "name": "RaffleEntered",
      "type": "event"
    },
    {
      "anonymous": false,
      "inputs": [
        {
          "indexed": true,
          "internalType": "uint256",
          "name": "requestId",
          "type": "uint256"
        }
      ],
      "name": "RequestedRaffleWinner",
      "type": "event"
    },
    {
      "anonymous": false,
      "inputs": [
        {
          "indexed": true,
          "internalType": "address",
          "name": "winner",
          "type": "address"
        }
      ],
      "name": "WinnerPicked",
      "type": "event"
    },
    {
      "inputs": [
        {
          "internalType": "bytes",
          "name": "",
          "type": "bytes"
        }
      ],
      "name": "checkUpkeep",
      "outputs": [
        {
          "internalType": "bool",
          "name": "upkeepNeeded",
          "type": "bool"
        },
        {
          "internalType": "bytes",
          "name": "",
          "type": "bytes"
        }
      ],
      "stateMutability": "nonpayable",
      "type": "function"
    },
    {
      "inputs": [],
      "name": "enterRaffle",
      "outputs": [],
      "stateMutability": "payable",
      "type": "function"
    },
    {
      "inputs": [],
      "name": "getEntranceFee",
      "outputs": [
        {
          "internalType": "uint256",
          "name": "",
          "type": "uint256"
        }
      ],
      "stateMutability": "view",
      "type": "function"
    },
    {
      "inputs": [],
      "name": "getInterval",
      "outputs": [
        {
          "internalType": "uint256",
          "name": "",
          "type": "uint256"
        }
      ],
      "stateMutability": "view",
      "type": "function"
    },
    {
      "inputs": [],
      "name": "getLatestTimeStamp",
      "outputs": [
        {
          "internalType": "uint256",
          "name": "",
          "type": "uint256"
        }
      ],
      "stateMutability": "view",
      "type": "function"
    },
    {
      "inputs": [],
      "name": "getNumPlayers",
      "outputs": [
        {
          "internalType": "uint256",
          "name": "",
          "type": "uint256"
        }
      ],
      "stateMutability": "view",
      "type": "function"
    },
    {
      "inputs": [],
      "name": "getNumWords",
      "outputs": [
        {
          "internalType": "uint256",
          "name": "",
          "type": "uint256"
        }
      ],
      "stateMutability": "pure",
      "type": "function"
    },
    {
      "inputs": [
        {
          "internalType": "uint256",
          "name": "index",
          "type": "uint256"
        }
      ],
      "name": "getPlayer",
      "outputs": [
        {
          "internalType": "address",
          "name": "",
          "type": "address"
        }
      ],
      "stateMutability": "view",
      "type": "function"
    },
    {
      "inputs": [],
      "name": "getRaffleState",
      "outputs": [
        {
          "internalType": "enum Raffle.RaffleState",
          "name": "",
          "type": "uint8"
        }
      ],
      "stateMutability": "view",
      "type": "function"
    },
    {
      "inputs": [],
      "name": "getRecentWinner",
      "outputs": [
        {
          "internalType": "address",
          "name": "",
          "type": "address"
        }
      ],
      "stateMutability": "view",
      "type": "function"
    },
    {
      "inputs": [],
      "name": "getRequestConfirmations",
      "outputs": [
        {
          "internalType": "uint256",
          "name": "",
          "type": "uint256"
        }
      ],
      "stateMutability": "pure",
      "type": "function"
    },
    {
      "inputs": [
        {
          "internalType": "bytes",
          "name": "",
          "type": "bytes"
        }
      ],
      "name": "performUpkeep",
      "outputs": [],
      "stateMutability": "nonpayable",
      "type": "function"
    },
    {
      "inputs": [
        {
          "internalType": "uint256",
          "name": "requestId",
          "type": "uint256"
        },
        {
          "internalType": "uint256[]",
          "name": "randomWords",
          "type": "uint256[]"
        }
      ],
      "name": "rawFulfillRandomWords",
      "outputs": [],
      "stateMutability": "nonpayable",
      "type": "function"
    }
  ],
  "bytecode": "0x6101606040523480156200001257600080fd5b506040516200201b3803806200201b8339818101604052810190620000389190620002ac565b858073ffffffffffffffffffffffffffffffffffffffff1660808173ffffffffffffffffffffffffffffffffffffffff1660601b81525050506200008d67515987b52d27b41c60c01b6200023660201b60201c565b620000a9673eeb44a683592f3f60c01b6200023660201b60201c565b8573ffffffffffffffffffffffffffffffffffffffff1660c08173ffffffffffffffffffffffffffffffffffffffff1660601b81525050620000fc67c47ab4cde4592bf260c01b6200023660201b60201c565b8360e081815250506200012067d14840fbc767eef460c01b6200023660201b60201c565b8267ffffffffffffffff166101008167ffffffffffffffff1660c01b815250506200015c6736db9ec10c1ebd9860c01b6200023660201b60201c565b8460a081815250506200018067204f60a5aa36ce1260c01b6200023660201b60201c565b8163ffffffff166101208163ffffffff1660e01b81525050620001b467235aedf153c25ff260c01b6200023660201b60201c565b6000600160146101000a81548160ff02191690836001811115620001dd57620001dc620003b4565b5b0217905550620001fe6702e9c6d7cb4d31bb60c01b6200023660201b60201c565b42600281905550620002216735e707d74503c2e760c01b6200023660201b60201c565b8061014081815250505050505050506200046a565b50565b6000815190506200024a81620003e8565b92915050565b600081519050620002618162000402565b92915050565b60008151905062000278816200041c565b92915050565b6000815190506200028f8162000436565b92915050565b600081519050620002a68162000450565b92915050565b60008060008060008060c08789031215620002cc57620002cb620003e3565b5b6000620002dc89828a0162000239565b9650506020620002ef89828a0162000267565b95505060406200030289828a0162000250565b94505060606200031589828a0162000295565b93505060806200032889828a016200027e565b92505060a06200033b89828a0162000267565b9150509295509295509295565b6000620003558262000366565b9050919050565b6000819050919050565b600073ffffffffffffffffffffffffffffffffffffffff82169050919050565b6000819050919050565b600063ffffffff82169050919050565b600067ffffffffffffffff82169050919050565b7f4e487b7100000000000000000000000000000000000000000000000000000000600052602160045260246000fd5b600080fd5b620003f38162000348565b8114620003ff57600080fd5b50565b6200040d816200035c565b81146200041957600080fd5b50565b620004278162000386565b81146200043357600080fd5b50565b620004418162000390565b81146200044d57600080fd5b50565b6200045b81620003a0565b81146200046757600080fd5b50565b60805160601c60a05160c05160601c60e0516101005160c01c6101205160e01c61014051611b35620004e660003960008181610c3a0152610dab015260006109600152600061093d0152600061091c015260006108e001526000818161033601526104ab0152600081816103af01526104030152611b356000f3fe6080604052600436106100c25760003560e01c8063473f1ddc1161007f5780635f1b0fd8116100595780635f1b0fd8146102255780636e04ff0d1461025057806391ad27b41461028e578063e55ae4e8146102b9576100c2565b8063473f1ddc146101a457806353a2c19a146101cf57806355c9e926146101fa576100c2565b806309bc33a7146100c7578063115cbaf5146100f25780631fe543e31461011d5780632cfcc53914610146578063320229eb146101505780634585e33b1461017b575b600080fd5b3480156100d357600080fd5b506100dc6102f6565b6040516100e9919061173b565b60405180910390f35b3480156100fe57600080fd5b5061010761035a565b6040516101149190611720565b60405180910390f35b34801561012957600080fd5b50610144600480360381019061013f9190611514565b6103ad565b005b61014e61046d565b005b34801561015c57600080fd5b50610165610707565b604051610172919061173b565b60405180910390f35b34801561018757600080fd5b506101a2600480360381019061019d9190611424565b61074d565b005b3480156101b057600080fd5b506101b9610a50565b6040516101c69190611659565b60405180910390f35b3480156101db57600080fd5b506101e4610ab6565b6040516101f1919061173b565b60405180910390f35b34801561020657600080fd5b5061020f610b01565b60405161021c919061173b565b60405180910390f35b34801561023157600080fd5b5061023a610b4a565b604051610247919061173b565b60405180910390f35b34801561025c57600080fd5b5061027760048036038101906102729190611471565b610b93565b60405161028592919061169d565b60405180910390f35b34801561029a57600080fd5b506102a3610d6b565b6040516102b0919061173b565b60405180910390f35b3480156102c557600080fd5b506102e060048036038101906102db91906114ba565b610dcf565b6040516102ed9190611659565b60405180910390f35b600061030c672debd72b0bfc217660c01b610e53565b61032067eb84007d27edc94560c01b610e53565b61033467b0a65511d5dce16160c01b610e53565b7f0000000000000000000000000000000000000000000000000000000000000000905090565b600061037067522cb000a2a01da960c01b610e53565b6103846757f25907d88a469360c01b610e53565b610398678ef456aec2533da760c01b610e53565b600160149054906101000a900460ff16905090565b7f000000000000000000000000000000000000000000000000000000000000000073ffffffffffffffffffffffffffffffffffffffff163373ffffffffffffffffffffffffffffffffffffffff161461045f57337f00000000000000000000000000000000000000000000000000000000000000006040517f1cf993f4000000000000000000000000000000000000000000000000000000008152600401610456929190611674565b60405180910390fd5b6104698282610e56565b5050565b61048167b04783fe26ce6dad60c01b610e53565b6104956716c98f0f5aa74d6260c01b610e53565b6104a967bebf02af941c0fc160c01b610e53565b7f000000000000000000000000000000000000000000000000000000000000000034101561052b576104e5672668830999e350df60c01b610e53565b6104f967177f6b840381752960c01b610e53565b6040517fbd4e069500000000000000000000000000000000000000000000000000000000815260040160405180910390fd5b61053f6745f2cc60a42ee4e060c01b610e53565b610553672e82cdfa988e08d660c01b610e53565b61056666ef89bb0bdb084d60c01b610e53565b6000600181111561057a57610579611a15565b5b600160149054906101000a900460ff16600181111561059c5761059b611a15565b5b146105fb576105b5672618faa0b87eeaca60c01b610e53565b6105c967da8e88c606d8cdcc60c01b610e53565b6040517f1425571c00000000000000000000000000000000000000000000000000000000815260040160405180910390fd5b61060f6762f98ea834471f0a60c01b610e53565b6106236728095e2fa3c0729160c01b610e53565b610637671702487b35e08e7760c01b610e53565b6000339080600181540180825580915050600190039060005260206000200160009091909190916101000a81548173ffffffffffffffffffffffffffffffffffffffff021916908373ffffffffffffffffffffffffffffffffffffffff1602179055506106ae674364c3b1d03e971360c01b610e53565b6106c2678ca8784aa265782d60c01b610e53565b3373ffffffffffffffffffffffffffffffffffffffff167f634f3211e3a4e43fee5a21ad9f87ca153b300fc78b1c557a2057dbe9c63bcb4760405160405180910390a2565b600061071d671a29696af613603e60c01b610e53565b610731670461435d4cf3448560c01b610e53565b610745671a10889b6bd15fe260c01b610e53565b600254905090565b6107616747ffb1338e6a1e4f60c01b610e53565b6107756707c5bdb026ad124360c01b610e53565b6107896779d70d0cd1efd7b860c01b610e53565b60006107a360405180602001604052806000815250610b93565b5090506107ba67327c0aa2245506ef60c01b610e53565b6107ce670d30a19b8ab5c78c60c01b610e53565b80610862576107e767d4d033f0e311036160c01b610e53565b6107fb67652d9dae5082ad2260c01b610e53565b47600080549050600160149054906101000a900460ff16600181111561082457610823611a15565b5b6040517f584327aa00000000000000000000000000000000000000000000000000000000815260040161085993929190611756565b60405180910390fd5b610876677c45a28b37cfd0af60c01b610e53565b61088a6778318520d082198b60c01b610e53565b60018060146101000a81548160ff021916908360018111156108af576108ae611a15565b5b02179055506108c867586695431c92b86260c01b610e53565b6108dc679bed229c0a888ffe60c01b610e53565b60007f000000000000000000000000000000000000000000000000000000000000000073ffffffffffffffffffffffffffffffffffffffff16635d3b1d307f00000000000000000000000000000000000000000000000000000000000000007f000000000000000000000000000000000000000000000000000000000000000060037f000000000000000000000000000000000000000000000000000000000000000060016040518663ffffffff1660e01b81526004016109a19594939291906116cd565b602060405180830381600087803b1580156109bb57600080fd5b505af11580156109cf573d6000803e3d6000fd5b505050506040513d601f19601f820116820180604052508101906109f391906114e7565b9050610a096782c21b2ade3172d660c01b610e53565b610a1d676698c3f61199a32a60c01b610e53565b807fcd6e45c8998311cab7e9d4385596cac867e20a0587194b954fa3a731c93ce78b60405160405180910390a250505050565b6000610a66675c43d0f891ef819660c01b610e53565b610a7a67f8c30f0e8ae212a160c01b610e53565b610a8e678dad55613f34326460c01b610e53565b600160009054906101000a900473ffffffffffffffffffffffffffffffffffffffff16905090565b6000610acc67ddd1761cad80174460c01b610e53565b610ae06746f4ecce0007781e60c01b610e53565b610af467ba6904dbfeb21f4860c01b610e53565b600163ffffffff16905090565b6000610b176793cd31bc22921b9960c01b610e53565b610b2b675d7c11d79d9a3ef360c01b610e53565b610b3f678d8d116e8d7954e560c01b610e53565b600080549050905090565b6000610b606715b413ff0dc9245160c01b610e53565b610b74678977ebc3706b057e60c01b610e53565b610b8867f173acf738f1472260c01b610e53565b600361ffff16905090565b60006060610bab6707b5dcd0dc6a0da960c01b610e53565b610bbf67713c4dbd0cda4cda60c01b610e53565b610bd367f962178f953a965d60c01b610e53565b6000600160149054906101000a900460ff166001811115610bf757610bf6611a15565b5b60006001811115610c0b57610c0a611a15565b5b149050610c2267e5d3c5e8363660c460c01b610e53565b610c36673a3a37bf690dce7360c01b610e53565b60007f000000000000000000000000000000000000000000000000000000000000000060025442610c679190611836565b119050610c7e6707ce1138d1c68fb760c01b610e53565b610c9267388a8b1e9ae8684960c01b610e53565b600080600080549050119050610cb2675efb6f8f22ee7f6b60c01b610e53565b610cc6673de8654fe5f50bba60c01b610e53565b60008047119050610ce167e7022724745efc3e60c01b610e53565b838015610ceb5750825b8015610cf45750815b8015610cfd5750805b9550610d1367ee749e411cbe376860c01b610e53565b610d276743d840e98b32eeb160c01b610e53565b856040518060400160405280600381526020017f30783000000000000000000000000000000000000000000000000000000000008152509550955050505050915091565b6000610d81672d87ca4181aeb0b760c01b610e53565b610d95678d8d8a8ac6c79b7460c01b610e53565b610da967d5aec6bb385422fc60c01b610e53565b7f0000000000000000000000000000000000000000000000000000000000000000905090565b6000610de567cc35b4c42297c4d660c01b610e53565b610df967190b6aa0c9d7487b60c01b610e53565b610e0d679b902bc637a2cd2e60c01b610e53565b60008281548110610e2157610e20611a44565b5b9060005260206000200160009054906101000a900473ffffffffffffffffffffffffffffffffffffffff169050919050565b50565b610e6a67c7e9ee7db0d360cf60c01b610e53565b610e7e67ca52832f16af47b960c01b610e53565b610e9267113eb6247461fdce60c01b610e53565b6000808054905082600081518110610ead57610eac611a44565b5b6020026020010151610ebf9190611986565b9050610ed567ac2ac29e5fbc7e4e60c01b610e53565b610ee9678759c6dbe3ef31c960c01b610e53565b6000808281548110610efe57610efd611a44565b5b9060005260206000200160009054906101000a900473ffffffffffffffffffffffffffffffffffffffff169050610f3f673a72cd865a5d6cbb60c01b610e53565b80600160006101000a81548173ffffffffffffffffffffffffffffffffffffffff021916908373ffffffffffffffffffffffffffffffffffffffff160217905550610f94673095eefacda98f8460c01b610e53565b600067ffffffffffffffff811115610faf57610fae611a73565b5b604051908082528060200260200182016040528015610fdd5781602001602082028036833780820191505090505b5060009080519060200190610ff39291906111ef565b5061100867f85c41ed0b8bcff260c01b610e53565b6000600160146101000a81548160ff0219169083600181111561102e5761102d611a15565b5b02179055506110476702a1d00548bcfa8c60c01b610e53565b42600281905550611062674e006aeef047c17260c01b610e53565b611076671a92994f686da9a960c01b610e53565b60008173ffffffffffffffffffffffffffffffffffffffff164760405161109c90611644565b60006040518083038185875af1925050503d80600081146110d9576040519150601f19603f3d011682016040523d82523d6000602084013e6110de565b606091505b505090506110f6679c1bab58d8f0accf60c01b610e53565b61110a67f0eab4ede4b7668f60c01b610e53565b806111695761112367f7cf4e280f56320660c01b610e53565b61113767c878e1202fa57f7460c01b610e53565b6040517fa1d04b3900000000000000000000000000000000000000000000000000000000815260040160405180910390fd5b61117d675279acdf759dcd2a60c01b610e53565b61119167457e250a6953d61960c01b610e53565b6111a56751ac55381f22e62f60c01b610e53565b8173ffffffffffffffffffffffffffffffffffffffff167f5b690ec4a06fe979403046eaeea5b3ce38524683c3001f662c8b5a829632f7df60405160405180910390a25050505050565b828054828255906000526020600020908101928215611268579160200282015b828111156112675782518260006101000a81548173ffffffffffffffffffffffffffffffffffffffff021916908373ffffffffffffffffffffffffffffffffffffffff1602179055509160200191906001019061120f565b5b5090506112759190611279565b5090565b5b8082111561129257600081600090555060010161127a565b5090565b60006112a96112a4846117b2565b61178d565b905080838252602082019050828560208602820111156112cc576112cb611aac565b5b60005b858110156112fc57816112e288826113fa565b8452602084019350602083019250506001810190506112cf565b5050509392505050565b6000611319611314846117de565b61178d565b90508281526020810184848401111561133557611334611ab1565b5b611340848285611913565b509392505050565b600082601f83011261135d5761135c611aa7565b5b813561136d848260208601611296565b91505092915050565b60008083601f84011261138c5761138b611aa7565b5b8235905067ffffffffffffffff8111156113a9576113a8611aa2565b5b6020830191508360018202830111156113c5576113c4611aac565b5b9250929050565b600082601f8301126113e1576113e0611aa7565b5b81356113f1848260208601611306565b91505092915050565b60008135905061140981611ae8565b92915050565b60008151905061141e81611ae8565b92915050565b6000806020838503121561143b5761143a611abb565b5b600083013567ffffffffffffffff81111561145957611458611ab6565b5b61146585828601611376565b92509250509250929050565b60006020828403121561148757611486611abb565b5b600082013567ffffffffffffffff8111156114a5576114a4611ab6565b5b6114b1848285016113cc565b91505092915050565b6000602082840312156114d0576114cf611abb565b5b60006114de848285016113fa565b91505092915050565b6000602082840312156114fd576114fc611abb565b5b600061150b8482850161140f565b91505092915050565b6000806040838503121561152b5761152a611abb565b5b6000611539858286016113fa565b925050602083013567ffffffffffffffff81111561155a57611559611ab6565b5b61156685828601611348565b9150509250929050565b6115798161186a565b82525050565b6115888161187c565b82525050565b61159781611888565b82525050565b60006115a88261180f565b6115b2818561181a565b93506115c2818560208601611922565b6115cb81611ac0565b840191505092915050565b6115df81611901565b82525050565b60006115f260008361182b565b91506115fd82611ad1565b600082019050919050565b611611816118a5565b82525050565b611620816118d3565b82525050565b61162f816118dd565b82525050565b61163e816118ed565b82525050565b600061164f826115e5565b9150819050919050565b600060208201905061166e6000830184611570565b92915050565b60006040820190506116896000830185611570565b6116966020830184611570565b9392505050565b60006040820190506116b2600083018561157f565b81810360208301526116c4818461159d565b90509392505050565b600060a0820190506116e2600083018861158e565b6116ef6020830187611635565b6116fc6040830186611608565b6117096060830185611626565b6117166080830184611626565b9695505050505050565b600060208201905061173560008301846115d6565b92915050565b60006020820190506117506000830184611617565b92915050565b600060608201905061176b6000830186611617565b6117786020830185611617565b6117856040830184611617565b949350505050565b60006117976117a8565b90506117a38282611955565b919050565b6000604051905090565b600067ffffffffffffffff8211156117cd576117cc611a73565b5b602082029050602081019050919050565b600067ffffffffffffffff8211156117f9576117f8611a73565b5b61180282611ac0565b9050602081019050919050565b600081519050919050565b600082825260208201905092915050565b600081905092915050565b6000611841826118d3565b915061184c836118d3565b92508282101561185f5761185e6119b7565b5b828203905092915050565b6000611875826118b3565b9050919050565b60008115159050919050565b6000819050919050565b60008190506118a082611ad4565b919050565b600061ffff82169050919050565b600073ffffffffffffffffffffffffffffffffffffffff82169050919050565b6000819050919050565b600063ffffffff82169050919050565b600067ffffffffffffffff82169050919050565b600061190c82611892565b9050919050565b82818337600083830152505050565b60005b83811015611940578082015181840152602081019050611925565b8381111561194f576000848401525b50505050565b61195e82611ac0565b810181811067ffffffffffffffff8211171561197d5761197c611a73565b5b80604052505050565b6000611991826118d3565b915061199c836118d3565b9250826119ac576119ab6119e6565b5b828206905092915050565b7f4e487b7100000000000000000000000000000000000000000000000000000000600052601160045260246000fd5b7f4e487b7100000000000000000000000000000000000000000000000000000000600052601260045260246000fd5b7f4e487b7100000000000000000000000000000000000000000000000000000000600052602160045260246000fd5b7f4e487b7100000000000000000000000000000000000000000000000000000000600052603260045260246000fd5b7f4e487b7100000000000000000000000000000000000000000000000000000000600052604160045260246000fd5b600080fd5b600080fd5b600080fd5b600080fd5b600080fd5b600080fd5b6000601f19601f8301169050919050565b50565b60028110611ae557611ae4611a15565b5b50565b611af1816118d3565b8114611afc57600080fd5b5056fea264697066735822122024e5127f93707bcc320e328514c48220f0501501674ac1997748b3ec7538840064736f6c63430008060033",
  "linkReferences": {},
  "deployedLinkReferences": {}
}