{
  "_format": "hh-sol-artifact-1",
  "contractName": "Raffle",
  "sourceName": "contracts/Raffle.sol",
  "abi": [
    {
      "inputs": [
        {
          "internalType": "address",
          "name": "VRFCoordinatorV2",
          "type": "address"
        },
        {
          "internalType": "uint256",
          "name": "entranceFee",
          "type": "uint256"
        },
        {
          "internalType": "bytes32",
          "name": "gasLane",
          "type": "bytes32"
        },
        {
          "internalType": "uint64",
          "name": "subscriptionId",
          "type": "uint64"
        },
        {
          "internalType": "uint32",
          "name": "callbackGasLimit",
          "type": "uint32"
        },
        {
          "internalType": "uint256",
          "name": "interval",
          "type": "uint256"
        }
      ],
      "stateMutability": "nonpayable",
      "type": "constructor"
    },
    {
      "inputs": [
        {
          "internalType": "address",
          "name": "have",
          "type": "address"
        },
        {
          "internalType": "address",
          "name": "want",
          "type": "address"
        }
      ],
      "name": "OnlyCoordinatorCanFulfill",
      "type": "error"
    },
    {
      "inputs": [],
      "name": "Raffle__NotEnoughETHEntered",
      "type": "error"
    },
    {
      "inputs": [],
      "name": "Raffle__NotOpen",
      "type": "error"
    },
    {
      "inputs": [],
      "name": "Raffle__TransferFailed",
      "type": "error"
    },
    {
      "inputs": [
        {
          "internalType": "uint256",
          "name": "currentBalance",
          "type": "uint256"
        },
        {
          "internalType": "uint256",
          "name": "numPlayers",
          "type": "uint256"
        },
        {
          "internalType": "uint256",
          "name": "raffleState",
          "type": "uint256"
        }
      ],
      "name": "Raffle__UpkeepNotNeeded",
      "type": "error"
    },
    {
      "anonymous": false,
      "inputs": [
        {
          "indexed": true,
          "internalType": "address",
          "name": "player",
          "type": "address"
        }
      ],
      "name": "RaffleEntered",
      "type": "event"
    },
    {
      "anonymous": false,
      "inputs": [
        {
          "indexed": true,
          "internalType": "uint256",
          "name": "requestId",
          "type": "uint256"
        }
      ],
      "name": "RequestedRaffleWinner",
      "type": "event"
    },
    {
      "anonymous": false,
      "inputs": [
        {
          "indexed": true,
          "internalType": "address",
          "name": "winner",
          "type": "address"
        }
      ],
      "name": "WinnerPicked",
      "type": "event"
    },
    {
      "inputs": [
        {
          "internalType": "bytes",
          "name": "",
          "type": "bytes"
        }
      ],
      "name": "checkUpkeep",
      "outputs": [
        {
          "internalType": "bool",
          "name": "upkeepNeeded",
          "type": "bool"
        },
        {
          "internalType": "bytes",
          "name": "",
          "type": "bytes"
        }
      ],
      "stateMutability": "nonpayable",
      "type": "function"
    },
    {
      "inputs": [],
      "name": "enterRaffle",
      "outputs": [],
      "stateMutability": "payable",
      "type": "function"
    },
    {
      "inputs": [],
      "name": "getEntranceFee",
      "outputs": [
        {
          "internalType": "uint256",
          "name": "",
          "type": "uint256"
        }
      ],
      "stateMutability": "view",
      "type": "function"
    },
    {
      "inputs": [],
      "name": "getInterval",
      "outputs": [
        {
          "internalType": "uint256",
          "name": "",
          "type": "uint256"
        }
      ],
      "stateMutability": "view",
      "type": "function"
    },
    {
      "inputs": [],
      "name": "getLatestTimeStamp",
      "outputs": [
        {
          "internalType": "uint256",
          "name": "",
          "type": "uint256"
        }
      ],
      "stateMutability": "view",
      "type": "function"
    },
    {
      "inputs": [],
      "name": "getNumPlayers",
      "outputs": [
        {
          "internalType": "uint256",
          "name": "",
          "type": "uint256"
        }
      ],
      "stateMutability": "view",
      "type": "function"
    },
    {
      "inputs": [],
      "name": "getNumWords",
      "outputs": [
        {
          "internalType": "uint256",
          "name": "",
          "type": "uint256"
        }
      ],
      "stateMutability": "pure",
      "type": "function"
    },
    {
      "inputs": [
        {
          "internalType": "uint256",
          "name": "index",
          "type": "uint256"
        }
      ],
      "name": "getPlayer",
      "outputs": [
        {
          "internalType": "address",
          "name": "",
          "type": "address"
        }
      ],
      "stateMutability": "view",
      "type": "function"
    },
    {
      "inputs": [],
      "name": "getRaffleState",
      "outputs": [
        {
          "internalType": "enum Raffle.RaffleState",
          "name": "",
          "type": "uint8"
        }
      ],
      "stateMutability": "view",
      "type": "function"
    },
    {
      "inputs": [],
      "name": "getRecentWinner",
      "outputs": [
        {
          "internalType": "address",
          "name": "",
          "type": "address"
        }
      ],
      "stateMutability": "view",
      "type": "function"
    },
    {
      "inputs": [],
      "name": "getRequestConfirmations",
      "outputs": [
        {
          "internalType": "uint256",
          "name": "",
          "type": "uint256"
        }
      ],
      "stateMutability": "pure",
      "type": "function"
    },
    {
      "inputs": [
        {
          "internalType": "bytes",
          "name": "",
          "type": "bytes"
        }
      ],
      "name": "performUpkeep",
      "outputs": [],
      "stateMutability": "nonpayable",
      "type": "function"
    },
    {
      "inputs": [
        {
          "internalType": "uint256",
          "name": "requestId",
          "type": "uint256"
        },
        {
          "internalType": "uint256[]",
          "name": "randomWords",
          "type": "uint256[]"
        }
      ],
      "name": "rawFulfillRandomWords",
      "outputs": [],
      "stateMutability": "nonpayable",
      "type": "function"
    }
  ],
  "bytecode": "0x6101606040523480156200001257600080fd5b5060405162002b9438038062002b94833981810160405281019062000038919062000524565b858073ffffffffffffffffffffffffffffffffffffffff1660808173ffffffffffffffffffffffffffffffffffffffff1660601b8152505050620000a57f8aa94b092e46410f4c6dba58c28cf7ea843d81fe3504563ca8139eed5172ec1c60001b620004ae60201b60201c565b620000d97f576399a0b4a8ea0a11de7af07b0049ebe00740034dba6853662753ff1118d5dd60001b620004ae60201b60201c565b6200010d7f9a2c9450ef4935f54547e647118188fbf547bdfb73a0f1a888b3d291bb542f4960001b620004ae60201b60201c565b8573ffffffffffffffffffffffffffffffffffffffff1660c08173ffffffffffffffffffffffffffffffffffffffff1660601b81525050620001787ffaf5de0e6ba556a2cca2f2dd393a93766ae21af37dd2d3b8306315bd2508854860001b620004ae60201b60201c565b620001ac7f272e4731ffb0a0dd6871c4c1b10029179e1a935e3d0608541a138ea45a4c819060001b620004ae60201b60201c565b8360e08181525050620001e87f722285083557e8f20e769de60408f6690852afd00772b9f26a964cc3ce69c38460001b620004ae60201b60201c565b6200021c7f9cd5bee84d293b7e9bb0f09c404aef00d501fe46dc11aa030fe3e21ed5b2ea6b60001b620004ae60201b60201c565b8267ffffffffffffffff166101008167ffffffffffffffff1660c01b81525050620002707f5363530452f441e217c543576b12ae9afadc6caf824b32b085ef32ff7a3485a660001b620004ae60201b60201c565b620002a47fc8bad2b254a38569796e162adf6e897d8cc754c43586fe2dc4888819c2f608e260001b620004ae60201b60201c565b8460a08181525050620002e07f83d31176704777b55a3af667107fe1b5fb9a5b8d3eb5f6f72c434504f89c2ae360001b620004ae60201b60201c565b620003147f78825c9fdde002e1c4145c8c2a6c8bb031ce6ec903f3877db0c31123aac2a4aa60001b620004ae60201b60201c565b8163ffffffff166101208163ffffffff1660e01b81525050620003607f1099c63f8d7fef43f7053a2ceaa5835f65c945798a8fd0d3eaac9232afd35e5f60001b620004ae60201b60201c565b620003947ff4c599c81fc8e33793427165eaea157a4267396811e5da09e2a429529980f06260001b620004ae60201b60201c565b6000600160146101000a81548160ff02191690836001811115620003bd57620003bc6200062c565b5b0217905550620003f67fa10de132dfd708fca03037a6da123f734338bd7f897b1c57c61aabfb9218473960001b620004ae60201b60201c565b6200042a7f7864c034aa260cae68ba77b9e8f38f39310567b2add7b7056e2ff4e36038a3d660001b620004ae60201b60201c565b42600281905550620004657f778e839a36b28b55b3337ad164f10643bab4205416ebabec16a0fb31693bf2cb60001b620004ae60201b60201c565b620004997f804604dcbf89a8c2bd5b114fa794cefd293c00b2a9c514610e5c0b7b069e185260001b620004ae60201b60201c565b806101408181525050505050505050620006e2565b50565b600081519050620004c28162000660565b92915050565b600081519050620004d9816200067a565b92915050565b600081519050620004f08162000694565b92915050565b6000815190506200050781620006ae565b92915050565b6000815190506200051e81620006c8565b92915050565b60008060008060008060c087890312156200054457620005436200065b565b5b60006200055489828a01620004b1565b96505060206200056789828a01620004df565b95505060406200057a89828a01620004c8565b94505060606200058d89828a016200050d565b9350506080620005a089828a01620004f6565b92505060a0620005b389828a01620004df565b9150509295509295509295565b6000620005cd82620005de565b9050919050565b6000819050919050565b600073ffffffffffffffffffffffffffffffffffffffff82169050919050565b6000819050919050565b600063ffffffff82169050919050565b600067ffffffffffffffff82169050919050565b7f4e487b7100000000000000000000000000000000000000000000000000000000600052602160045260246000fd5b600080fd5b6200066b81620005c0565b81146200067757600080fd5b50565b6200068581620005d4565b81146200069157600080fd5b50565b6200069f81620005fe565b8114620006ab57600080fd5b50565b620006b98162000608565b8114620006c557600080fd5b50565b620006d38162000618565b8114620006df57600080fd5b50565b60805160601c60a05160c05160601c60e0516101005160c01c6101205160e01c610140516124366200075e60003960008181611177015261140401526000610cd501526000610cb201526000610c9101526000610c5501526000818161037e015261058301526000818161043f015261049301526124366000f3fe6080604052600436106100c25760003560e01c8063473f1ddc1161007f5780635f1b0fd8116100595780635f1b0fd8146102255780636e04ff0d1461025057806391ad27b41461028e578063e55ae4e8146102b9576100c2565b8063473f1ddc146101a457806353a2c19a146101cf57806355c9e926146101fa576100c2565b806309bc33a7146100c7578063115cbaf5146100f25780631fe543e31461011d5780632cfcc53914610146578063320229eb146101505780634585e33b1461017b575b600080fd5b3480156100d357600080fd5b506100dc6102f6565b6040516100e9919061203c565b60405180910390f35b3480156100fe57600080fd5b506101076103a2565b6040516101149190612021565b60405180910390f35b34801561012957600080fd5b50610144600480360381019061013f9190611e15565b61043d565b005b61014e6104fd565b005b34801561015c57600080fd5b50610165610900565b604051610172919061203c565b60405180910390f35b34801561018757600080fd5b506101a2600480360381019061019d9190611d25565b61098e565b005b3480156101b057600080fd5b506101b9610df5565b6040516101c69190611f5a565b60405180910390f35b3480156101db57600080fd5b506101e4610ea3565b6040516101f1919061203c565b60405180910390f35b34801561020657600080fd5b5061020f610f36565b60405161021c919061203c565b60405180910390f35b34801561023157600080fd5b5061023a610fc7565b604051610247919061203c565b60405180910390f35b34801561025c57600080fd5b5061027760048036038101906102729190611d72565b611058565b604051610285929190611f9e565b60405180910390f35b34801561029a57600080fd5b506102a361137c565b6040516102b0919061203c565b60405180910390f35b3480156102c557600080fd5b506102e060048036038101906102db9190611dbb565b611428565b6040516102ed9190611f5a565b60405180910390f35b60006103247f3872d2b34bf28259f3a59380e1a880c7a0c95c73a26fac786acc0b21fec12bb660001b6114f4565b6103507fdeb2231f77ea9dde31b2f4ce9b5bd586ec348e1b08860bdd455a229fc787701260001b6114f4565b61037c7f684cd03747f7c28126c5babae7adbfbd7bb2e522c3e8a0c510b30c5ed757e6a960001b6114f4565b7f0000000000000000000000000000000000000000000000000000000000000000905090565b60006103d07f204fce4eceee812e8e963198d24567e1f83e45d9bc25bedbc50305deaad82e0360001b6114f4565b6103fc7f79f849b52d1713a937c9566193e7aff83751e433840e91ff237b7e4cfa6bfa5a60001b6114f4565b6104287f2e861efd1a3ad698a88e43d5b8389bc902345fc95b5ebc3372150e092781337860001b6114f4565b600160149054906101000a900460ff16905090565b7f000000000000000000000000000000000000000000000000000000000000000073ffffffffffffffffffffffffffffffffffffffff163373ffffffffffffffffffffffffffffffffffffffff16146104ef57337f00000000000000000000000000000000000000000000000000000000000000006040517f1cf993f40000000000000000000000000000000000000000000000000000000081526004016104e6929190611f75565b60405180910390fd5b6104f982826114f7565b5050565b6105297f7852e79014e09ac9bd95f14b1c204248a307ca3e3fe1029ffa58cbe960a18fd760001b6114f4565b6105557fdf37202d62af47d8551cd668865b9a6aae5c4ec790d682725407f896dbd84d8860001b6114f4565b6105817ff19efc98ec8eef749dc91c20fb4992a4385cd29085b003c80d06713f1e4fe48e60001b6114f4565b7f0000000000000000000000000000000000000000000000000000000000000000341015610633576105d57fdd045de2945f3f14826dc865139b1b1138db00c71b557fd121ef9538d97a038d60001b6114f4565b6106017f16cadfc48ae12be89b9cf02f59041cb46b7f5446240f03f28732c2b6e826618560001b6114f4565b6040517fbd4e069500000000000000000000000000000000000000000000000000000000815260040160405180910390fd5b61065f7fada3c6edd9219ddb96de3874a6e086fc4b85ee62098fadf3f8f0713b00121dd960001b6114f4565b61068b7ff19564a7fb5451b333b785d1650c424d816f29301843e287bd419ba89e5ebb8c60001b6114f4565b6106b77ffee52228111ee71c3e9afc908af5dfe3b06cded96dfbb9e898128ff53113131860001b6114f4565b600060018111156106cb576106ca612316565b5b600160149054906101000a900460ff1660018111156106ed576106ec612316565b5b1461077c5761071e7f9d1ae229e9364400b9d4aab509cc3d9021692426c7af94cf17062b71371432a060001b6114f4565b61074a7f6a832c76ff260b93c572aeac41c56b56b4a309233f606f825f159b0a58990a4e60001b6114f4565b6040517f1425571c00000000000000000000000000000000000000000000000000000000815260040160405180910390fd5b6107a87f58d2213a9c961f27a55733af2ff9fa5e45deb416c4b43111080b93e54a39417a60001b6114f4565b6107d47fdf4c317a425ad1643219d28ef9290c581163616f80718a69170e5f8596aafb0e60001b6114f4565b6108007ffc882cad69b2c3d3128194b335d0730d8ed52c743eb954b03125e1199d4e69b860001b6114f4565b6000339080600181540180825580915050600190039060005260206000200160009091909190916101000a81548173ffffffffffffffffffffffffffffffffffffffff021916908373ffffffffffffffffffffffffffffffffffffffff16021790555061088f7fe26775538baf08eefeddff79a9b847512997371b4f128ec4beafbef6ee7a26cb60001b6114f4565b6108bb7f5a4ac95952095c81766b00d74d7873a2c66efa9151dbdb3a3b7076c34ce2a7a160001b6114f4565b3373ffffffffffffffffffffffffffffffffffffffff167f634f3211e3a4e43fee5a21ad9f87ca153b300fc78b1c557a2057dbe9c63bcb4760405160405180910390a2565b600061092e7f94a045c172a4ccc5ec48b018a93f3b2c9bcc58bfc56d08c9fdb03d58e5711b4f60001b6114f4565b61095a7f52d83f3bed526ce7481b975f26c42b916e32aa23b571c0a7a24c21eaf49802ec60001b6114f4565b6109867f378923853369952695024be2c37e904aaf295fbf0223465e0b1401244ed9f3b760001b6114f4565b600254905090565b6109ba7f915398e5a90fc68b57e8baf67c7feaae6c39d7e1fff73453a6952c822fd6354260001b6114f4565b6109e67f5a4730e6618d79c15332e51cd84016fe0c70af29752c91414c9a76ad5a6854e360001b6114f4565b610a127f44e94e18a8ca053bf662a40184ec30b93c1852366efb313eb46f18d8ce61c2aa60001b6114f4565b6000610a2c60405180602001604052806000815250611058565b509050610a5b7fcb00c9154981790be40f8b99b98c7e0a64340bd657fcb7bcf35c7cdf4630252660001b6114f4565b610a877ff2b7be434d73a0369d351efca031baa261ac054e24631cea3ddac6dfd933d42360001b6114f4565b80610b4b57610ab87fc1cb1c221eba0124d6976a119520981be15f119904deb2308f0d92bd4fb4251f60001b6114f4565b610ae47f96db3866b1ff991c0a694baebdc02fde8816c15d03b463f42cad34d3d49fbcb560001b6114f4565b47600080549050600160149054906101000a900460ff166001811115610b0d57610b0c612316565b5b6040517f584327aa000000000000000000000000000000000000000000000000000000008152600401610b4293929190612057565b60405180910390fd5b610b777fe8c775586b1147cb7a92a348354cbd591440034e3240edbf4fe6d614a662e6fe60001b6114f4565b610ba37f9099f6eb4f64ed876cb60435fd417ea93a587a600aa680f13c2bd4fd19b9af4160001b6114f4565b610bcf7f442b1520a2afa836a1c9a1c8dcc1968b2a0a90ee508fd5b3b2549ba25201b0c660001b6114f4565b60018060146101000a81548160ff02191690836001811115610bf457610bf3612316565b5b0217905550610c257fb2def6c1a437d9e860a4c7bb7b758d13161458a25fb10f1a96b48f51248d0bdb60001b6114f4565b610c517f63a2d609258a42848cc38918e17d0dee2baa881397d4cd017a5a6a940cdb0b9760001b6114f4565b60007f000000000000000000000000000000000000000000000000000000000000000073ffffffffffffffffffffffffffffffffffffffff16635d3b1d307f00000000000000000000000000000000000000000000000000000000000000007f000000000000000000000000000000000000000000000000000000000000000060037f000000000000000000000000000000000000000000000000000000000000000060016040518663ffffffff1660e01b8152600401610d16959493929190611fce565b602060405180830381600087803b158015610d3057600080fd5b505af1158015610d44573d6000803e3d6000fd5b505050506040513d601f19601f82011682018060405250810190610d689190611de8565b9050610d967faead4ea46c9bbcbe42ab1d916abf841e593850aebaf068d33ec1e5c3fe24d87860001b6114f4565b610dc27f3bc728a54fed83236d5d0ace1039cc8b22144e9fd36963b262cfaba74f82efa860001b6114f4565b807fcd6e45c8998311cab7e9d4385596cac867e20a0587194b954fa3a731c93ce78b60405160405180910390a250505050565b6000610e237fe382bceb1801bd76264235c3846d494ef11342c1dc1ef1c1b1eb9c6d1bb76d3460001b6114f4565b610e4f7f6bd9fe4188da6358238f3bbe5e7c06955b9fc45a633825ac4e3ef26300a40c9960001b6114f4565b610e7b7f73cdcc3dda252b84877762ad3fa612bbde7e425f6250b6912f801b98c7b218aa60001b6114f4565b600160009054906101000a900473ffffffffffffffffffffffffffffffffffffffff16905090565b6000610ed17f2ca4361287e34cc219a95a39fc3e948c91e3ba7f0e78e17fbcb53b71d3f5f22860001b6114f4565b610efd7fd59e45971bca4e3b5ee49b720292316641d47793f7de69da97bd04d398041a3860001b6114f4565b610f297fa559cee0b0948679ba42047d5ed9bdb4218465a25ad7a79779ce541a7e2c8e8d60001b6114f4565b600163ffffffff16905090565b6000610f647fbc7c29e0c016acc2c4ca22b082108099e80f9a73532eabe65d372516b2d1f6cd60001b6114f4565b610f907f26e99fd69227798e203da27a2a77db6f55473a28cf13e2c3206a5470ad41223160001b6114f4565b610fbc7f411df245feff3ebdd847fc257d827fc6b5335b7ebe10d07fa6d47a093af0331860001b6114f4565b600080549050905090565b6000610ff57f66d88f9615801b04a2abad1f9869116f64a1c5b51196c0d71260451795b4373560001b6114f4565b6110217fc2a9e9ea6ad081db1a87d761a5963a749f166872795f75a696d0c8ab0e6696e760001b6114f4565b61104d7fd0a7bfbafac49fe501b38b0f867276ac9f79d679e9553c1460ce196ea931620160001b6114f4565b600361ffff16905090565b600060606110887f41e129d0de0f9f37c089b01e6d4be8968569cc98c13452eb60390641484ed8d560001b6114f4565b6110b47f8c56154ba62ecd9c0b27c96e126dbb444db8f83f61632c3185bca509c2c712ab60001b6114f4565b6110e07ff46c466b5cce809ca817b397b8ca5e95521906f0ca5dff19ec1b57c35e89b78160001b6114f4565b6000600160149054906101000a900460ff16600181111561110457611103612316565b5b6000600181111561111857611117612316565b5b1490506111477f07a018803533bacf5f1e70715fc7baa4444b08728f9c15d1c4ba294ad401151b60001b6114f4565b6111737f9d4124b754006f805ea47c176599b2114ab03b75a92839b3f6f488a47dbf4e7a60001b6114f4565b60007f0000000000000000000000000000000000000000000000000000000000000000600254426111a49190612137565b1190506111d37fe2b0fa948575da0b8115eb15160f4823ff76ca05f48d8d2270139efb887f19e560001b6114f4565b6111ff7ff7fb9465fefa062797d6ad81ea61110fb249cf2ccc9136b98fda90589ccf612460001b6114f4565b6000806000805490501190506112377fab5de7fe09f7eb3afeac79fd03218c5515695c057de86f23ad68eca4b3c2822860001b6114f4565b6112637f129e3506b72e612c0ed2ebda1bbeb80df9d15f404fa66bc2d3c79f2fb5febe3560001b6114f4565b600080471190506112967f778e773b0d989d37af28cea97b427b5e6affafe5bc5355203e87c1373b8796e660001b6114f4565b6112c27f8458b3e589780f74aad0d48b6c8aeba1aaee8201aab0419716a88a666f1e96b760001b6114f4565b8380156112cc5750825b80156112d55750815b80156112de5750805b955061130c7f83d2d3a9f80e98c24eefe7667404121e5d723c64a6f1cab71ea02ec9235a0d1660001b6114f4565b6113387f0ee51e1cec3708b8971317c89b9da6f8216ed68ca168b8b68ed4d4ea1628cfca60001b6114f4565b856040518060400160405280600381526020017f30783000000000000000000000000000000000000000000000000000000000008152509550955050505050915091565b60006113aa7fbdf8781519015c1b716f8e578ad84e0a9d2d8539d21a4e5223735f335ee2167460001b6114f4565b6113d67f7fdf7faa00f30ed475bf2eb72c689acc0057bf8d488d218c7fb8a432a71f968560001b6114f4565b6114027ff9b12441f3f32fa7f3779afc08894536384767ba8c219170a489f2e26f30c22460001b6114f4565b7f0000000000000000000000000000000000000000000000000000000000000000905090565b60006114567f9c631eb8294cd2d757e6d6ea5c19c5f0decd280eb34fcd79ab2ed4309fd550f460001b6114f4565b6114827f3a201963ee8aa195eb96088339163aec03942e333b012fa48ac8b8fb89d0b43f60001b6114f4565b6114ae7f79635f6262bbc669d761168974c65c4cd0ed64c95ff315f73c5a94c2070238c160001b6114f4565b600082815481106114c2576114c1612345565b5b9060005260206000200160009054906101000a900473ffffffffffffffffffffffffffffffffffffffff169050919050565b50565b6115237fbca12e6b551cc79b7861369eed73b7c913de88aff37297555091ee6f43cd043160001b6114f4565b61154f7f95a1493f01257a09cd589adb507e3517a6f80f7b14b124fe2340b67e398f470e60001b6114f4565b61157b7fa0f65247b18cc2547bfb2a5c4da53c631cab93b9eff077dddcc55811978705c960001b6114f4565b600080805490508260008151811061159657611595612345565b5b60200260200101516115a89190612287565b90506115d67fb4f9d02ef2cb034135c645f3acac4e132597e000b8ecce04ed4f79afa6d5f66b60001b6114f4565b6116027f4804552f61df933c668f3ed6bd15282320a0dfe084a8f168c3799e2ce079c31160001b6114f4565b600080828154811061161757611616612345565b5b9060005260206000200160009054906101000a900473ffffffffffffffffffffffffffffffffffffffff1690506116707f56db9f8f7381ad4ae1425ea9dae81cc338333169783947401eab6058e00ebe0f60001b6114f4565b61169c7fddb9470e34cd1d698a922c1a13df9c554d1b8955c1835502527b8812c58a5af860001b6114f4565b80600160006101000a81548173ffffffffffffffffffffffffffffffffffffffff021916908373ffffffffffffffffffffffffffffffffffffffff1602179055506117097ffb721342df76782b5c522878bb92cf2e7a6fff399f631fb1059142caf91ae63560001b6114f4565b6117357f461885abcb274cc95715df55a4a9f026b633cc35857464637d67c011c519ff0e60001b6114f4565b600067ffffffffffffffff8111156117505761174f612374565b5b60405190808252806020026020018201604052801561177e5781602001602082028036833780820191505090505b5060009080519060200190611794929190611af0565b506117c17fbbab2bdefd293c8352ca71de3bc044725e241de5ebf17109e1e24a53c61c21b260001b6114f4565b6117ed7f0c43afbd97b9375e9bb69c11648dab4ef185e9e6326b1940c263f864c4186e5d60001b6114f4565b6000600160146101000a81548160ff0219169083600181111561181357611812612316565b5b02179055506118447fbe779ba6af45dd537b66ed2e2d26c94ae34ff042c72fcc6a747336ece118689a60001b6114f4565b6118707f8e8372bb7a511b0a4d487c943d79c49b59688841433ef8f41ab54f6c268f917460001b6114f4565b426002819055506118a37ff1cfa900088dd336074e208c53ab980cce045e2a54dbfe4bd7d607d8c9abd5ae60001b6114f4565b6118cf7fee0fea1a704b57f92f187769bd1f9bbff69610ba9c58d85068d93298cfe548c160001b6114f4565b60008173ffffffffffffffffffffffffffffffffffffffff16476040516118f590611f45565b60006040518083038185875af1925050503d8060008114611932576040519150601f19603f3d011682016040523d82523d6000602084013e611937565b606091505b505090506119677fdc5985f4d92733018aa57b4b224f8fbd4e0d3f7503ac71c0299929fef7ffa95e60001b6114f4565b6119937fcf543da5926bdfeb0fe6d65cb8256d7d9c7ab7e3d9edd4b81f8cd0ca95385fa060001b6114f4565b80611a22576119c47f601b8211b515805b9cbc6cf67abd4820489b6769cbea7d33fa6dbed74f1dbeb960001b6114f4565b6119f07f821d6ba3ddb30bd59842411abcd02a6345cc11f882682bc13636d5d4e05b42ca60001b6114f4565b6040517fa1d04b3900000000000000000000000000000000000000000000000000000000815260040160405180910390fd5b611a4e7f01b5c7417da23392fbdbf527572dc3ad2554f8270170b1b834df1e1f8eff57a060001b6114f4565b611a7a7fd5350292d294b9afc4669153c4a1dec991f5eba8834529b1a61f8fc0a06884da60001b6114f4565b611aa67fba63e4b9a8a53bdacb71d9498b756c1fb4f5afceb3a56466fca25cdbe64a811660001b6114f4565b8173ffffffffffffffffffffffffffffffffffffffff167f5b690ec4a06fe979403046eaeea5b3ce38524683c3001f662c8b5a829632f7df60405160405180910390a25050505050565b828054828255906000526020600020908101928215611b69579160200282015b82811115611b685782518260006101000a81548173ffffffffffffffffffffffffffffffffffffffff021916908373ffffffffffffffffffffffffffffffffffffffff16021790555091602001919060010190611b10565b5b509050611b769190611b7a565b5090565b5b80821115611b93576000816000905550600101611b7b565b5090565b6000611baa611ba5846120b3565b61208e565b90508083825260208201905082856020860282011115611bcd57611bcc6123ad565b5b60005b85811015611bfd5781611be38882611cfb565b845260208401935060208301925050600181019050611bd0565b5050509392505050565b6000611c1a611c15846120df565b61208e565b905082815260208101848484011115611c3657611c356123b2565b5b611c41848285612214565b509392505050565b600082601f830112611c5e57611c5d6123a8565b5b8135611c6e848260208601611b97565b91505092915050565b60008083601f840112611c8d57611c8c6123a8565b5b8235905067ffffffffffffffff811115611caa57611ca96123a3565b5b602083019150836001820283011115611cc657611cc56123ad565b5b9250929050565b600082601f830112611ce257611ce16123a8565b5b8135611cf2848260208601611c07565b91505092915050565b600081359050611d0a816123e9565b92915050565b600081519050611d1f816123e9565b92915050565b60008060208385031215611d3c57611d3b6123bc565b5b600083013567ffffffffffffffff811115611d5a57611d596123b7565b5b611d6685828601611c77565b92509250509250929050565b600060208284031215611d8857611d876123bc565b5b600082013567ffffffffffffffff811115611da657611da56123b7565b5b611db284828501611ccd565b91505092915050565b600060208284031215611dd157611dd06123bc565b5b6000611ddf84828501611cfb565b91505092915050565b600060208284031215611dfe57611dfd6123bc565b5b6000611e0c84828501611d10565b91505092915050565b60008060408385031215611e2c57611e2b6123bc565b5b6000611e3a85828601611cfb565b925050602083013567ffffffffffffffff811115611e5b57611e5a6123b7565b5b611e6785828601611c49565b9150509250929050565b611e7a8161216b565b82525050565b611e898161217d565b82525050565b611e9881612189565b82525050565b6000611ea982612110565b611eb3818561211b565b9350611ec3818560208601612223565b611ecc816123c1565b840191505092915050565b611ee081612202565b82525050565b6000611ef360008361212c565b9150611efe826123d2565b600082019050919050565b611f12816121a6565b82525050565b611f21816121d4565b82525050565b611f30816121de565b82525050565b611f3f816121ee565b82525050565b6000611f5082611ee6565b9150819050919050565b6000602082019050611f6f6000830184611e71565b92915050565b6000604082019050611f8a6000830185611e71565b611f976020830184611e71565b9392505050565b6000604082019050611fb36000830185611e80565b8181036020830152611fc58184611e9e565b90509392505050565b600060a082019050611fe36000830188611e8f565b611ff06020830187611f36565b611ffd6040830186611f09565b61200a6060830185611f27565b6120176080830184611f27565b9695505050505050565b60006020820190506120366000830184611ed7565b92915050565b60006020820190506120516000830184611f18565b92915050565b600060608201905061206c6000830186611f18565b6120796020830185611f18565b6120866040830184611f18565b949350505050565b60006120986120a9565b90506120a48282612256565b919050565b6000604051905090565b600067ffffffffffffffff8211156120ce576120cd612374565b5b602082029050602081019050919050565b600067ffffffffffffffff8211156120fa576120f9612374565b5b612103826123c1565b9050602081019050919050565b600081519050919050565b600082825260208201905092915050565b600081905092915050565b6000612142826121d4565b915061214d836121d4565b9250828210156121605761215f6122b8565b5b828203905092915050565b6000612176826121b4565b9050919050565b60008115159050919050565b6000819050919050565b60008190506121a1826123d5565b919050565b600061ffff82169050919050565b600073ffffffffffffffffffffffffffffffffffffffff82169050919050565b6000819050919050565b600063ffffffff82169050919050565b600067ffffffffffffffff82169050919050565b600061220d82612193565b9050919050565b82818337600083830152505050565b60005b83811015612241578082015181840152602081019050612226565b83811115612250576000848401525b50505050565b61225f826123c1565b810181811067ffffffffffffffff8211171561227e5761227d612374565b5b80604052505050565b6000612292826121d4565b915061229d836121d4565b9250826122ad576122ac6122e7565b5b828206905092915050565b7f4e487b7100000000000000000000000000000000000000000000000000000000600052601160045260246000fd5b7f4e487b7100000000000000000000000000000000000000000000000000000000600052601260045260246000fd5b7f4e487b7100000000000000000000000000000000000000000000000000000000600052602160045260246000fd5b7f4e487b7100000000000000000000000000000000000000000000000000000000600052603260045260246000fd5b7f4e487b7100000000000000000000000000000000000000000000000000000000600052604160045260246000fd5b600080fd5b600080fd5b600080fd5b600080fd5b600080fd5b600080fd5b6000601f19601f8301169050919050565b50565b600281106123e6576123e5612316565b5b50565b6123f2816121d4565b81146123fd57600080fd5b5056fea264697066735822122091e19ad3b876227bfd9c73a3af76e4a6b2a791c6137443dba8f6f691e84ae41864736f6c63430008060033",
  "linkReferences": {},
  "deployedLinkReferences": {}
}