{
  "_format": "hh-sol-artifact-1",
  "contractName": "Raffle",
  "sourceName": "contracts/Raffle.sol",
  "abi": [
    {
      "inputs": [
        {
          "internalType": "address",
          "name": "VRFCoordinatorV2",
          "type": "address"
        },
        {
          "internalType": "uint256",
          "name": "entranceFee",
          "type": "uint256"
        },
        {
          "internalType": "bytes32",
          "name": "gasLane",
          "type": "bytes32"
        },
        {
          "internalType": "uint64",
          "name": "subscriptionId",
          "type": "uint64"
        },
        {
          "internalType": "uint32",
          "name": "callbackGasLimit",
          "type": "uint32"
        },
        {
          "internalType": "uint256",
          "name": "interval",
          "type": "uint256"
        }
      ],
      "stateMutability": "nonpayable",
      "type": "constructor"
    },
    {
      "inputs": [
        {
          "internalType": "address",
          "name": "have",
          "type": "address"
        },
        {
          "internalType": "address",
          "name": "want",
          "type": "address"
        }
      ],
      "name": "OnlyCoordinatorCanFulfill",
      "type": "error"
    },
    {
      "inputs": [],
      "name": "Raffle__NotEnoughETHEntered",
      "type": "error"
    },
    {
      "inputs": [],
      "name": "Raffle__NotOpen",
      "type": "error"
    },
    {
      "inputs": [],
      "name": "Raffle__TransferFailed",
      "type": "error"
    },
    {
      "inputs": [
        {
          "internalType": "uint256",
          "name": "currentBalance",
          "type": "uint256"
        },
        {
          "internalType": "uint256",
          "name": "numPlayers",
          "type": "uint256"
        },
        {
          "internalType": "uint256",
          "name": "raffleState",
          "type": "uint256"
        }
      ],
      "name": "Raffle__UpkeepNotNeeded",
      "type": "error"
    },
    {
      "anonymous": false,
      "inputs": [
        {
          "indexed": true,
          "internalType": "address",
          "name": "player",
          "type": "address"
        }
      ],
      "name": "RaffleEntered",
      "type": "event"
    },
    {
      "anonymous": false,
      "inputs": [
        {
          "indexed": true,
          "internalType": "uint256",
          "name": "requestId",
          "type": "uint256"
        }
      ],
      "name": "RequestedRaffleWinner",
      "type": "event"
    },
    {
      "anonymous": false,
      "inputs": [
        {
          "indexed": true,
          "internalType": "address",
          "name": "winner",
          "type": "address"
        }
      ],
      "name": "WinnerPicked",
      "type": "event"
    },
    {
      "inputs": [
        {
          "internalType": "bytes",
          "name": "",
          "type": "bytes"
        }
      ],
      "name": "checkUpkeep",
      "outputs": [
        {
          "internalType": "bool",
          "name": "upkeepNeeded",
          "type": "bool"
        },
        {
          "internalType": "bytes",
          "name": "",
          "type": "bytes"
        }
      ],
      "stateMutability": "nonpayable",
      "type": "function"
    },
    {
      "inputs": [],
      "name": "enterRaffle",
      "outputs": [],
      "stateMutability": "payable",
      "type": "function"
    },
    {
      "inputs": [],
      "name": "getEntranceFee",
      "outputs": [
        {
          "internalType": "uint256",
          "name": "",
          "type": "uint256"
        }
      ],
      "stateMutability": "view",
      "type": "function"
    },
    {
      "inputs": [],
      "name": "getLatestTimeStamp",
      "outputs": [
        {
          "internalType": "uint256",
          "name": "",
          "type": "uint256"
        }
      ],
      "stateMutability": "view",
      "type": "function"
    },
    {
      "inputs": [],
      "name": "getNumPlayers",
      "outputs": [
        {
          "internalType": "uint256",
          "name": "",
          "type": "uint256"
        }
      ],
      "stateMutability": "view",
      "type": "function"
    },
    {
      "inputs": [],
      "name": "getNumWords",
      "outputs": [
        {
          "internalType": "uint256",
          "name": "",
          "type": "uint256"
        }
      ],
      "stateMutability": "pure",
      "type": "function"
    },
    {
      "inputs": [
        {
          "internalType": "uint256",
          "name": "index",
          "type": "uint256"
        }
      ],
      "name": "getPlayer",
      "outputs": [
        {
          "internalType": "address",
          "name": "",
          "type": "address"
        }
      ],
      "stateMutability": "view",
      "type": "function"
    },
    {
      "inputs": [],
      "name": "getRaffleState",
      "outputs": [
        {
          "internalType": "enum Raffle.RaffleState",
          "name": "",
          "type": "uint8"
        }
      ],
      "stateMutability": "view",
      "type": "function"
    },
    {
      "inputs": [],
      "name": "getRecentWinner",
      "outputs": [
        {
          "internalType": "address",
          "name": "",
          "type": "address"
        }
      ],
      "stateMutability": "view",
      "type": "function"
    },
    {
      "inputs": [],
      "name": "getRequestConfirmations",
      "outputs": [
        {
          "internalType": "uint256",
          "name": "",
          "type": "uint256"
        }
      ],
      "stateMutability": "pure",
      "type": "function"
    },
    {
      "inputs": [
        {
          "internalType": "bytes",
          "name": "",
          "type": "bytes"
        }
      ],
      "name": "performUpkeep",
      "outputs": [],
      "stateMutability": "nonpayable",
      "type": "function"
    },
    {
      "inputs": [
        {
          "internalType": "uint256",
          "name": "requestId",
          "type": "uint256"
        },
        {
          "internalType": "uint256[]",
          "name": "randomWords",
          "type": "uint256[]"
        }
      ],
      "name": "rawFulfillRandomWords",
      "outputs": [],
      "stateMutability": "nonpayable",
      "type": "function"
    }
  ],
  "bytecode": "0x6101606040523480156200001257600080fd5b50604051620017ff380380620017ff8339818101604052810190620000389190620001ad565b858073ffffffffffffffffffffffffffffffffffffffff1660808173ffffffffffffffffffffffffffffffffffffffff1660601b81525050508573ffffffffffffffffffffffffffffffffffffffff1660c08173ffffffffffffffffffffffffffffffffffffffff1660601b815250508360e081815250508267ffffffffffffffff166101008167ffffffffffffffff1660c01b815250508460a081815250508163ffffffff166101208163ffffffff1660e01b815250506000600160146101000a81548160ff02191690836001811115620001195762000118620002b5565b5b0217905550426002819055508061014081815250505050505050506200036b565b6000815190506200014b81620002e9565b92915050565b600081519050620001628162000303565b92915050565b60008151905062000179816200031d565b92915050565b600081519050620001908162000337565b92915050565b600081519050620001a78162000351565b92915050565b60008060008060008060c08789031215620001cd57620001cc620002e4565b5b6000620001dd89828a016200013a565b9650506020620001f089828a0162000168565b95505060406200020389828a0162000151565b94505060606200021689828a0162000196565b93505060806200022989828a016200017f565b92505060a06200023c89828a0162000168565b9150509295509295509295565b6000620002568262000267565b9050919050565b6000819050919050565b600073ffffffffffffffffffffffffffffffffffffffff82169050919050565b6000819050919050565b600063ffffffff82169050919050565b600067ffffffffffffffff82169050919050565b7f4e487b7100000000000000000000000000000000000000000000000000000000600052602160045260246000fd5b600080fd5b620002f48162000249565b81146200030057600080fd5b50565b6200030e816200025d565b81146200031a57600080fd5b50565b620003288162000287565b81146200033457600080fd5b50565b620003428162000291565b81146200034e57600080fd5b50565b6200035c81620002a1565b81146200036857600080fd5b50565b60805160601c60a05160c05160601c60e0516101005160c01c6101205160e01c6101405161141f620003e060003960006107bc0152600061065f0152600061063c0152600061061b015260006105df0152600081816102b401526103b10152600081816102f10152610345015261141f6000f3fe6080604052600436106100a75760003560e01c8063473f1ddc11610064578063473f1ddc1461018957806353a2c19a146101b457806355c9e926146101df5780635f1b0fd81461020a5780636e04ff0d14610235578063e55ae4e814610273576100a7565b806309bc33a7146100ac578063115cbaf5146100d75780631fe543e3146101025780632cfcc5391461012b578063320229eb146101355780634585e33b14610160575b600080fd5b3480156100b857600080fd5b506100c16102b0565b6040516100ce9190611025565b60405180910390f35b3480156100e357600080fd5b506100ec6102d8565b6040516100f9919061100a565b60405180910390f35b34801561010e57600080fd5b5061012960048036038101906101249190610dfe565b6102ef565b005b6101336103af565b005b34801561014157600080fd5b5061014a61051e565b6040516101579190611025565b60405180910390f35b34801561016c57600080fd5b5061018760048036038101906101829190610d0e565b610528565b005b34801561019557600080fd5b5061019e610727565b6040516101ab9190610f43565b60405180910390f35b3480156101c057600080fd5b506101c9610751565b6040516101d69190611025565b60405180910390f35b3480156101eb57600080fd5b506101f4610760565b6040516102019190611025565b60405180910390f35b34801561021657600080fd5b5061021f61076c565b60405161022c9190611025565b60405180910390f35b34801561024157600080fd5b5061025c60048036038101906102579190610d5b565b610779565b60405161026a929190610f87565b60405180910390f35b34801561027f57600080fd5b5061029a60048036038101906102959190610da4565b610861565b6040516102a79190610f43565b60405180910390f35b60007f0000000000000000000000000000000000000000000000000000000000000000905090565b6000600160149054906101000a900460ff16905090565b7f000000000000000000000000000000000000000000000000000000000000000073ffffffffffffffffffffffffffffffffffffffff163373ffffffffffffffffffffffffffffffffffffffff16146103a157337f00000000000000000000000000000000000000000000000000000000000000006040517f1cf993f4000000000000000000000000000000000000000000000000000000008152600401610398929190610f5e565b60405180910390fd5b6103ab82826108a8565b5050565b7f0000000000000000000000000000000000000000000000000000000000000000341015610409576040517fbd4e069500000000000000000000000000000000000000000000000000000000815260040160405180910390fd5b6000600181111561041d5761041c6112ff565b5b600160149054906101000a900460ff16600181111561043f5761043e6112ff565b5b14610476576040517f1425571c00000000000000000000000000000000000000000000000000000000815260040160405180910390fd5b6000339080600181540180825580915050600190039060005260206000200160009091909190916101000a81548173ffffffffffffffffffffffffffffffffffffffff021916908373ffffffffffffffffffffffffffffffffffffffff1602179055503373ffffffffffffffffffffffffffffffffffffffff167f634f3211e3a4e43fee5a21ad9f87ca153b300fc78b1c557a2057dbe9c63bcb4760405160405180910390a2565b6000600254905090565b600061054260405180602001604052806000815250610779565b509050806105b15747600080549050600160149054906101000a900460ff166001811115610573576105726112ff565b5b6040517f584327aa0000000000000000000000000000000000000000000000000000000081526004016105a893929190611040565b60405180910390fd5b60018060146101000a81548160ff021916908360018111156105d6576105d56112ff565b5b021790555060007f000000000000000000000000000000000000000000000000000000000000000073ffffffffffffffffffffffffffffffffffffffff16635d3b1d307f00000000000000000000000000000000000000000000000000000000000000007f000000000000000000000000000000000000000000000000000000000000000060037f000000000000000000000000000000000000000000000000000000000000000060016040518663ffffffff1660e01b81526004016106a0959493929190610fb7565b602060405180830381600087803b1580156106ba57600080fd5b505af11580156106ce573d6000803e3d6000fd5b505050506040513d601f19601f820116820180604052508101906106f29190610dd1565b9050807fcd6e45c8998311cab7e9d4385596cac867e20a0587194b954fa3a731c93ce78b60405160405180910390a250505050565b6000600160009054906101000a900473ffffffffffffffffffffffffffffffffffffffff16905090565b6000600163ffffffff16905090565b60008080549050905090565b6000600361ffff16905090565b600060606000600160149054906101000a900460ff1660018111156107a1576107a06112ff565b5b600060018111156107b5576107b46112ff565b5b14905060007f0000000000000000000000000000000000000000000000000000000000000000600254426107e99190611120565b119050600080600080549050119050600080471190508380156108095750825b80156108125750815b801561081b5750805b9550856040518060400160405280600381526020017f30783000000000000000000000000000000000000000000000000000000000008152509550955050505050915091565b60008082815481106108765761087561132e565b5b9060005260206000200160009054906101000a900473ffffffffffffffffffffffffffffffffffffffff169050919050565b60008080549050826000815181106108c3576108c261132e565b5b60200260200101516108d59190611270565b905060008082815481106108ec576108eb61132e565b5b9060005260206000200160009054906101000a900473ffffffffffffffffffffffffffffffffffffffff16905080600160006101000a81548173ffffffffffffffffffffffffffffffffffffffff021916908373ffffffffffffffffffffffffffffffffffffffff160217905550600067ffffffffffffffff8111156109755761097461135d565b5b6040519080825280602002602001820160405280156109a35781602001602082028036833780820191505090505b50600090805190602001906109b9929190610ad9565b506000600160146101000a81548160ff021916908360018111156109e0576109df6112ff565b5b02179055504260028190555060008173ffffffffffffffffffffffffffffffffffffffff1647604051610a1290610f2e565b60006040518083038185875af1925050503d8060008114610a4f576040519150601f19603f3d011682016040523d82523d6000602084013e610a54565b606091505b5050905080610a8f576040517fa1d04b3900000000000000000000000000000000000000000000000000000000815260040160405180910390fd5b8173ffffffffffffffffffffffffffffffffffffffff167f5b690ec4a06fe979403046eaeea5b3ce38524683c3001f662c8b5a829632f7df60405160405180910390a25050505050565b828054828255906000526020600020908101928215610b52579160200282015b82811115610b515782518260006101000a81548173ffffffffffffffffffffffffffffffffffffffff021916908373ffffffffffffffffffffffffffffffffffffffff16021790555091602001919060010190610af9565b5b509050610b5f9190610b63565b5090565b5b80821115610b7c576000816000905550600101610b64565b5090565b6000610b93610b8e8461109c565b611077565b90508083825260208201905082856020860282011115610bb657610bb5611396565b5b60005b85811015610be65781610bcc8882610ce4565b845260208401935060208301925050600181019050610bb9565b5050509392505050565b6000610c03610bfe846110c8565b611077565b905082815260208101848484011115610c1f57610c1e61139b565b5b610c2a8482856111fd565b509392505050565b600082601f830112610c4757610c46611391565b5b8135610c57848260208601610b80565b91505092915050565b60008083601f840112610c7657610c75611391565b5b8235905067ffffffffffffffff811115610c9357610c9261138c565b5b602083019150836001820283011115610caf57610cae611396565b5b9250929050565b600082601f830112610ccb57610cca611391565b5b8135610cdb848260208601610bf0565b91505092915050565b600081359050610cf3816113d2565b92915050565b600081519050610d08816113d2565b92915050565b60008060208385031215610d2557610d246113a5565b5b600083013567ffffffffffffffff811115610d4357610d426113a0565b5b610d4f85828601610c60565b92509250509250929050565b600060208284031215610d7157610d706113a5565b5b600082013567ffffffffffffffff811115610d8f57610d8e6113a0565b5b610d9b84828501610cb6565b91505092915050565b600060208284031215610dba57610db96113a5565b5b6000610dc884828501610ce4565b91505092915050565b600060208284031215610de757610de66113a5565b5b6000610df584828501610cf9565b91505092915050565b60008060408385031215610e1557610e146113a5565b5b6000610e2385828601610ce4565b925050602083013567ffffffffffffffff811115610e4457610e436113a0565b5b610e5085828601610c32565b9150509250929050565b610e6381611154565b82525050565b610e7281611166565b82525050565b610e8181611172565b82525050565b6000610e92826110f9565b610e9c8185611104565b9350610eac81856020860161120c565b610eb5816113aa565b840191505092915050565b610ec9816111eb565b82525050565b6000610edc600083611115565b9150610ee7826113bb565b600082019050919050565b610efb8161118f565b82525050565b610f0a816111bd565b82525050565b610f19816111c7565b82525050565b610f28816111d7565b82525050565b6000610f3982610ecf565b9150819050919050565b6000602082019050610f586000830184610e5a565b92915050565b6000604082019050610f736000830185610e5a565b610f806020830184610e5a565b9392505050565b6000604082019050610f9c6000830185610e69565b8181036020830152610fae8184610e87565b90509392505050565b600060a082019050610fcc6000830188610e78565b610fd96020830187610f1f565b610fe66040830186610ef2565b610ff36060830185610f10565b6110006080830184610f10565b9695505050505050565b600060208201905061101f6000830184610ec0565b92915050565b600060208201905061103a6000830184610f01565b92915050565b60006060820190506110556000830186610f01565b6110626020830185610f01565b61106f6040830184610f01565b949350505050565b6000611081611092565b905061108d828261123f565b919050565b6000604051905090565b600067ffffffffffffffff8211156110b7576110b661135d565b5b602082029050602081019050919050565b600067ffffffffffffffff8211156110e3576110e261135d565b5b6110ec826113aa565b9050602081019050919050565b600081519050919050565b600082825260208201905092915050565b600081905092915050565b600061112b826111bd565b9150611136836111bd565b925082821015611149576111486112a1565b5b828203905092915050565b600061115f8261119d565b9050919050565b60008115159050919050565b6000819050919050565b600081905061118a826113be565b919050565b600061ffff82169050919050565b600073ffffffffffffffffffffffffffffffffffffffff82169050919050565b6000819050919050565b600063ffffffff82169050919050565b600067ffffffffffffffff82169050919050565b60006111f68261117c565b9050919050565b82818337600083830152505050565b60005b8381101561122a57808201518184015260208101905061120f565b83811115611239576000848401525b50505050565b611248826113aa565b810181811067ffffffffffffffff821117156112675761126661135d565b5b80604052505050565b600061127b826111bd565b9150611286836111bd565b925082611296576112956112d0565b5b828206905092915050565b7f4e487b7100000000000000000000000000000000000000000000000000000000600052601160045260246000fd5b7f4e487b7100000000000000000000000000000000000000000000000000000000600052601260045260246000fd5b7f4e487b7100000000000000000000000000000000000000000000000000000000600052602160045260246000fd5b7f4e487b7100000000000000000000000000000000000000000000000000000000600052603260045260246000fd5b7f4e487b7100000000000000000000000000000000000000000000000000000000600052604160045260246000fd5b600080fd5b600080fd5b600080fd5b600080fd5b600080fd5b600080fd5b6000601f19601f8301169050919050565b50565b600281106113cf576113ce6112ff565b5b50565b6113db816111bd565b81146113e657600080fd5b5056fea2646970667358221220725c179c58a76094cb8985819e771cd5916f51788f149697b8f4945a99f0cdeb64736f6c63430008060033",
  "linkReferences": {},
  "deployedLinkReferences": {}
}