{
  "_format": "hh-sol-artifact-1",
  "contractName": "Raffle",
  "sourceName": "contracts/Raffle.sol",
  "abi": [
    {
      "inputs": [
        {
          "internalType": "address",
          "name": "VRFCoordinatorV2",
          "type": "address"
        },
        {
          "internalType": "uint256",
          "name": "entranceFee",
          "type": "uint256"
        },
        {
          "internalType": "bytes32",
          "name": "gasLane",
          "type": "bytes32"
        },
        {
          "internalType": "uint64",
          "name": "subscriptionId",
          "type": "uint64"
        },
        {
          "internalType": "uint32",
          "name": "callbackGasLimit",
          "type": "uint32"
        },
        {
          "internalType": "uint256",
          "name": "interval",
          "type": "uint256"
        }
      ],
      "stateMutability": "nonpayable",
      "type": "constructor"
    },
    {
      "inputs": [
        {
          "internalType": "address",
          "name": "have",
          "type": "address"
        },
        {
          "internalType": "address",
          "name": "want",
          "type": "address"
        }
      ],
      "name": "OnlyCoordinatorCanFulfill",
      "type": "error"
    },
    {
      "inputs": [],
      "name": "Raffle__NotEnoughETHEntered",
      "type": "error"
    },
    {
      "inputs": [],
      "name": "Raffle__NotOpen",
      "type": "error"
    },
    {
      "inputs": [],
      "name": "Raffle__TransferFailed",
      "type": "error"
    },
    {
      "inputs": [
        {
          "internalType": "uint256",
          "name": "currentBalance",
          "type": "uint256"
        },
        {
          "internalType": "uint256",
          "name": "numPlayers",
          "type": "uint256"
        },
        {
          "internalType": "uint256",
          "name": "raffleState",
          "type": "uint256"
        }
      ],
      "name": "Raffle__UpkeepNotNeeded",
      "type": "error"
    },
    {
      "anonymous": false,
      "inputs": [
        {
          "indexed": true,
          "internalType": "address",
          "name": "player",
          "type": "address"
        }
      ],
      "name": "RaffleEntered",
      "type": "event"
    },
    {
      "anonymous": false,
      "inputs": [
        {
          "indexed": true,
          "internalType": "uint256",
          "name": "requestId",
          "type": "uint256"
        }
      ],
      "name": "RequestedRaffleWinner",
      "type": "event"
    },
    {
      "anonymous": false,
      "inputs": [
        {
          "indexed": true,
          "internalType": "address",
          "name": "winner",
          "type": "address"
        }
      ],
      "name": "WinnerPicked",
      "type": "event"
    },
    {
      "inputs": [
        {
          "internalType": "bytes",
          "name": "",
          "type": "bytes"
        }
      ],
      "name": "checkUpkeep",
      "outputs": [
        {
          "internalType": "bool",
          "name": "upkeepNeeded",
          "type": "bool"
        },
        {
          "internalType": "bytes",
          "name": "",
          "type": "bytes"
        }
      ],
      "stateMutability": "view",
      "type": "function"
    },
    {
      "inputs": [],
      "name": "enterRaffle",
      "outputs": [],
      "stateMutability": "payable",
      "type": "function"
    },
    {
      "inputs": [],
      "name": "getEntranceFee",
      "outputs": [
        {
          "internalType": "uint256",
          "name": "",
          "type": "uint256"
        }
      ],
      "stateMutability": "view",
      "type": "function"
    },
    {
      "inputs": [],
      "name": "getInterval",
      "outputs": [
        {
          "internalType": "uint256",
          "name": "",
          "type": "uint256"
        }
      ],
      "stateMutability": "view",
      "type": "function"
    },
    {
      "inputs": [],
      "name": "getLatestTimeStamp",
      "outputs": [
        {
          "internalType": "uint256",
          "name": "",
          "type": "uint256"
        }
      ],
      "stateMutability": "view",
      "type": "function"
    },
    {
      "inputs": [],
      "name": "getNumPlayers",
      "outputs": [
        {
          "internalType": "uint256",
          "name": "",
          "type": "uint256"
        }
      ],
      "stateMutability": "view",
      "type": "function"
    },
    {
      "inputs": [],
      "name": "getNumWords",
      "outputs": [
        {
          "internalType": "uint256",
          "name": "",
          "type": "uint256"
        }
      ],
      "stateMutability": "pure",
      "type": "function"
    },
    {
      "inputs": [
        {
          "internalType": "uint256",
          "name": "index",
          "type": "uint256"
        }
      ],
      "name": "getPlayer",
      "outputs": [
        {
          "internalType": "address",
          "name": "",
          "type": "address"
        }
      ],
      "stateMutability": "view",
      "type": "function"
    },
    {
      "inputs": [],
      "name": "getRaffleState",
      "outputs": [
        {
          "internalType": "enum Raffle.RaffleState",
          "name": "",
          "type": "uint8"
        }
      ],
      "stateMutability": "view",
      "type": "function"
    },
    {
      "inputs": [],
      "name": "getRecentWinner",
      "outputs": [
        {
          "internalType": "address",
          "name": "",
          "type": "address"
        }
      ],
      "stateMutability": "view",
      "type": "function"
    },
    {
      "inputs": [],
      "name": "getRequestConfirmations",
      "outputs": [
        {
          "internalType": "uint256",
          "name": "",
          "type": "uint256"
        }
      ],
      "stateMutability": "pure",
      "type": "function"
    },
    {
      "inputs": [
        {
          "internalType": "bytes",
          "name": "",
          "type": "bytes"
        }
      ],
      "name": "performUpkeep",
      "outputs": [],
      "stateMutability": "nonpayable",
      "type": "function"
    },
    {
      "inputs": [
        {
          "internalType": "uint256",
          "name": "requestId",
          "type": "uint256"
        },
        {
          "internalType": "uint256[]",
          "name": "randomWords",
          "type": "uint256[]"
        }
      ],
      "name": "rawFulfillRandomWords",
      "outputs": [],
      "stateMutability": "nonpayable",
      "type": "function"
    },
    {
      "inputs": [
        {
          "internalType": "uint256",
          "name": "",
          "type": "uint256"
        }
      ],
      "name": "s_recentWinnersArray",
      "outputs": [
        {
          "internalType": "address",
          "name": "",
          "type": "address"
        }
      ],
      "stateMutability": "view",
      "type": "function"
    }
  ],
  "bytecode": "0x6101606040523480156200001257600080fd5b506040516200190c3803806200190c8339818101604052810190620000389190620001ad565b858073ffffffffffffffffffffffffffffffffffffffff1660808173ffffffffffffffffffffffffffffffffffffffff1660601b81525050508573ffffffffffffffffffffffffffffffffffffffff1660c08173ffffffffffffffffffffffffffffffffffffffff1660601b815250508360e081815250508267ffffffffffffffff166101008167ffffffffffffffff1660c01b815250508460a081815250508163ffffffff166101208163ffffffff1660e01b815250506000600260146101000a81548160ff02191690836001811115620001195762000118620002b5565b5b0217905550426003819055508061014081815250505050505050506200036b565b6000815190506200014b81620002e9565b92915050565b600081519050620001628162000303565b92915050565b60008151905062000179816200031d565b92915050565b600081519050620001908162000337565b92915050565b600081519050620001a78162000351565b92915050565b60008060008060008060c08789031215620001cd57620001cc620002e4565b5b6000620001dd89828a016200013a565b9650506020620001f089828a0162000168565b95505060406200020389828a0162000151565b94505060606200021689828a0162000196565b93505060806200022989828a016200017f565b92505060a06200023c89828a0162000168565b9150509295509295509295565b6000620002568262000267565b9050919050565b6000819050919050565b600073ffffffffffffffffffffffffffffffffffffffff82169050919050565b6000819050919050565b600063ffffffff82169050919050565b600067ffffffffffffffff82169050919050565b7f4e487b7100000000000000000000000000000000000000000000000000000000600052602160045260246000fd5b600080fd5b620002f48162000249565b81146200030057600080fd5b50565b6200030e816200025d565b81146200031a57600080fd5b50565b620003288162000287565b81146200033457600080fd5b50565b620003428162000291565b81146200034e57600080fd5b50565b6200035c81620002a1565b81146200036857600080fd5b50565b60805160601c60a05160c05160601c60e0516101005160c01c6101205160e01c61014051611525620003e76000396000818161089a01526109430152600061073d0152600061071a015260006106f9015260006106bd015260008181610352015261048e01526000818161038f01526103e301526115256000f3fe6080604052600436106100dd5760003560e01c8063473f1ddc1161007f5780635f1b0fd8116100595780635f1b0fd81461027d5780636e04ff0d146102a857806391ad27b4146102e6578063e55ae4e814610311576100dd565b8063473f1ddc146101fc57806353a2c19a1461022757806355c9e92614610252576100dd565b80632a7e426e116100bb5780632a7e426e146101615780632cfcc5391461019e578063320229eb146101a85780634585e33b146101d3576100dd565b806309bc33a7146100e2578063115cbaf51461010d5780631fe543e314610138575b600080fd5b3480156100ee57600080fd5b506100f761034e565b604051610104919061112b565b60405180910390f35b34801561011957600080fd5b50610122610376565b60405161012f9190611110565b60405180910390f35b34801561014457600080fd5b5061015f600480360381019061015a9190610f04565b61038d565b005b34801561016d57600080fd5b5061018860048036038101906101839190610eaa565b61044d565b6040516101959190611049565b60405180910390f35b6101a661048c565b005b3480156101b457600080fd5b506101bd6105fb565b6040516101ca919061112b565b60405180910390f35b3480156101df57600080fd5b506101fa60048036038101906101f59190610e14565b610605565b005b34801561020857600080fd5b50610211610805565b60405161021e9190611049565b60405180910390f35b34801561023357600080fd5b5061023c61082f565b604051610249919061112b565b60405180910390f35b34801561025e57600080fd5b5061026761083e565b604051610274919061112b565b60405180910390f35b34801561028957600080fd5b5061029261084a565b60405161029f919061112b565b60405180910390f35b3480156102b457600080fd5b506102cf60048036038101906102ca9190610e61565b610857565b6040516102dd92919061108d565b60405180910390f35b3480156102f257600080fd5b506102fb61093f565b604051610308919061112b565b60405180910390f35b34801561031d57600080fd5b5061033860048036038101906103339190610eaa565b610967565b6040516103459190611049565b60405180910390f35b60007f0000000000000000000000000000000000000000000000000000000000000000905090565b6000600260149054906101000a900460ff16905090565b7f000000000000000000000000000000000000000000000000000000000000000073ffffffffffffffffffffffffffffffffffffffff163373ffffffffffffffffffffffffffffffffffffffff161461043f57337f00000000000000000000000000000000000000000000000000000000000000006040517f1cf993f4000000000000000000000000000000000000000000000000000000008152600401610436929190611064565b60405180910390fd5b61044982826109ae565b5050565b6001818154811061045d57600080fd5b906000526020600020016000915054906101000a900473ffffffffffffffffffffffffffffffffffffffff1681565b7f00000000000000000000000000000000000000000000000000000000000000003410156104e6576040517fbd4e069500000000000000000000000000000000000000000000000000000000815260040160405180910390fd5b600060018111156104fa576104f9611405565b5b600260149054906101000a900460ff16600181111561051c5761051b611405565b5b14610553576040517f1425571c00000000000000000000000000000000000000000000000000000000815260040160405180910390fd5b6000339080600181540180825580915050600190039060005260206000200160009091909190916101000a81548173ffffffffffffffffffffffffffffffffffffffff021916908373ffffffffffffffffffffffffffffffffffffffff1602179055503373ffffffffffffffffffffffffffffffffffffffff167f634f3211e3a4e43fee5a21ad9f87ca153b300fc78b1c557a2057dbe9c63bcb4760405160405180910390a2565b6000600354905090565b600061061f60405180602001604052806000815250610857565b5090508061068e5747600080549050600260149054906101000a900460ff1660018111156106505761064f611405565b5b6040517f584327aa00000000000000000000000000000000000000000000000000000000815260040161068593929190611146565b60405180910390fd5b6001600260146101000a81548160ff021916908360018111156106b4576106b3611405565b5b021790555060007f000000000000000000000000000000000000000000000000000000000000000073ffffffffffffffffffffffffffffffffffffffff16635d3b1d307f00000000000000000000000000000000000000000000000000000000000000007f000000000000000000000000000000000000000000000000000000000000000060037f000000000000000000000000000000000000000000000000000000000000000060016040518663ffffffff1660e01b815260040161077e9594939291906110bd565b602060405180830381600087803b15801561079857600080fd5b505af11580156107ac573d6000803e3d6000fd5b505050506040513d601f19601f820116820180604052508101906107d09190610ed7565b9050807fcd6e45c8998311cab7e9d4385596cac867e20a0587194b954fa3a731c93ce78b60405160405180910390a250505050565b6000600260009054906101000a900473ffffffffffffffffffffffffffffffffffffffff16905090565b6000600163ffffffff16905090565b60008080549050905090565b6000600361ffff16905090565b600060606000600260149054906101000a900460ff16600181111561087f5761087e611405565b5b6000600181111561089357610892611405565b5b14905060007f0000000000000000000000000000000000000000000000000000000000000000600354426108c79190611226565b119050600080600080549050119050600080471190508380156108e75750825b80156108f05750815b80156108f95750805b9550856040518060400160405280600381526020017f30783000000000000000000000000000000000000000000000000000000000008152509550955050505050915091565b60007f0000000000000000000000000000000000000000000000000000000000000000905090565b600080828154811061097c5761097b611434565b5b9060005260206000200160009054906101000a900473ffffffffffffffffffffffffffffffffffffffff169050919050565b60008080549050826000815181106109c9576109c8611434565b5b60200260200101516109db9190611376565b905060008082815481106109f2576109f1611434565b5b9060005260206000200160009054906101000a900473ffffffffffffffffffffffffffffffffffffffff16905080600260006101000a81548173ffffffffffffffffffffffffffffffffffffffff021916908373ffffffffffffffffffffffffffffffffffffffff160217905550600067ffffffffffffffff811115610a7b57610a7a611463565b5b604051908082528060200260200182016040528015610aa95781602001602082028036833780820191505090505b5060009080519060200190610abf929190610bdf565b506000600260146101000a81548160ff02191690836001811115610ae657610ae5611405565b5b02179055504260038190555060008173ffffffffffffffffffffffffffffffffffffffff1647604051610b1890611034565b60006040518083038185875af1925050503d8060008114610b55576040519150601f19603f3d011682016040523d82523d6000602084013e610b5a565b606091505b5050905080610b95576040517fa1d04b3900000000000000000000000000000000000000000000000000000000815260040160405180910390fd5b8173ffffffffffffffffffffffffffffffffffffffff167f5b690ec4a06fe979403046eaeea5b3ce38524683c3001f662c8b5a829632f7df60405160405180910390a25050505050565b828054828255906000526020600020908101928215610c58579160200282015b82811115610c575782518260006101000a81548173ffffffffffffffffffffffffffffffffffffffff021916908373ffffffffffffffffffffffffffffffffffffffff16021790555091602001919060010190610bff565b5b509050610c659190610c69565b5090565b5b80821115610c82576000816000905550600101610c6a565b5090565b6000610c99610c94846111a2565b61117d565b90508083825260208201905082856020860282011115610cbc57610cbb61149c565b5b60005b85811015610cec5781610cd28882610dea565b845260208401935060208301925050600181019050610cbf565b5050509392505050565b6000610d09610d04846111ce565b61117d565b905082815260208101848484011115610d2557610d246114a1565b5b610d30848285611303565b509392505050565b600082601f830112610d4d57610d4c611497565b5b8135610d5d848260208601610c86565b91505092915050565b60008083601f840112610d7c57610d7b611497565b5b8235905067ffffffffffffffff811115610d9957610d98611492565b5b602083019150836001820283011115610db557610db461149c565b5b9250929050565b600082601f830112610dd157610dd0611497565b5b8135610de1848260208601610cf6565b91505092915050565b600081359050610df9816114d8565b92915050565b600081519050610e0e816114d8565b92915050565b60008060208385031215610e2b57610e2a6114ab565b5b600083013567ffffffffffffffff811115610e4957610e486114a6565b5b610e5585828601610d66565b92509250509250929050565b600060208284031215610e7757610e766114ab565b5b600082013567ffffffffffffffff811115610e9557610e946114a6565b5b610ea184828501610dbc565b91505092915050565b600060208284031215610ec057610ebf6114ab565b5b6000610ece84828501610dea565b91505092915050565b600060208284031215610eed57610eec6114ab565b5b6000610efb84828501610dff565b91505092915050565b60008060408385031215610f1b57610f1a6114ab565b5b6000610f2985828601610dea565b925050602083013567ffffffffffffffff811115610f4a57610f496114a6565b5b610f5685828601610d38565b9150509250929050565b610f698161125a565b82525050565b610f788161126c565b82525050565b610f8781611278565b82525050565b6000610f98826111ff565b610fa2818561120a565b9350610fb2818560208601611312565b610fbb816114b0565b840191505092915050565b610fcf816112f1565b82525050565b6000610fe260008361121b565b9150610fed826114c1565b600082019050919050565b61100181611295565b82525050565b611010816112c3565b82525050565b61101f816112cd565b82525050565b61102e816112dd565b82525050565b600061103f82610fd5565b9150819050919050565b600060208201905061105e6000830184610f60565b92915050565b60006040820190506110796000830185610f60565b6110866020830184610f60565b9392505050565b60006040820190506110a26000830185610f6f565b81810360208301526110b48184610f8d565b90509392505050565b600060a0820190506110d26000830188610f7e565b6110df6020830187611025565b6110ec6040830186610ff8565b6110f96060830185611016565b6111066080830184611016565b9695505050505050565b60006020820190506111256000830184610fc6565b92915050565b60006020820190506111406000830184611007565b92915050565b600060608201905061115b6000830186611007565b6111686020830185611007565b6111756040830184611007565b949350505050565b6000611187611198565b90506111938282611345565b919050565b6000604051905090565b600067ffffffffffffffff8211156111bd576111bc611463565b5b602082029050602081019050919050565b600067ffffffffffffffff8211156111e9576111e8611463565b5b6111f2826114b0565b9050602081019050919050565b600081519050919050565b600082825260208201905092915050565b600081905092915050565b6000611231826112c3565b915061123c836112c3565b92508282101561124f5761124e6113a7565b5b828203905092915050565b6000611265826112a3565b9050919050565b60008115159050919050565b6000819050919050565b6000819050611290826114c4565b919050565b600061ffff82169050919050565b600073ffffffffffffffffffffffffffffffffffffffff82169050919050565b6000819050919050565b600063ffffffff82169050919050565b600067ffffffffffffffff82169050919050565b60006112fc82611282565b9050919050565b82818337600083830152505050565b60005b83811015611330578082015181840152602081019050611315565b8381111561133f576000848401525b50505050565b61134e826114b0565b810181811067ffffffffffffffff8211171561136d5761136c611463565b5b80604052505050565b6000611381826112c3565b915061138c836112c3565b92508261139c5761139b6113d6565b5b828206905092915050565b7f4e487b7100000000000000000000000000000000000000000000000000000000600052601160045260246000fd5b7f4e487b7100000000000000000000000000000000000000000000000000000000600052601260045260246000fd5b7f4e487b7100000000000000000000000000000000000000000000000000000000600052602160045260246000fd5b7f4e487b7100000000000000000000000000000000000000000000000000000000600052603260045260246000fd5b7f4e487b7100000000000000000000000000000000000000000000000000000000600052604160045260246000fd5b600080fd5b600080fd5b600080fd5b600080fd5b600080fd5b600080fd5b6000601f19601f8301169050919050565b50565b600281106114d5576114d4611405565b5b50565b6114e1816112c3565b81146114ec57600080fd5b5056fea2646970667358221220f5d084bb7bb50ef1d3a38f0745f4ed884f8b0bb70cc83fcde7805ea692e6627264736f6c63430008060033",
  "linkReferences": {},
  "deployedLinkReferences": {}
}